:020000040800F2
:10000000F02D00204DAA000897A40008A7A400081E
:10001000A9A40008ABA40008ADA4000800000000DB
:10002000000000000000000000000000AFA4000875
:10003000B1A4000800000000B3A40008B5A40008A3
:10004000BDA40008C9AA0008CDAA0008D1AA0008CA
:10005000D5AA00089FA40008D9AA0008DDAA0008B4
:10006000E1AA0008E5AA0008E9AA00083FA50008DF
:10007000EDAA0008F1AA0008F5AA0008F9AA0008EC
:10008000FDAA000801AB000805AB000809AB000899
:100090000DAB000811AB000815AB000819AB000848
:1000A0001DAB000821AB000825AB000829AB0008F8
:1000B000A5A500082DAB000831AB000835AB000842
:1000C00039AB00083DAB000841AB000845AB000868
:1000D00049AB0008C7A400084DAB000851AB0008AD
:1000E00055AB000859AB00085DAB000861AB0008D8
:1000F00065AB000869AB00086DAB000871AB000888
:1001000075AB000879AB00087DAB000881AB000837
:1001100085AB000889AB00088DAB000891AB0008E7
:1001200095AB000899AB00089DAB000861A50008DD
:10013000C1F30F2202617047C1F30F224261704781
:1001400010B50400200001F0DFFE042114F1D400FA
:1001500001F0F1FE052114F1F40001F0ECFE10BDF8
:1001600038B504000D002900200001F0D3FE32BD97
:10017000F8B504000D0016003100200001F0CAFEA1
:1001800007003900280001F0F4FEF2BD2DE9F0412E
:1001900004000D0000260027A178200001F088FF50
:1001A000A06DA179405C012812D0C0F071810328B4
:1001B00074D03ED3052800F0B180C0F089800728B4
:1001C00000F0F880C0F0D080082800F019815FE1CD
:1001D0000321200001F075FFA06D6179415C2000D2
:1001E00001F066FFA06DE179405CA16DE2791144F8
:1001F000497811EB0021A06DE2791044807810EB72
:100200000120A16DE2791144C97811EB00210F00A2
:100210003900280001F0ADFE06003100C9B220000F
:1002200001F046FFA06DA179415C200001F040FF84
:1002300030E101F065FF01F067FF4FF47A71484348
:1002400007000721200001F03CFFA06D6179415CAF
:10025000200001F02DFF3100C9B2200001F028FF7D
:10026000A06DA179415C200001F022FF3900090E48
:10027000C9B2200001F01CFF3900090CC9B22000EE
:1002800001F016FF3900090AC9B2200001F010FF81
:100290003900C9B2200001F00BFFFBE08048006884
:1002A00001F061FE0321200001F00BFFA06D6179D8
:1002B000415C200001F0FCFE3100C9B2200001F0D9
:1002C000F7FEA06DA179415C200001F0F1FEE1E0B4
:1002D000A06DE179405C002805D042F22001714810
:1002E000FFF72AFF04E042F220016E48FFF720FFEB
:1002F0000321200001F0E5FEA06D6179415C200042
:1003000001F0D6FE3100C9B2200001F0D1FEA06D8F
:10031000A179415C200001F0CBFEBBE0A06DE1794A
:10032000405C002805D041F210015E48FFF704FF51
:1003300004E041F210015B48FFF7FAFE03212000C0
:1003400001F0BFFEA06D6179415C200001F0B0FEBC
:100350003100C9B2200001F0ABFEA06DA179415C73
:10036000200001F0A5FE95E0A06DE179405C002839
:1003700005D048F280014B48FFF7DEFE04E048F26A
:1003800080014848FFF7D4FE0321200001F099FEC8
:10039000A06D6179415C200001F08AFE3100C9B294
:1003A000200001F085FEA06DA179415C200001F0E4
:1003B0007FFE6FE0A06DE179405C002805D044F23B
:1003C00040013848FFF7B8FE04E044F240013548E8
:1003D000FFF7AEFE0321200001F073FEA06D6179EE
:1003E000415C200001F064FE3100C9B2200001F040
:1003F0005FFEA06DA179415C200001F059FE49E04B
:10040000A06DE179405C002816D0DFF8988042F2B8
:1004100020014046FFF790FE41F210014046FFF7F1
:100420008BFE48F280014046FFF786FE44F2400111
:100430004046FFF781FE15E0DFF8688042F22001B8
:100440004046FFF775FE41F210014046FFF770FE8F
:1004500048F280014046FFF76BFE44F240014046FF
:10046000FFF766FE0321200001F02BFEA06D6179ED
:10047000415C200001F01CFE3100C9B2200001F0F7
:1004800017FEA06DA179415C200001F011FE01E092
:10049000012006003000C0B2BDE8F081000000007D
:1004A0001C000020000801402DE9F84F04000D0059
:1004B000160000275FF00008A178200001F0F8FD89
:1004C000A06DA179405C012821D0C0F002830328EF
:1004D00077D049D3052800F0CE80C0F09F80072850
:1004E00000F02781C0F0F680092800F08081C0F07C
:1004F0004F810B2800F06D82C0F0F1810D2800F0D3
:10050000A882C0F086820E2800F0C382E1E2A06DCE
:10051000E179405CA16DE2791144497811EB002149
:10052000A06DE2791044807810EB0120A16DE27992
:100530001144C97811EB002188460321200001F005
:10054000C0FDA06D6179415C200001F0B1FD00218A
:10055000200001F0ADFDA06DA179415C200001F00B
:10056000A7FDC5F8C480B6E2A06DE179405CA16D3D
:10057000E2791144497811EB0021A06DE279104431
:10058000807810EB0120A16DE2791144C97811EB5C
:10059000002188460321200001F093FDA06D6179C0
:1005A000415C200001F084FD0021200001F080FD6D
:1005B000A06DA179415C200001F07AFDC5F8C880EA
:1005C00089E2A06DE179405CA16DE279114449783E
:1005D00011EB0021A06DE2791044807810EB01202E
:1005E000A16DE2791144C97811EB002188460321FD
:1005F000200001F066FDA06D6179415C200001F0F2
:1006000057FD0021200001F053FDA06DA179415C50
:10061000200001F04DFDC5F8CC805CE2A06DE179D1
:10062000405CA16DE2791144497811EB0021A06D85
:10063000E2791044807810EB0120A16DE279114439
:10064000C97811EB002188460321200001F039FD13
:10065000A06D6179415C200001F02AFD002120009D
:1006600001F026FDA06DA179415C200001F020FD84
:10067000C5F8D0802FE2D5F8C400804607212000BD
:1006800001F01FFDA06D6179415C200001F010FDBB
:100690000021200001F00CFDA06DA179415C20003B
:1006A00001F006FD4146090EC9B2200001F000FD2F
:1006B0004146090CC9B2200001F0FAFC4146090A82
:1006C000C9B2200001F0F4FC4146C9B2200001F09B
:1006D000EFFC00E2D5F8C80080460721200001F0B9
:1006E000F0FCA06D6179415C200001F0E1FC00218B
:1006F000200001F0DDFCA06DA179415C200001F03B
:10070000D7FC4146090EC9B2200001F0D1FC414698
:10071000090CC9B2200001F0CBFC4146090AC9B25C
:10072000200001F0C5FC4146C9B2200001F0C0FC28
:10073000D1E1D5F8CC0080460721200001F0C1FCB2
:10074000A06D6179415C200001F0B2FC0021200025
:1007500001F0AEFCA06DA179415C200001F0A8FC85
:100760004146090EC9B2200001F0A2FC4146090C25
:10077000C9B2200001F09CFC4146090AC9B2200020
:1007800001F096FC4146C9B2200001F091FCA2E1C3
:10079000D5F8D00080460721200001F092FCA06D22
:1007A0006179415C200001F083FC0021200001F010
:1007B0007FFCA06DA179415C200001F079FC4146ED
:1007C000090EC9B2200001F073FC4146090CC9B200
:1007D000200001F06DFC4146090AC9B2200001F079
:1007E00067FC4146C9B2200001F062FC73E1A06DD4
:1007F000E179405CA16DE2791144497811EB002167
:10080000A06DE2791044807810EB0120A16DE279AF
:10081000114491F8039019EB0029C5F8C490A06D1C
:10082000E17908440079A16DE2791144497911EB2D
:100830000021A06DE2791044807910EB0120A16DB8
:10084000E279114491F807A01AEB002AC5F8C8A074
:10085000A06DE1790844007AA16DE2791144497AEA
:1008600011EB0021A06DE2791044807A10EB012099
:10087000A16DE279114491F80BB01BEB002BC5F888
:10088000CCB0A06DE1790844007BA16DE279114400
:10089000497B11EB0021A06DE2791044807B10EBC5
:1008A0000120A16DE2791144C97B11EB002188463A
:1008B000C5F8D0800321200001F003FCA06D617910
:1008C000415C200001F0F4FB0021200001F0F0FB6E
:1008D000A06DA179415C200001F0EAFBFBE0D5F8B6
:1008E000C4901321200001F0ECFBA06D6179415C04
:1008F000200001F0DDFB0021200001F0D9FBA06DFC
:10090000A179415C200001F0D3FB4946090EC9B230
:10091000200001F0CDFB4946090CC9B2200001F0CE
:10092000C7FB4946090AC9B2200001F0C1FB49468C
:10093000C9B2200001F0BCFBD5F8C8A05146090E91
:10094000C9B2200001F0B4FB5146090CC9B2200025
:1009500001F0AEFB5146090AC9B2200001F0A8FB24
:100960005146C9B2200001F0A3FBD5F8CCB05946DE
:10097000090EC9B2200001F09BFB5946090CC9B20F
:10098000200001F095FB5946090AC9B2200001F088
:100990008FFB5946C9B2200001F08AFBD5F8D00080
:1009A00080464146090EC9B2200001F081FB414654
:1009B000090CC9B2200001F07BFB4146090AC9B20B
:1009C000200001F075FB4146C9B2200001F070FB28
:1009D00081E0D5F8C4102800FFF7C2FB0100300009
:1009E00001F0C7FA07000321200001F06AFBA06DA7
:1009F0006179415C200001F05BFB3900C9B2200045
:100A000001F056FBA06DA179415C200001F050FB84
:100A100061E0D5F8C8102800FFF7A2FB0100300004
:100A200001F0A7FA07000321200001F04AFBA06DA6
:100A30006179415C200001F03BFB3900C9B2200024
:100A400001F036FBA06DA179415C200001F030FB84
:100A500041E0D5F8CC102800FFF782FB0100300000
:100A600001F087FA07000321200001F02AFBA06DA6
:100A70006179415C200001F01BFB3900C9B2200004
:100A800001F016FBA06DA179415C200001F010FB84
:100A900021E0D5F8D0102800FFF762FB01003000FC
:100AA00001F067FA07000321200001F00AFBA06DA6
:100AB0006179415C200001F0FBFA3900C9B22000E5
:100AC00001F0F6FAA06DA179415C200001F0F0FA86
:100AD00001E0012007003800C0B2BDE8F28F38B550
:100AE00004000D002900C9B2200001F01BFA32BD3C
:100AF0002DE9F84306005FF00008002400250421DA
:100B0000B01D01F035FB00273800C0B204282FDAF1
:100B10003800C0B206EB4000C088002140F6E4482F
:100B20005FF00009A8FB002308FB013309FB003339
:100B300042F210785FF00009A8FB020108FB0311E4
:100B400009FB0211B6F8BE20002301F075FBB6F8D0
:100B5000C020002301F070FB04000D002000000BFA
:100B6000401C3900C9B206EB4101C8817F1CCBE7AC
:100B70000020BDE8F283F8B504000D001600002740
:100B8000A06DA179405C01280BD0C0F0E281032860
:100B900000F0CC8055D3052800F0D281C0F041810F
:100BA000D7E1A178200001F083FA0B21200001F0A9
:100BB00088FAA06D6179415C200001F079FA00218A
:100BC000200001F075FAA06DA179415C200001F0D0
:100BD0006FFAD5F8E410090EC9B2200001F068FAE6
:100BE000D5F8E410090CC9B2200001F061FAD5F87B
:100BF000E410090AC9B2200001F05AFAD5F8E4104D
:100C0000C9B2200001F054FAB5F8E81089B2090A17
:100C1000C9B2200001F04CFAB5F8E810C9B22000C2
:100C200001F046FAB5F8EA1089B2090AC9B2200003
:100C300001F03EFAB5F8EA10C9B2200001F038FA26
:100C400089E1A06DE179405CC5F8E400D5F8E400E5
:100C5000A16DE2791144497811EB0021C5F8E41047
:100C6000D5F8E400A16DE2791144897811EB0021F7
:100C7000C5F8E410D5F8E400A16DE2791144C97813
:100C800011EB0021C5F8E410A06DE179084400796A
:100C9000A5F8E800B5F8E800A16DE27911444979BA
:100CA00011EB0021A5F8E810A06DE17908448079E6
:100CB000A5F8EA00B5F8EA00A16DE2791144C97916
:100CC00011EB0021A5F8EA10B5F8EA00C92802DB0B
:100CD000C820A5F8EA00B5F8E800C5F8E000D5F8A6
:100CE000E010B5F8EA004143C5F8E010D5F8E0108F
:100CF000D5F8E4004118C5F8E010A178200001F013
:100D0000D7F90321200001F0DCF9A06D6179415C85
:100D1000200001F0CDF90021200001F0C9F9A06DFB
:100D2000A179415C200001F0C3F914E1A178200011
:100D300001F0BEF91121200001F0C3F9A06D617925
:100D4000415C200001F0B4F90021200001F0B0F96D
:100D5000A06DA179415C200001F0AAF9B5F8D61088
:100D600089B2090AC9B2200001F0A2F9B5F8D6107B
:100D7000C9B2200001F09CF9B5F8D81089B2090A6F
:100D8000C9B2200001F094F9B5F8D810C9B220001A
:100D900001F08EF9B5F8EC1089B2090AC9B2200049
:100DA00001F086F9B5F8EC10C9B2200001F080F925
:100DB000B5F8EE1089B2090AC9B2200001F078F93D
:100DC000B5F8EE10C9B2200001F072F9B5F8F010D4
:100DD00089B2090AC9B2200001F06AF9B5F8F01029
:100DE000C9B2200001F064F9B5F8DA1089B2090A35
:100DF000C9B2200001F05CF9B5F8DA10C9B22000E0
:100E000001F056F9B5F8DC1089B2090AC9B2200020
:100E100001F04EF9B5F8DC10C9B2200001F048F934
:100E200099E0A06DE179405CA5F8D600B5F8D60050
:100E3000A16DE2791144497811EB0021A5F8D61093
:100E4000A06DE17908448078A5F8D800B5F8D800FD
:100E5000A16DE2791144C97811EB0021A5F8D810F1
:100E6000A06DE17908440079A5F8EC00B5F8EC0034
:100E7000A16DE2791144497911EB0021A5F8EC103C
:100E8000B5F8EC00152802DB1420A5F8EC00A06DE5
:100E9000E17908448079A5F8EE00B5F8EE00A16D7F
:100EA000E2791144C97911EB0021A5F8EE10A06D8B
:100EB000E1790844007AA5F8F000B5F8F000A16DDA
:100EC000E2791144497A11EB0021A5F8F010A06DE8
:100ED000E1790844807AA5F8DA00B5F8DA00A16D66
:100EE000E2791144C97A11EB0021A5F8DA10A06D5E
:100EF000E1790844007BA5F8DC00B5F8DC00A16DC1
:100F0000E2791144497B11EB0021A5F8DC10A178AE
:100F1000200001F0CDF80321200001F0D2F8A06DEF
:100F20006179415C200001F0C3F80021200001F04C
:100F3000BFF8A06DA179415C200001F0B9F80AE08A
:100F4000330015F1D4022900200000F0FAF907005F
:100F500001E0012007003800C0B2F2BDF8B504007E
:100F60000D0016000027A06DA179405C01280BD070
:100F7000C0F0E281032800F0CC8055D3052800F0B2
:100F8000D281C0F04181D7E1A178200001F090F832
:100F90000B21200001F095F8A06D6179415C2000E3
:100FA00001F086F80021200001F082F8A06DA179FF
:100FB000415C200001F07CF8D5F80411090EC9B29B
:100FC000200001F075F8D5F80411090CC9B2200011
:100FD00001F06EF8D5F80411090AC9B2200001F039
:100FE00067F8D5F80411C9B2200001F061F8B5F82E
:100FF000081189B2090AC9B2200001F059F8B5F800
:101000000811C9B2200001F053F8B5F80A1189B2ED
:10101000090AC9B2200001F04BF8B5F80A11C9B2AB
:10102000200001F045F889E1A06DE179405CC5F848
:101030000401D5F80401A16DE2791144497811EB5E
:101040000021C5F80411D5F80401A16DE27911441D
:10105000897811EB0021C5F80411D5F80401A16DC0
:10106000E2791144C97811EB0021C5F80411A06D93
:10107000E17908440079A5F80801B5F80801A16DE7
:10108000E2791144497911EB0021A5F80811A06D0E
:10109000E17908448079A5F80A01B5F80A01A16D43
:1010A000E2791144C97911EB0021A5F80A11B5F8CC
:1010B0000A01C92802DBC820A5F80A01B5F8080111
:1010C000C5F80001D5F80011B5F80A014143C5F88B
:1010D0000011D5F80011D5F804014118C5F8001128
:1010E000A178200000F0E4FF0321200000F0E9FFD8
:1010F000A06D6179415C200000F0DAFF0021200042
:1011000000F0D6FFA06DA179415C200000F0D0FF77
:1011100014E1A178200000F0CBFF1121200000F0A5
:10112000D0FFA06D6179415C200000F0C1FF00217B
:10113000200000F0BDFFA06DA179415C200000F00F
:10114000B7FFB5F8F61089B2090AC9B2200000F05D
:10115000AFFFB5F8F610C9B2200000F0A9FFB5F84E
:10116000F81089B2090AC9B2200000F0A1FFB5F851
:10117000F810C9B2200000F09BFFB5F80C1189B23D
:10118000090AC9B2200000F093FFB5F80C11C9B2EA
:10119000200000F08DFFB5F80E1189B2090AC9B21E
:1011A000200000F085FFB5F80E11C9B2200000F054
:1011B0007FFFB5F8101189B2090AC9B2200000F00A
:1011C00077FFB5F81011C9B2200000F071FFB5F833
:1011D000FA1089B2090AC9B2200000F069FFB5F817
:1011E000FA10C9B2200000F063FFB5F8FC1089B214
:1011F000090AC9B2200000F05BFFB5F8FC10C9B2C3
:10120000200000F055FF99E0A06DE179405CA5F861
:10121000F600B5F8F600A16DE2791144497811EBBA
:101220000021A5F8F610A06DE17908448078A5F8B2
:10123000F800B5F8F800A16DE2791144C97811EB16
:101240000021A5F8F810A06DE17908440079A5F80F
:101250000C01B5F80C01A16DE2791144497911EB4B
:101260000021A5F80C11B5F80C01152802DB14209B
:10127000A5F80C01A06DE17908448079A5F80E016C
:10128000B5F80E01A16DE2791144C97911EB002185
:10129000A5F80E11A06DE1790844007AA5F81001B7
:1012A000B5F81001A16DE2791144497A11EB0021E2
:1012B000A5F81011A06DE1790844807AA5F8FA002C
:1012C000B5F8FA00A16DE2791144C97A11EB002159
:1012D000A5F8FA10A06DE1790844007BA5F8FC00A0
:1012E000B5F8FC00A16DE2791144497B11EB0021B6
:1012F000A5F8FC10A178200000F0DAFE0321200000
:1013000000F0DFFEA06D6179415C200000F0D0FEAE
:101310000021200000F0CCFEA06DA179415C2000EE
:1013200000F0C6FE0AE0330015F1F40229002000A7
:1013300000F007F8070001E0012007003800C0B204
:10134000F2BD2DE9F94F83B00C00150000265FF0C7
:1013500000090020ADF800000020ADF80200286967
:1013600001900020029001F092F85FF0040A5FF013
:10137000000B14F1B6075A465146380001F0B0F898
:1013800003988178039800F093FEE88AC0000C303F
:10139000010089B2039800F094FE2978039800F0C8
:1013A00087FE0021039800F083FE0521039800F0DA
:1013B0007FFE286980B24FF4FA6190FBF1F080B2B1
:1013C000C000001DADF80200BDF80210C9B20398BC
:1013D00000F06EFE002000273800E98A80B28842C3
:1013E00080F08C81DFF8F0AA42F220015046FEF72F
:1013F0009FFE41F210015046FEF79AFE48F280012E
:101400005046FEF795FE44F240015046FEF790FE2E
:10141000DFF8C8BADFF8C81A5846FEF78DFEDFF8C5
:10142000C41A5846FEF784FEDFF8BC1A5846FEF789
:1014300083FE40F60801DFF8B40AFEF779FE44F2B5
:1014400040015846FEF778FE48F280015846FEF704
:101450006FFEDFF89C1A5846FEF76EFEDFF8941A0E
:101460005846FEF765FE0199200001F088FA0290C7
:101470000299049800F07DFD0199A88A4118019114
:10148000DFF8601A5846FEF757FEDFF8541A584640
:10149000FEF74EFE40F60801DFF8500AFEF74CFE5C
:1014A000DFF8441A5846FEF743FE48F280015846DA
:1014B000FEF742FE44F240015846FEF739FEDFF8DF
:1014C000341A5846FEF738FEDFF8241A5846FEF75D
:1014D0002FFE42F220015046FEF72EFE41F210018F
:1014E0005046FEF729FE48F280015046FEF724FEE2
:1014F00044F240015046FEF71FFE062001F0B0FB0B
:10150000380080B20A2802DA0A2001F0A9FB200084
:10151000FFF7EEFA002006003000C0B2042880F287
:10152000E980380080B2002816D13000C0B204EB48
:101530004000C089A988884207D368883100C9B2B1
:1015400004EB4101C989884206D201203100C9B2A9
:1015500004EB4101A1F8B6003000C0B204EB40003A
:10156000B0F8B60000281CD1380080B2E98A491EC4
:10157000884216D13000C0B204EB4000C0892989EE
:10158000884207D3E8883100C9B204EB4101C98918
:10159000884206D2781C3100C9B204EB4101A1F89F
:1015A000B6003000C0B204EB4000B0F8B60000282E
:1015B00040F08A803800298B80B2884210D23100F6
:1015C000C9B22820414304EB0100390089B200EB85
:1015D00041003100C9B204EB4101C989C18273E005
:1015E00028213000C0B248432044163080460020F5
:1015F00081464846C0B22A8B521E904208DAB8F89B
:101600000200A8F8000018F1020819F10109F0E73A
:101610003000C0B204EB4000C089A8F800000120EF
:10162000ADF800003000C0B248432044C08A320008
:10163000D2B204EB4202D28990420DD23000C0B245
:1016400004EB4000C2893000C0B248432044C08A45
:10165000121AADF8002018E03000C0B204EB4000D0
:10166000C0893200D2B24A432244D28A90420CD27C
:101670003000C0B248432044C28A3000C0B204EBFC
:101680004000C089121AADF800203000C0B204EB4F
:101690004000C0893200D2B201FB02F12144C98A64
:1016A00088420AD3BDF80000A98B884205D3688B15
:1016B0004946C9B289B2884206D2781C3100C9B203
:1016C00004EB4101A1F8B6003000C0B204EB4000C9
:1016D000C18989B2090AC9B2039800F0E9FC300057
:1016E000C0B204EB4000C189C9B2039800F0E0FC2D
:1016F000761C11E701F0BEFA7F1C6DE65FF0000A70
:101700005046C0B2042818DA5046C0B204EB40007C
:10171000B0F8B61089B2090AC9B2039800F0C8FC43
:101720005046C0B204EB4000B0F8B610C9B20398FE
:1017300000F0BEFC1AF1010AE2E7DFF89CB742F2C2
:1017400020015846FEF7F4FC41F210015846FEF71E
:10175000EFFC48F280015846FEF7EAFC44F24006EE
:1017600031005846FEF7E4FCDFF870B7DFF8701779
:101770005846FEF7E1FCDFF86C175846FEF7D8FC38
:10178000DFF864175846FEF7D7FC40F60801DFF88B
:101790005C07FEF7CDFC31005846FEF7CDFC48F261
:1017A00080015846FEF7C4FCDFF844175846FEF7A0
:1017B000C3FCDFF840175846FEF7BAFC049800F067
:1017C000D2FB00F060FE002005B0BDE8F08F70B5E0
:1017D00004000D000026A06DA179405C012811D005
:1017E000C0F05E81032851D029D3052800F09280F3
:1017F00073D3072800F0DE80C0F0B480082800F022
:1018000012814DE1A178200000F052FC042120005B
:1018100000F057FCA06D6179415C200000F048FCAD
:101820000021200000F044FCA06DA179415C200063
:1018300000F03EFC2978200000F03AFC32E1A1786B
:10184000200000F035FC0521200000F03AFCA06DDE
:101850006179415C200000F02BFC0021200000F0A9
:1018600027FCA06DA179415C200000F021FCB5F8B7
:10187000BE1089B2090AC9B2200000F019FCB5F8FF
:10188000BE10C9B2200000F013FC0BE1A1782000CB
:1018900000F00EFC0521200000F013FCA06D617922
:1018A000415C200000F004FC0021200000F000FC5E
:1018B000A06DA179415C200000F0FAFBB5F8C010E2
:1018C00089B2090AC9B2200000F0F2FBB5F8C010D5
:1018D000C9B2200000F0ECFBE4E0A06DE179405CCF
:1018E0002870A178200000F0E3FB0321200000F025
:1018F000E8FBA06D6179415C200000F0D9FB00217C
:10190000200000F0D5FBA06DA179415C200000F023
:10191000CFFBC7E0A06DE179405CA5F8BE00B5F84B
:10192000BE00A16DE2791144497811EB0021A5F8C0
:10193000BE10A178200000F0BBFB0321200000F0C6
:10194000C0FBA06D6179415C200000F0B1FB00217B
:10195000200000F0ADFBA06DA179415C200000F0FB
:10196000A7FB9FE0A06DE179405CA5F8C000B5F849
:10197000BE00A16DE2791144497811EB0021A5F870
:10198000C010A178200000F093FB0321200000F09C
:1019900098FBA06D6179415C200000F089FB00217B
:1019A000200000F085FBA06DA179415C200000F0D3
:1019B0007FFB77E0A178200000F07AFB082120006F
:1019C00000F07FFBA06D6179415C200000F070FBAE
:1019D0000021200000F06CFBA06DA179415C20008B
:1019E00000F066FB2978200000F062FBB5F8BE101D
:1019F00089B2090AC9B2200000F05AFBB5F8BE103E
:101A0000C9B2200000F054FBB5F8C01089B2090A31
:101A1000C9B2200000F04CFBB5F8C010C9B22000DC
:101A200000F046FB3EE0A06DE179405C2870A06DBF
:101A3000E17908444078A5F8BE00B5F8BE00A16D74
:101A4000E2791144897811EB0021A5F8BE10A06D50
:101A5000E1790844C078A5F8C000B5F8C000A16DD0
:101A6000E2791144097911EB0021A5F8C010A178A1
:101A7000200000F01DFB0321200000F022FBA06DE0
:101A80006179415C200000F013FB0021200000F090
:101A90000FFBA06DA179415C200000F009FB01E083
:101AA000012006003000C0B270BDF8B504000D0082
:101AB00016000027A06D6179405C002808D002283C
:101AC0000DD006D3042816D010D305281AD020E054
:101AD00021E031002000FEF759FB07001BE0320037
:101AE00029002000FEF7E0FC070014E02900200098
:101AF000FFF76DFE0FE0320029002000FFF73BF8F2
:101B0000070008E0320029002000FFF727FA07004D
:101B100001E0012007003800C0B2F2BD70B504003A
:101B20000D001600200000F0A1FA01281FD12000AE
:101B300000F0D6FA00280FD1200000F0D7FA0028D4
:101B40000AD1320029002000FFF7AFFF00280AD198
:101B5000200000F0BFFA06E02278521EDFF898134A
:101B6000200001F0A0FE200000F07AFA02E0200040
:101B700000F082FA70BD80B500F0E6F902BDF8B55C
:101B8000040001F0FDFF0425002614F1B607320021
:101B90002900380000F0A4FC0020F2BD80B501F05F
:101BA000F3FF002002BD38B5040000200025280006
:101BB000C0B204283FDA2800C0B2002805D00228AD
:101BC00017D00CD303281ED027E02800C0B204EBA6
:101BD0004000B0F8B600C0B201F0DAFF29E02800FA
:101BE000C0B204EB4000B0F8B600C0B201F0D7FFBD
:101BF0001FE02800C0B204EB4000B0F8B600C0B24D
:101C000001F0D4FF15E02800C0B204EB4000B0F8AA
:101C1000B600C0B201F0D1FF0BE0012001F0B8FF27
:101C2000012001F0BCFF012001F0C0FF012001F004
:101C3000C4FF6D1CBBE7002032BD2DE9F14F0C0045
:101C400015001E00FFF797FF07003800C0B2FF28FD
:101C500001D102203CE13800C0B20F2845D1280054
:101C600000F081F9DFF8708242F220014046FEF771
:101C70005FFA41F210014046FEF75AFA48F280013D
:101C80004046FEF755FA44F240014046FEF750FA4E
:101C9000DFF86882DFF868B259464046FEF748FA36
:101CA00040F2022949464046FEF742FADFF854A2C4
:101CB00040F204415046FEF73BFA59465046FEF7C3
:101CC00037FADFF830B259464046FEF731FA40F2B3
:101CD00001114046FEF72CFA49465046FEF728FA15
:101CE00059465046FEF724FAEAE03000C0B2002818
:101CF00001D10320ECE03100C9B22000FEF7EFFE75
:101D00002000FFF73CFF3800C0B201280BD0C0F024
:101D1000BA80032841D023D3052878D05AD3062887
:101D200000F09380AFE0D4F8C42029002000FEF733
:101D30001FFADFF8A48142F220014046FEF7FCF9C9
:101D400041F210014046FEF7F7F948F280014046A3
:101D5000FEF7F2F944F240014046FEF7EDF9AAE041
:101D6000D4F8C82029002000FEF702FADFF86881C5
:101D700042F220014046FEF7DFF941F210014046F1
:101D8000FEF7DAF948F280014046FEF7D5F944F251
:101D900040014046FEF7D0F98DE0D4F8CC20290070
:101DA0002000FEF7E5F9DFF8308142F220014046DD
:101DB000FEF7C2F941F210014046FEF7BDF948F2C4
:101DC00080014046FEF7B8F944F240014046FEF774
:101DD000B3F970E0D4F8D02029002000FEF7C8F94C
:101DE000DFF8F48042F220014046FEF7A5F941F207
:101DF00010014046FEF7A0F948F280014046FEF788
:101E00009BF944F240014046FEF796F953E02B005F
:101E100014F1D40221000098FFF793FADFF8B8809C
:101E200042F220014046FEF783F941F2100140469C
:101E3000FEF77EF948F280014046FEF779F944F258
:101E400040014046FEF774F935E02B0014F1F4022E
:101E500021000098FFF775FADFF87C8042F220013C
:101E60004046FEF765F941F210014046FEF760F981
:101E700048F280014046FEF75BF944F240014046DB
:101E8000FEF756F917E0DFF8508042F22001404695
:101E9000FEF74EF941F210014046FEF749F948F2CB
:101EA00080014046FEF744F944F240014046FEF707
:101EB0003FF9FF2007002000FFF775FEFFF76EFED9
:101EC0003800C0B2FF2801D0002007003800C0B29F
:101ED000BDE8F28F00000000000801400010014042
:101EE000200020044000400480008004000C0140D9
:101EF000010001040200020478A900080018014052
:101F0000040004040014014010B50400200000F097
:101F10002CFD10BD38B504000D002900200000F094
:101F20002EFD32BD38B504000D002900C9B22000D5
:101F300000F085FD32BD38B504000D002900C9B29E
:101F4000200000F098FD32BD80B500F035FE02BDE6
:101F500070B504000D0016003200D2B22900200036
:101F600001F032FE70BD10B50400200001F037FE14
:101F700010BD38B504000D002900200001F035FE29
:101F800032BDF0B40246106895681318506803EB30
:101F90005004C0071DD54D441BE013F8017B05F824
:101FA000017B491EF9D1A0B1B60813F8011B06F058
:101FB0000306032E08BF13F8016B01EB062149420B
:101FC000801C294405D011F8016B05F8016B401EF7
:101FD000F9D1A3420ED013F8016B16F0030104BF30
:101FE00013F8011BC91C30090F28DAD113F8010BB3
:101FF0000F30D6E7F0BC02F10C0070472DE9F04F2E
:1020000085B006000F00904699460E9CDDF83CA076
:10201000109DDDF844B000208DF81000CDF80CB014
:102020002800C0B20290CDF804A0200080B2009039
:102030004B46DBB24246390089B2300001F0DDFD8B
:102040008DF8100005200190042000900323032246
:102050000021300001F005FEC0B205B0BDE8F08FF0
:1020600010B50400200001F015FE10BD10B50400ED
:10207000200001F015FE10BD10B504000121200064
:1020800001F014FE10BD38B504000D002900C9B2DE
:10209000200001F014FE32BD10B50400200001F054
:1020A0001DFE10BD10B50400200001F01DFE10BD86
:1020B00038B504000D002900C9B2200001F01AFE55
:1020C00032BD38B504000D00290089B2200001F0AE
:1020D0001AFE32BD10B50400200001F01DFE10BD37
:1020E00010B50400200001F01DFE10BD10B5040065
:1020F000200001F0EDFD10BD80B501F019FE01BD1D
:1021000080B501F019FE01BD80B501F019FE02BDD8
:1021100038B504000D002900C9B2200001F014FEFA
:1021200031BD30B4002513E050F8042BD30744BF71
:10213000A9F101039A18091F042942F8045BFAD295
:1021400013468C0744BF15809B1CC90748BF1D70F0
:1021500050F8041B0029E7D130BC704780B501F06E
:10216000FCFD02BD10B50400200001F000FE10BD12
:102170002DE9F04704000D0000272B4801F0F1FD88
:102180002800C0B2032802DB284801F0EAFD284EEF
:10219000306800780028FAD02800C0B2032804DB99
:1021A0002448006800780028FAD0306801F0E5FD86
:1021B0002800C0B2032803DB1E48006801F0DDFDE3
:1021C0005FF0000840462900C0B2C9B2884228D258
:1021D0004046C0B2002805D002280BD006D3032801
:1021E0000DD011E030684088208017E0306880888A
:1021F000608013E00F4800684088A0800EE00D4822
:1022000000688088E08009E02F00FFB25FF00009DD
:10221000A2464A463900504600F062F918F101081A
:10222000D0E70020BDE8F08700240140003C0140D9
:102230000000002004000020BBBBE1B1B2F5803FEC
:1022400080F07E80022A1ED98C46B1FBF2F102FB9F
:1022500011C31B0443EA1043B3FBF2FC02FB1C3323
:1022600080B240EA0343B3FBF2F002FB103240EAD3
:102270000C4000237047022A05D98446B0FBF2F0D7
:1022800002FB10C270474AB105D100F001024908B3
:102290005FEA3000704700220023704701F074BDF0
:1022A0000B000200002100207047904271EB030CEC
:1022B000F6D3B3F5803F2FD2F0B5B3FA83F7B1FA76
:1022C00081F4A7F10F0E3D1B5340CEF1200602FA18
:1022D0000EF2F3415340B5F10F0746D80F3C2C44A2
:1022E0004140C4F12006A040F1414140B1FBF3F66A
:1022F00003FB1611A2FB0645001BA94102D2761E64
:102300008018594180EA010221FA0EF362FA0EF2B6
:1023100000215A403046F0BD30B4B1FBF3FC03FB62
:102320001C11A2FB0C45001BA94103D2ACF1010C0E
:102330008018594130BC02460B4660460021704768
:10234000B2F1807F65D3F0B5B2FA82F7B1FA81F4C9
:10235000C7F10F063D1B22FA06F307F1110EF241F9
:1023600020355A40B5F10F07B8D94140C4F12006D5
:10237000A040F1414140B1FBF3FC03FB1C11A2FB67
:102380000C45001BA94103D2BCF1010C8018594136
:102390000F2F12D30F3FC90341EA5041B1FBF3F6AF
:1023A00003FB1611A2FB0645D4EBC030A94102D2B3
:1023B000761E8018594146EACC3C07B34140C7F12C
:1023C0002006B840F1414140B1FBF3F603FB161182
:1023D000A2FB0645001BA94102D2761E8018594176
:1023E00080EA010221FA0EF3C7F1200462FA0EF22C
:1023F0000CFA07F05A402CFA04F13043F0BD80EAA1
:10240000010221FA0EF3002162FA0EF260465A40F0
:10241000F0BD8C46B1FBF2F102FB11C31B0243EA93
:102420001063B3FBF2FC02FB1C331B024CEA0020DE
:1024300043EA1063B3FBF2FC02FB1C331B024CEAC1
:10244000002043EA1063B3FBF2FC02FB1C331B02C7
:102450004CEA002043EA1063B3FBF2FC02FB1C329F
:102460004CEA00200023704780B501F08EFC01BDCE
:1024700010B504002000C0B201F08BFC10BD80B587
:1024800001F08EFC01BD80B501F08EFC01BD80B570
:1024900001F08EFC01BD80B501F08EFC02BD80B55F
:1024A00001F08EFC01BD10B504000F20FFF7E0FF26
:1024B000FFF7E5FFFFF7E7FF10BD80B501F084FCF3
:1024C00001BDB1F5807F02D34FF0FF30704701703E
:1024D000012070470078401E8041C043C00F704704
:1024E00062F30F2262F31F42401810F0030308D07A
:1024F000C91A1FD3DB0748BF00F8012D28BF20F8F9
:10250000022D130030B414461546103928BF20E9B7
:102510003C00FAD8490728BF20E90C0048BF40F822
:10252000042D890028BF20F8022D48BF00F8012D96
:1025300030BC7047C91818BF00F8012DCB0728BF61
:1025400000F8012D70478268521C8260426832B1E7
:102550000268531C036011704168491E4160704756
:10256000806810EA112080B2C1F30F21884201D1A6
:10257000012000E00020C0B27047C1F30F220261C9
:10258000704730B585B0DFF804460121200001F026
:102590001FFC0121200001F01BFC0121200001F0A3
:1025A00017FC0121200001F013FC6846142101F002
:1025B0001DFC0120019001200290002003900120C9
:1025C000049042F2200500956946200001F07CFC51
:1025D00029002000FFF7D1FF41F210050095694660
:1025E000200001F071FC29002000FFF7C6FF48F22F
:1025F000800500956946200001F066FC2900200056
:10260000FFF7BBFF44F2400500956946200001F04A
:102610005BFC29002000FFF7B0FF05B030BD2DE9BD
:10262000F04F85B0DFF868450121200001F0D0FBB4
:102630000121200001F0CCFB0121200001F0C8FBAA
:102640000121200001F0C4FB0121200001F0C0FBAA
:102650000121200001F0BCFB0121200001F0B8FBAA
:102660000121200001F0B4FBDFF8285501212800EA
:1026700001F0AEFB0121280001F0AAFB0121280096
:1026800001F0A6FB0121280001F0A2FB0121280096
:1026900001F09EFB0121280001F09AFB0121280096
:1026A00001F096FB0121280001F092FB68461421FD
:1026B00001F09CFB01200190012002900420039076
:1026C00001200490DFF8D00400906946200001F05A
:1026D000FBFBDFF8C4142000FFF74FFFDFF8BC64FA
:1026E00000966946200001F0EFFB31002000FFF763
:1026F00044FFDFF8AC7400976946200001F0E4FB6A
:1027000039002000FFF739FFDFF89884CDF800800A
:102710006946200001F0D8FB41462000FFF72DFF5D
:1027200044F24009CDF800906946200001F0CCFB4E
:1027300049462000FFF721FF42F2200ACDF800A011
:102740006946200001F0C0FB51462000FFF715FF4D
:1027500041F2100BCDF800B06946200001F0B4FB47
:1027600059462000FFF709FF40F60800009069462F
:10277000200001F0A9FB40F608012000FFF7FDFE54
:1027800048F2800400946946280001F09DFB210076
:102790002800FFF7F2FECDF800906946280001F00E
:1027A00093FB49462800FFF7E8FECDF800A06946F4
:1027B000280001F089FB51462800FFF7DEFECDF826
:1027C00000B06946280001F07FFB59462800FFF75A
:1027D000D4FEDFF8C40300906946280001F074FBC2
:1027E000DFF8B4132800FFF7C8FE009669462800FA
:1027F00001F06AFB31002800FFF7BFFE0097694631
:10280000280001F061FB39002800FFF7B6FECDF883
:1028100000806946280001F057FB41462800FFF779
:10282000ACFE05B0BDE8F08F2DE9F84304000220AE
:10283000207004250026671C320029003800FFF7AD
:102840004FFE6420A4F8BE006420A4F8C0004FF43A
:102850004840C4F8C4004AF68010C4F8C80047F6DF
:102860000C30C4F8CC0045F60A20C4F8D000042788
:102870005FF0000814F1B609424639004846FFF7F8
:102880002FFE4FF4E170A4F8D600FA20A4F8D80087
:102890004FF44870A4F8DA004FF4FA71A4F8DC1091
:1028A00044F62061C4F8E410BF4AD2F8E430CB18F3
:1028B000C4F8E030C823A4F8E8306423A4F8EA3070
:1028C000B4F8EA30C92B02DBC823A4F8EA304FF48D
:1028D0006163A4F8F2300623A4F8EC301423A4F8C2
:1028E000EE300023A4F8F030B4F8EC30152B02DB06
:1028F0001423A4F8EC30A4F8F6004FF41670A4F8F2
:10290000F8004FF4AF60A4F8FA0040F24C40A4F88D
:10291000FC0049F64040C4F80401D2F8040109184B
:10292000C4F80011C820A4F808016420A4F80A0122
:10293000B4F80A01C92802DBC820A4F80A0140F64D
:10294000C410A4F812010620A4F80C011E20A4F85B
:102950000E010020A4F81001B4F80C01152802DBC8
:102960001420A4F80C01BDE8F18310B50400200088
:10297000FFF75AFFFFF705FEFFF751FE10BD2DE9E7
:10298000F84305000C00002600272878012809D00C
:1029900050D3032818D017D3052839D026D30628BA
:1029A00036D047E0DFF804825FF000092200002300
:1029B000A2FB080102FB091103FB081141F63212C8
:1029C0000023FFF739FC38E0DFF8E4815FF000090D
:1029D00022000023A2FB080102FB091103FB0811DE
:1029E00049F26E620023FFF727FC26E0DFF8C4817E
:1029F0005FF0000922000023A2FB080102FB09117D
:102A000003FB08114FF448620023FFF715FC14E0A4
:102A1000DFF8A0815FF0000922000023A2FB08017B
:102A200002FB091103FB08114FF4C8520023FFF702
:102A300003FC02E044F620600021BDE8F28310B4FC
:102A40000200002000231800C0B2042810DAC807D2
:102A500005D501201C00E4B21444607004E000209D
:102A60001C00E4B214446070C9B249085B1CEAE778
:102A7000002010BC7047020011700020704738B56C
:102A80000024434D44492800FFF76AFD002801D186
:102A900054F0010441492800FFF762FD002801D1EC
:102AA00054F002043E492800FFF75AFD002801D1E6
:102AB00054F004043B492800FFF752FD002801D1DF
:102AC00054F008042000C0B232BD38B50024304DA7
:102AD00044F240012800FFF743FD002801D154F0E3
:102AE000010441F210012800FFF73AFD002801D14E
:102AF00054F0040440F608012800FFF731FD0028D7
:102B000001D154F008042000C0B232BD38B5002411
:102B1000204D48F280012800FFF722FD002801D156
:102B200054F0010442F220012800FFF719FD0028AB
:102B300001D154F0040441F210012800FFF710FD08
:102B4000002801D154F008042000C0B232BD38B5CD
:102B50000024104D10492800FFF702FD002801D184
:102B600054F001040E492800FFF7FAFC002801D1B7
:102B700054F004040B492800FFF7F2FC002801D1AF
:102B800054F008042000C0B232BD0000000801402B
:102B900000180140001401408000800440004004FF
:102BA0002000200410001004BC1A0020EA4C0F0082
:102BB000001BB70040420F0070B5FFF760FF040034
:102BC000FFF783FF05002543FFF7A0FF06002E4314
:102BD000FFF7BDFF0100314311F00F010800C0B243
:102BE000012816D033D3032817D014D3052818D0C2
:102BF00015D3072819D016D309281AD017D30B28B4
:102C00001BD018D30D281CD019D30F281DD01AD3D0
:102C10001DE001201CE002201AE0032018E004203F
:102C200016E0052014E0062012E0072010E008203E
:102C30000EE009200CE00A200AE00B2008E00C203E
:102C400006E00D2004E00E2002E00F2000E0FF204F
:102C5000C0B270BD10B50400200001F083F910BDB2
:102C600010B50400200001F077F910BD80B501F027
:102C70007FF902BD80B501F07FF902BDDFF8D00613
:102C80000068C0F302207047012210F01F018A4043
:102C9000DFF8C01603005BB25B0941F823207047E0
:102CA00010B4020052B2002A0AD50A01DFF8A83691
:102CB000040064B214F00F04234403F8042C05E06C
:102CC0000A01DFF89836040064B21A5510BC704748
:102CD00070B4030013F00704D4F10700052801D3F2
:102CE000042001E0D4F10700251D072D01D20025A5
:102CF00000E0E51E012616FA00F0401E0140A94042
:102D000016FA05F56D1E2A401143080070BC704785
:102D100081B0DFF84C160A6802430A600968014076
:102D20000091009901B07047DFF834160A688243B9
:102D30000A60704781B0DFF82C160A6802430A6007
:102D4000096801400091009901B07047DFF814163E
:102D50000A6882430A607047F0B510EB116491FA7B
:102D6000A1F5B5FA85F391FAA1F6B6FA86F7D4F88B
:102D700000C05FF00F0EDBB29B001EFA03FE3CEAC0
:102D80000E0CFFB2BB0012FA03F353EA0C0CC4F8AA
:102D900000C0F0BDC1F30F2202617047C1F30F22E2
:102DA00042617047C16851F40051C16070470169C8
:102DB00031F490410161416931F02A01416170476C
:102DC0000068800910F0010070470068C00910F029
:102DD000010070477FF0400101607047C16851F009
:102DE0002001C1607047C16851F04001C160704767
:102DF000C16851F08001C1607047C16831F0400185
:102E0000C1607047C16831F08001C1607047C0681F
:102E1000800910F001007047C068C00910F001007F
:102E200070470A00D2B2426070470100002008706B
:102E300000204870002088700020C87000200871B1
:102E400000204871002088710020C871002088602F
:102E50000020C860002008610020486100208861CF
:102E6000002081F83C00002081F83D00002081F81E
:102E70003F000020A1F840000020A1F842000020FF
:102E8000A1F844000020A1F84600002081F83E008F
:102E9000002081F848000020C86400200865002058
:102EA00048650020886500200877002048770020CA
:102EB000C8770020088400204884002088840020EF
:102EC000C88401208877002081F828000020C8628B
:102ED0000020086300204863002088630020C86544
:102EE000002070472DE9F84F04000F0090469946E6
:102EF0000A9DDDF82CA00C9EDDF834B02000FFF711
:102F000094FF84F83D90A4F84670C4F85880667722
:102F1000E584C4F838A0C4F85CB0002C08D0DFF811
:102F2000380A0068844203D1200000F085FD11E0DA
:102F3000002C05D0002C03D1200000F013FE09E086
:102F4000002C05D0002C03D1200000F00EFE01E083
:102F5000022000E00020BDE8F28F38B504000D002B
:102F6000E06800280ED02800C0B2012805D109224F
:102F7000A168E068FFF7F0FE04E00822A168E068BD
:102F8000FFF7EAFE002032BD38B504000D0060698D
:102F900000280CD02800C0B2012804D12169606942
:102FA000FFF7FCFE03E021696069FFF7F3FE0020F4
:102FB00032BD70B504000D000026E06D002802D07F
:102FC000E06D804706002800C0B2002803D0E66408
:102FD000E06C206502E0E662E06A2063002070BDDC
:102FE000F8B504000D0016000027E06D002803D09E
:102FF000E06D8047801C07003000C0B200281FD061
:103000002765E06C216D884209D2216DE06C091AB8
:103010008D4235D2012084F84800012031E0206D36
:10302000E16C88422CD2E16C5FF0FF30411A206DD8
:1030300041188D4224D2012084F84800012020E06C
:103040002763E06A216B884209D2216BE06A091A82
:103050008D4215D2012084F82800012011E0206B58
:10306000E16A88420CD2E16A5FF0FF30411A206BBE
:1030700041188D4204D2012084F82800012000E08C
:103080000020F2BD70B504000D0000262800C0B27B
:1030900000281FD0E06C002842D0606D00283FD08F
:1030A000E06C002801D100203CE00122616D20008D
:1030B000FFF796FF06003000C0B2002830D022781B
:1030C000521EDFF85819200000F0EDFB200000F040
:1030D0009FFB25E0E06A002822D0606B00281FD00B
:1030E000E06A002801D100201CE00022616B200072
:1030F000FFF776FF06003000C0B200280DD0E06A6E
:1031000000280AD02278521EDFF8241A200000F08E
:10311000CAFB200000F09AFB02E0002084F828009F
:103120003000C0B270BD38B504000D00DFF8041ADD
:103130000D7094F83F00002805D002283DD01CD324
:10314000032866D066E0B4F84200002814D1607805
:103150000A78904210D10878A16D0870012084F897
:103160003F000120A4F8440001212000FFF721FFC7
:103170000121200000F03BFB4CE00878002814D02F
:103180000878B4F84620D2B290420ED20878A26DE8
:1031900050700878A4F84000B4F84400401CA4F82B
:1031A0004400022084F83F0002E0002084F83F0041
:1031B00001212000FFF7FDFE2CE0A06DB4F84220B5
:1031C000104409788170B4F84200401CA4F8420011
:1031D000B4F84400401CA4F84400B4F84200B4F829
:1031E000461080B2884202D30020A4F84200012198
:1031F0002000FFF7DEFEB4F84200B4F8401080B2C1
:10320000884205D3032084F83F00012084F83E0063
:1032100000E0FFE7002032BD38B504000D00DFF804
:1032200018190D7094F83F00002807D0022837D0F5
:103230001ED3042800F089805BD387E0B4F84200F5
:10324000002814D160780A78904210D10878A16DD6
:103250000870012084F83F000120A4F844000121F7
:103260002000FFF7A6FE0121200000F0C0FA6DE06B
:103270000878A26D50700878A4F84000B4F84000B7
:103280000002A4F84000022084F83F00B4F8440093
:10329000401CA4F8440001212000FFF78AFE55E0FD
:1032A0000878A26D9070B4F8402008788218A4F8CD
:1032B0004020B4F84400401CA4F84400B4F8400096
:1032C00000280ED0B4F84000B4F8461080B288420E
:1032D00007D2B4F84000A4F84400032084F83F006B
:1032E00002E0002084F83F0001212000FFF761FE8A
:1032F0002CE0A06DB4F8422010440978C170B4F8F5
:103300004200401CA4F84200B4F84400401CA4F859
:103310004400B4F84200B4F8461080B2884202D3A8
:103320000020A4F8420001212000FFF742FEB4F87B
:103330004200B4F8401080B2884205D3042084F8DB
:103340003F00012084F83E0000E0FFE7002032BD8E
:103350000CED00E000E100E018ED00E000E400E02A
:103360001C1002401810024038B504000D00B4F8DB
:103370004600FF2805DA2900C9B22000FFF7D3FE76
:1033800004E02900C9B22000FFF746FF32BD38B57E
:1033900004000D002900C9B2A069FFF742FDA06931
:1033A000FFF70EFD002802D1FFF764FCF7E7A069E4
:1033B000FFF710FD002032BD10B50400208C00285E
:1033C0002CD0608C218C80B2884223D0A06B618C81
:1033D000415CA069FFF725FD608C401C6084608C17
:1033E000E18C80B2884201D300206084608C218C03
:1033F00080B2884218D3A08C002815D0608CA18C94
:1034000080B2884210D3A069FFF7FCFCA069FFF7E7
:10341000EAFC09E0A069FFF7F5FC05E0A069FFF709
:10342000F1FC200000F012FA00212000FFF7C1FD9E
:10343000002010BD10B504006069002809D0E07FAD
:10344000002806D10D21A069FFF7EBFC0120E077F1
:1034500014E06069002809D0E07F012806D10A2124
:10346000A069FFF7DEFC0220E07707E00020E077AC
:10347000A069FFF7C2FC200000F0E8F9002010BDB1
:1034800038B504000D00A06B00281ED0208CE18C04
:1034900080B2884201D300202084A06B218C455447
:1034A000208C401C2084A069FFF7B6FC00280AD1BC
:1034B00001212000FFF768FD01212000FFF74DFDED
:1034C000A069FFF795FC002000E0012032BD70B537
:1034D00004000D000126A06B00283AD0607F01286F
:1034E00002D0607F022801D16D1C08E0607F0328B4
:1034F00001D1AD1C03E0607F042800D12D1D60794F
:103500002179401A002800D06D1CE08CFB280EDBCE
:10351000290089B2090AC9B22000FFF7B1FF2900CA
:10352000C9B22000FFF7ACFF0600ED1C06E0290041
:10353000C9B22000FFF7A4FF0600AD1C6079217915
:10354000401A002804D0E1782000FFF799FF060018
:10355000A5843000C0B270BD38B50400607F00287B
:1035600056D000F011FD002852D10025607F0128BF
:103570000AD1218CA06B00F026FD05002900C9B2FC
:103580002000FFF77DFF41E0607F02280BD1228CF5
:10359000A16B072000F00CFD05002900C9B2200036
:1035A000FFF76EFF32E0607F032810D1218CA06B03
:1035B00000F0F6FC05002900090AC9B22000FFF757
:1035C0005FFF2900C9B22000FFF75AFF1EE0607FAD
:1035D00004281BD1218CA06B00F0DAFC0500290027
:1035E000090EC9B22000FFF74BFF2900090CC9B230
:1035F0002000FFF745FF2900090AC9B22000FFF7A4
:103600003FFF2900C9B22000FFF73AFF002000E089
:10361000012032BDF8B5040000250026B4F8407042
:1036200094F83D00002800F0E08000F0ADFC002898
:1036300040F0DB8094F83D00012823D17F1EB4F8D0
:103640004600FA2809DAA06D4770A06D390089B2EA
:10365000084480780600BF1C0DE0380080B2000AE4
:10366000A16D4870A06D8770A06D390089B20844C3
:10367000C0780600FF1C390089B2A06D00F0A3FCE1
:103680000500AEE094F83D00022824D17F1EB4F876
:103690004600FA2809DAA06D4770A06D390089B29A
:1036A000084480780600BF1C0DE0380080B2000A94
:1036B000A16D4870A06D8770A06D390089B2084473
:1036C000C0780600FF1C3A0092B2A16D072000F0FE
:1036D0006FFC050085E094F83D00032831D1BF1E42
:1036E000B4F84600FA2810DAA06D4770A06D3900D2
:1036F00089B208444078A16D3A0092B211448978A9
:1037000011EB00210E00BF1C14E0380080B2000A4B
:10371000A16D4870A06D8770A06D390089B2084412
:103720008078A16D3A0092B21144C97811EB002162
:103730000E00FF1C390089B2A06D00F031FC0500BD
:103740004FE094F83D0004284BD13F1FB4F84600E9
:10375000FA281EDAA06D4770A06D390089B20844BE
:1037600010F8010CA16D3A0092B2895C11EB0021B6
:10377000A06D3A0092B21044407810EB0120A16D88
:103780003A0092B21144897811EB00210E00BF1C5F
:1037900021E0380080B2000AA16D4870A06D8770EA
:1037A000A06D390089B2405CA16D3A0092B211441B
:1037B000497811EB0021A06D3A0092B21044807854
:1037C00010EB0120A16D3A0092B21144C97811EBBF
:1037D00000210E00FF1C390089B2A06D00F0D8FB5B
:1037E0000500B54201D0012000E00020F2BD02003A
:1037F0000800C0B2002803D0002082F8480002E090
:10380000002082F828000020704790F83E007047A2
:1038100010B5040000212000FFF7B6FB002084F85B
:103820003F000020A4F840000020A4F8420000203F
:10383000A4F84400002084F83E000020E06400204A
:103840002065002084F84800002010BD10B5040059
:103850000120A07700202084002060840020A08424
:103860000020E06200202063002084F8280000206F
:10387000E07700212000FFF787FB00212000FFF701
:103880006CFB002010BD020050791179401A00280D
:1038900007D0906D1179405CD178884201D0012029
:1038A00000E0002070470CB42DE9F84F04000D0033
:1038B000A069FFF7B1FA002807D0A069FFF785FAE1
:1038C000002802D0FFF7D6F9F7E7A069FFF79FFAC3
:1038D00000280DD0A069FFF773FA002805D0E07F1B
:1038E000002802D1FFF7C6F9F4E7A069FFF772FAE2
:1038F00001212000FFF748FB01212000FFF72DFBED
:103900005FF0000A5FF0000B0AAE8C4F33002A0014
:103910004FF48061380000F05FFB80465FF00009E3
:103920004846414680B289B2884208D2484680B2B1
:10393000395C2000FFF72BFD19F10109F0E70021A8
:103940002000FFF721FB00212000FFF706FBBDE868
:10395000F10F5DF80CFB00001800002038B50400E2
:103960000D00774884420ED12800C0B2002804D050
:103970004FF48040FFF7DEF903E04FF48040FFF79B
:10398000E5F9002048E06F4884420ED12800C0B21B
:10399000002804D05FF40030FFF7BAF903E05FF4C9
:1039A0000030FFF7C1F9002036E0674884420ED1AD
:1039B0002800C0B2002804D05FF48020FFF7A8F9E7
:1039C00003E05FF48020FFF7AFF9002024E05F48B8
:1039D00084420ED12800C0B2002804D05FF4002039
:1039E000FFF796F903E05FF40020FFF79DF9002050
:1039F00012E0574884420ED12800C0B2002804D0FB
:103A00005FF48010FFF784F903E05FF48010FFF7A4
:103A10008BF9002000E0012032BD000098A90008C9
:103A200070B40600039D049CF17032717371B5711E
:103A3000F471002070BC7047F0B58BB00400454DA8
:103A40000121280000F0C4F96846142100F0CEF9E5
:103A5000092001900320029000200390012004908F
:103A60003D4E00966946280000F02EFA3B48009033
:103A7000082001906946280000F026FA304F3800EF
:103A800000F02DFB01213800FFF768FF05A8182181
:103A900000F0ACF95FF4E1300590002006900020C2
:103AA0000790002008900C20099000200A9005A99A
:103AB000380000F058FB3800FFF779F9FFF7DEF81F
:103AC00000220221FFF704F901002520FFF7E8F8A2
:103AD0002520FFF7D9F83800FFF780F93800FFF705
:103AE00061F9E560A660A76102202070E06D002802
:103AF00004D0642060656420606303E0002060659A
:103B00000020606300206077552060705A20A0700C
:103B100000212000FFF738FA00212000FFF71DFAEE
:103B20000F492000FFF7BFFE00200BB0F0BD0000E2
:103B3000B8A90008E81D0020E91D0020BC160020DF
:103B4000003801400044004000480040004C004064
:103B50000050004000080140020002040400040478
:103B60000CAA0008010000207047010000207047E7
:103B700080B500F057FB01BD80B500F057FB02BDDA
:103B800080B500F057FB01BD80B500F057FB01BDCB
:103B900010B504002000C0B200F054FB10BD10B5F9
:103BA00004002000C0B200F054FB10BD10B50400AA
:103BB0002000C0B200F054FB10BD10B5040020007E
:103BC000C0B200F054FB10BD70B504000D0016002B
:103BD0003200D2B22900200000F0B9FB70BD10B550
:103BE0000400200000F0C7FD10BD38B504000D0032
:103BF0002900200000F03AFE32BD2DE9F34F85B0D8
:103C0000060017009846109CDDF84490129DDDF8E0
:103C10004CA000208DF81000CDF80CA02800C0B2F8
:103C20000290CDF80490200080B200904346DBB2B1
:103C30003A00BDF818103000FFF754F98346584693
:103C4000C0B2002808D100F09FF9002804D000205D
:103C500086F83D00002070775846C0B207B0BDE836
:103C6000F08F2DE9FE4306000F00904699460A9D0D
:103C70000B9C2000C0B201902800C0B200904B46BF
:103C8000DBB24246D2B23900C9B23000FFF7C8FEFB
:103C9000BDE8FE8310B504002000FFF7B9FD10BD9C
:103CA00010B504002000FFF7B0FD10BD38B50400CA
:103CB0000D002900C9B22000FFF7E4F932BD38B584
:103CC00004000D002900C9B22000FFF74DFB32BDF2
:103CD00010B504002000FFF7D6FD10BD10B504009C
:103CE0002000FFF769FB10BD10B504002000FFF7AE
:103CF000A1FB10BD38B504000D002900C9B2200099
:103D0000FFF7BEFB32BD38B504000D00290089B2B3
:103D10002000FFF7DCFB32BD10B504002000FFF7E8
:103D20001BFC10BD10B504002000FFF773FC10BD94
:103D300080B500F0D1FF01BD80B500F0A8FF01BD46
:103D400080B500F0C5FF02BD38B504000D002900A4
:103D5000C9B2200000F0C4FF31BD80B501F028FCDD
:103D600002BD10B50400200001F028FC10BD10B504
:103D70000400200001F03FFC10BD10B5040020003D
:103D800001F08CFC10BD0000704780B501F0B0FF61
:103D900001BD10B504002000C0B201F0B5FF10BD98
:103DA00080B501F0CDFF01BD80B501F0F5FF01BD8B
:103DB00080B502F02EF801BD80B502F073F802BDA7
:103DC00080B502F06BF901BD80B502F053FA01BD78
:103DD00038B504000D002900C9B2200002F09EFB96
:103DE00031BD80B502F0A3FB01BD0000002202F04E
:103DF000A3BB0000F0B510EB116491FAA1F5B5FA80
:103E000085F391FAA1F6B6FA86F7D4F800C05FF010
:103E10000F0EDBB29B001EFA03FE3CEA0E0CFFB253
:103E2000BB0012FA03F353EA0C0CC4F800C0F0BD57
:103E3000F0B510EB116491FAA1F5B5FA85F391FA9A
:103E4000A1F6B6FA86F7D4F800C05FF0030EDBB235
:103E50009B001EFA03FE3CEA0E0CFFB2BB0012FAF6
:103E600003F353EA0C0CC4F800C0F0BDF0B510EB3E
:103E7000116491FAA1F5B5FA85F391FAA1F6B6FAB3
:103E800086F7D4F800C05FF0040EDBB29B001EFA88
:103E900003FE3CEA0E0CFFB2BB0012FA03F353EA36
:103EA0000C0CC4F800C0F0BD30B4C3680C00240A88
:103EB00094FAA4F4B4FA84F533EA112312FA05F55E
:103EC0002B43C36030BC70472DE9F04104000D0066
:103ED0002F683F023F0C97FAA7F0B0FA80F85FFA1C
:103EE00088F8380030FA08F0002832D0380030FA6C
:103EF00008F0C0072AD5B8F1080F05D240F201102A
:103F000010FA08F0060007E05FF00111404608389B
:103F1000814051F080610E006A6831002000FFF797
:103F200069FF2A6931002000FFF7BEFF6868012899
:103F300002D06868092809D1AA6831002000FFF77B
:103F400077FFEA6831002000FFF790FF18F10108C1
:103F5000C7E70120BDE8F08110B50400200002F0A1
:103F600005FB10BD10B50400200002F00FFB10BDD2
:103F700080B502F047FB02BD80B502F062FB02BDD6
:103F800080B502F067FB01BD80B502F067FB02BDA2
:103F900038B504000D002900200002F063FB32BD9B
:103FA00038B504000D002900200002F063FB32BD8B
:103FB00070B504000D001600320029002000C0B2C8
:103FC00002F060FB70BD38B504000D002900200030
:103FD00002F063FB32BD000008B584B000230393F8
:103FE00000290EBF01930190491E0291009301A97F
:103FF00004AB07487844183002F058FB019909B126
:1040000000220A70002858BF039805B000BD00BF09
:1040100037E5FFFFC068400B10F0010070470269F0
:1040200032F440520A4302617047426932F44072EE
:104030000A4342617047F0B46423192404FB01F57C
:104040009600B5FBF6F56426B5FBF6F504FB01F624
:104050009700B6FBF7F604FB01F75FEA820CB7FBAB
:10406000FCF75FF0640CB7FBFCF703FB1766360147
:1040700032366427B6FBF7F616F0F00616EB051697
:1040800004FB01F59700B5FBF7F504FB01F497007D
:10409000B4FBF7F46427B4FBF7F403FB14531B01E0
:1040A00032336424B3FBF4F313F00F039E19B6B25A
:1040B0008660F0BC704753490A6802430A60704743
:1040C00050490A6882430A6070474F490A680243B0
:1040D0000A6070474C490A6882430A60704738B5E5
:1040E000040001254948844208D14FF48040FFF77D
:1040F000ECFF4FF48040FFF7EDFF31E0444884428D
:1041000008D15FF40030FFF7D6FF5FF40030FFF70F
:10411000D7FF25E03F48844208D15FF48020FFF7B5
:10412000CAFF5FF48020FFF7CBFF19E03A488442D2
:1041300008D15FF40020FFF7BEFF5FF40020FFF717
:10414000BFFF0DE03548844208D15FF48010FFF7CF
:10415000B2FF5FF48010FFF7B3FF01E0002005001D
:104160002800C0B232BDF8B584B005000E000027AB
:1041700000242800FFF74EFF00283DD1E9682848B9
:10418000014070680143F068014330690143E96010
:10419000B1682800FFF743FF71692800FFF745FF6A
:1041A000684603F04AFA1948854202D10398040090
:1041B00016E01748854202D10298040010E0154825
:1041C000854202D1029804000AE01348854202D1D8
:1041D0000298040004E01148854201D102980400CD
:1041E000002C09D03068002806D001200700326872
:1041F00021002800FFF71FFF3800C0B205B0F0BD56
:1042000000000000101002400C1002400038014075
:104210000044004000480040004C00400050004076
:10422000F3E9FFFF80B503F06DFB01BD80B503F03E
:104230009BFB02BD80B503F0A8FB01BD80B503F078
:10424000CEFB01BD10B504002000C0B203F0DEFBC0
:1042500010BD10B504002000C0B203F0E7FB10BD94
:1042600010B504002000C0B203F0F2FB10BD10B581
:1042700004002000C0B203F0FDFB10BD012101705D
:1042800001214170002181700021C1700021017164
:1042900000214171022181712321C1710D2101721F
:1042A000412141720D2181724121C17200210173AE
:1042B00000214173002181730021C1730021017429
:1042C00000214174002181740021C1740021017515
:1042D00000214175002181750021C1750021017601
:1042E00000214176002181760021C1760021C16143
:1042F00000210162DFF80416416281620021C1627F
:1043000000210163002141637047010000208863A0
:10431000DFF8EC05C863086444F24000486448F2E2
:1043200080008864002081F84C00002081F84D0056
:10433000002048653420A1F84E00002008650020C8
:104340007047010000207047010000207047F8B559
:1043500004000D00160000272000FFF78FFF002C3F
:1043600008D0DFF8A0050068844203D12000FFF7E1
:10437000CCFF11E0002C05D0002C03D12000FFF76A
:10438000E0FF09E0002C05D0002C03D12000FFF74E
:10439000DBFF01E0012014E03000C0B2002803D0B0
:1043A000012084F84C0008E0290014F1380003F0E3
:1043B0007BFB0700012084F84C00200000F002F88D
:1043C000C0B2F2BD70B504000025211D200000F030
:1043D0004EF8211D200000F04AF806003000C0B25F
:1043E000002804D1A11D200000F041F80600300093
:1043F000C0B270BD2DE9F84304000D0016005FF057
:1044000000090027012114F1380003F055FB804614
:104410004046C0B2002802D0022080461CE00020A6
:10442000070038003100C0B2C9B2884214D2380047
:10443000C0B2295C14F1380003F053FB14F13800CA
:1044400003F049FB80464046C0B2002802D0F81C69
:10445000804601E07F1CE4E714F1380003F035FBEF
:104460004046C0B2BDE8F28303000120704738B572
:1044700004000D0094F84C00002805D10222290008
:104480002000FFF7F1FF04E0022229002000FFF7DF
:10449000B1FF32BD0022C261704770B504000D004B
:1044A000A06A60620020E061DFF85C04854204D30A
:1044B000050041F24460E0610BE045F208208542CE
:1044C00003D205000320E06103E029002000FFF78C
:1044D000E1FFE562E06A4FF47A71B0FBF1F020632E
:1044E000E0694519DFF82404854206D30020A07056
:1044F0000020207000206070E8E0DFF8140485429E
:1045000007D30020A07002202070002060706D0092
:10451000DCE0DFF80004854208D30020A07003200F
:1045200020700020607003204543CFE0DFF8E803EF
:10453000854207D30020A070042020700020607006
:10454000AD00C3E0DFF8D403854208D30020A0709B
:10455000052020700020607006204543B6E0DFF89B
:10456000C003854207D30020A070062020700020E1
:104570006070ED00AAE0DFF8AC03854208D30020AC
:10458000A07007202070002060700C2045439DE043
:10459000DFF89403854207D30020A0700620207026
:1045A000012060702D0191E0DFF88003854208D37F
:1045B0000020A07007202070012060701820454363
:1045C00084E0DFF86C03854207D30020A07006204A
:1045D0002070022060706D0178E0DFF8580385429A
:1045E00008D30020A07007202070022060703020C7
:1045F00045436BE0DFF84003854207D30020A070FD
:104600000620207003206070AD015FE0DFF82C030E
:10461000854208D30020A07007202070032060701E
:104620006020454352E0DFF81803854207D300209D
:10463000A0700420207005206070ED0146E0DFF8D6
:104640000403854208D30020A070052020700520B7
:104650006070C020454339E0DFF8EC0285420AD3A0
:104660000120A0700620207004206070ED01606AB7
:10467000400860622AE04BF21D7085420BD3012096
:10468000A0700720207004206070C0204543606A3D
:10469000400860621AE048F6561085420AD30120AD
:1046A000A07006202070052060702D02606A40080E
:1046B00060620BE00120A070072020700520607070
:1046C0004FF4C0704543606A40086062AD00280046
:1046D00003F010FA0600606A03F00CFA01003000E3
:1046E00003F016FA6063606B03F090FAE070E07814
:1046F00003F000FA0100606B03F09EFADFF84C1241
:1047000003F0DAFA03F044FB20620D2020722078D7
:1047100040016072607A617850EA81006072607A6C
:1047200050F00100607248202073A078002801D169
:10473000002000E010206073617BE078014361732A
:104740004A202074206A800C10F03F006074206AB8
:10475000400C10F0010050F04C002075206A400A17
:104760006075206A000A10F0010050F04E002076BB
:10477000206A607670BD2DE9F84F8EB004002000ED
:10478000FFF720FE0028FAD102200D9000200C90A7
:1047900014F10A050C9A0D992800FDF7A1FE0220DC
:1047A0000B9000200A9014F10E050A9A0B9928002C
:1047B000FDF796FE022009900020089014F11205E2
:1047C000089A09992800FDF78BFE02200790002027
:1047D000069014F11605069A07992800FDF780FE49
:1047E000022005900020049014F11A05049A0599FE
:1047F0002800FDF775FE022003900020029014F1BE
:104800000805029A03992800FDF76AFE022001902C
:104810000020009014F10C05009A01992800FDF782
:104820005FFE0225002614F110073200290038002F
:10483000FDF756FE02275FF0000814F11409424606
:1048400039004846FDF74CFE5FF002095FF0000AB0
:1048500014F1180B524649465846FDF741FEA06A2E
:1048600060620020E0620FB0BDE8F08FF8B5040090
:104870000D000026E06A854203D029002000FFF7E2
:104880000CFE14F108012000FFF7F1FD07003800CD
:10489000C0B2002801D001202EE014F10C0120004C
:1048A000FFF7E5FD06003000C0B2002801D002206D
:1048B00022E014F110012000FFF7D9FD07003800B5
:1048C000C0B2002801D0032016E014F1140120002A
:1048D000FFF7CDFD06003000C0B2002801D0042053
:1048E0000AE014F118012000FFF7C1FD0100C9B270
:1048F000002901D005210800C0B2F2BD901CB7000C
:10490000000C01401C00002080D54302D9AA1201EE
:104910006D558900498E5B00B7AA440025C72D005C
:104920005C55220093E31600AE2A1100CA710B00F9
:1049300057950800E5B80500AC4A040073DC020096
:10494000562502003A6E0100AB120100FFFF7F4BBB
:1049500081B0DFF850150A6802430A600968014017
:104960000091009901B07047DFF838150A6882435A
:104970000A60704781B0DFF830150A6802430A60A8
:10498000096801400091009901B07047DFF81815DF
:104990000A6882430A607047DFF81005016831F445
:1049A00040610160016851F4006101607047016875
:1049B00051F0010101607047016849084900016038
:1049C0007047016851F08001016070474162704793
:1049D000406A7047026A8A4302627047F0B4012954
:1049E00001D1002416E0042901D1012412E010298C
:1049F00001D102240EE0402901D103240AE0B1F5DF
:104A0000807F01D1042405E0B1F5806F01D1052438
:104A100000E0062410F11805DFF894342600F6B201
:104A20009B5D5D19DFF88C642F685FF0030C230039
:104A3000DBB2F35C1CFA03FC37EA0C0794465FEA2E
:104A40001C4C2300DBB2F35C1CFA03FC5CEA070796
:104A50002F60F0BC7047F0B4012901D1002416E0AA
:104A6000042901D1012412E0102901D102240EE011
:104A7000402901D103240AE0B1F5807F01D104244B
:104A800005E0B1F5806F01D1052400E0062410F1A6
:104A90001805DFF81C342600F6B29B5D5D19DFF8BF
:104AA00014642F685FF0F00C2300DBB2F35C1CFA97
:104AB00003FC37EA0C0794465FEA1C4C2300DBB288
:104AC000F35C1CFA03FC5CEA07072F60F0BC70473C
:104AD000F0B4012901D1002416E0042901D10124F8
:104AE00012E0102901D102240EE0402901D1032453
:104AF0000AE0B1F5807F01D1042405E0B1F5806FB3
:104B000001D1052400E00624DFF8AC53066A0A2729
:104B10002300DBB2EB5C9F40BE432300DBB2EB5CC7
:104B200012FA03F31E430662F0BC70478368DFF895
:104B30008C2313400B4383607047426832F070024D
:104B40000A4342607047826832F070020A43826012
:104B50007047816831F0800181607047C16831F031
:104B60004001C1607047C16831F48041C160704745
:104B700038B58AB005A81421FFF738F96846142122
:104B8000FFF734F9DFF838430121200000F0A8F8DE
:104B9000DFF830530121280003F030F943F23000F0
:104BA0000090FFF7F9FE0820019069462800FFF702
:104BB0008BF90020ADF81400002006905FF0FF3064
:104BC00007900020089005A9200003F08DFA20002E
:104BD000FFF7F7FE60212000FFF7B5FF5FF480329A
:104BE00010212000FFF7FAFE07212000FFF79EFFAB
:104BF00010212000FFF7EEFE002210212000FFF719
:104C00002AFF002210212000FFF762FF2000FFF79B
:104C1000A5FF2000FFF7A7FF00212000FFF78DFF71
:104C20002000FFF796FF0BB030BD38B5A64C2068CA
:104C3000007800280CD100202168486000202168FD
:104C400048800120216808709D48FFF7B0FE1DE0F4
:104C500020680078012807D100219948FFF7B6FEA7
:104C600002202168087011E02068007802280CD129
:104C7000934D2800FFF7A0FE2800FFF7A9FE21684A
:104C8000486003202168087000E0FFE731BD10B5DF
:104C90008D4C8E4800680069216888608C4803F05C
:104CA0004EFB206800780328FBD12068806803F061
:104CB00046FB002021688860002021680870206879
:104CC00040684FF47A71B0FBF1F02168488010BD64
:104CD0007D4800684068704780B5FFF749FF01BD17
:104CE00038B504000D007B4884420BD12800C0B2C7
:104CF000002803D00120FFF72BFE02E00120FFF780
:104D000027FECCE0B4F1804F0BD12800C0B20028C0
:104D100003D00120FFF71CFE02E00120FFF724FE74
:104D2000BDE0674884420BD12800C0B2002803D000
:104D30000220FFF70DFE02E00220FFF709FEAEE0C1
:104D4000654884420BD12800C0B2002803D004205B
:104D5000FFF7FEFD02E00420FFF7FAFD9FE05F4849
:104D600084420BD12800C0B2002803D00820FFF7EE
:104D7000EFFD02E00820FFF7EBFD90E05848844289
:104D80000BD12800C0B2002803D01020FFF7E0FDAF
:104D900002E01020FFF7DCFD81E0524884420BD195
:104DA0002800C0B2002803D02020FFF7D1FD02E088
:104DB0002020FFF7CDFD72E04B4884420DD1280042
:104DC000C0B2002804D04FF40050FFF7D3FD03E039
:104DD0004FF40050FFF7DAFD61E0444884420DD102
:104DE0002800C0B2002804D05FF40020FFF7C2FD05
:104DF00003E05FF40020FFF7C9FD50E03C48844227
:104E00000DD12800C0B2002804D05FF48010FFF755
:104E1000B1FD03E05FF48010FFF7B8FD3FE03548D7
:104E200084420DD12800C0B2002804D05FF40010E5
:104E3000FFF7A0FD03E05FF40010FFF7A7FD2EE0F1
:104E40002D4884420BD12800C0B2002803D0402056
:104E5000FFF77EFD02E04020FFF786FD1FE02748B8
:104E600084420BD12800C0B2002803D08020FFF775
:104E70006FFD02E08020FFF777FD10E020488442BC
:104E80000DD12800C0B2002804D04FF48070FFF785
:104E90005FFD03E04FF48070FFF766FDFFE731BD73
:104EA000000000001C1002401810024004000140E5
:104EB000A0AA0008A8AA0008B0AA0008F8BFFFFF2F
:104EC00000040040000C01401400002010000020ED
:104ED0002B4C0008002C014000080040000C004052
:104EE000001000400014004000340140004C01401C
:104EF000005001400054014000180040001C0040D8
:104F000000200040DFF830070068C0F3022070473F
:104F1000012210F01F018A40DFF8201703005BB266
:104F20005B0941F82320704710B4020052B2002AF6
:104F30000AD50A01DFF80837040064B214F00F0440
:104F4000234403F8042C05E00A01DFF8F8360400D6
:104F500064B21A5510BC704770B4030013F0070414
:104F6000D4F10700052801D3042001E0D4F10700A3
:104F7000251D072D01D2002500E0E51E012616FAA9
:104F800000F0401E0140A94016FA05F56D1E2A40AA
:104F90001143080070BC7047F0B45FF44005B5FAE7
:104FA00085F310F12C0411F44076DE4014EB8604F6
:104FB00026681F2711F01F039F40BE4312F01F07F2
:104FC00011F01F039F403E432660F0BC70472DE95F
:104FD000F0434023B3FA83F510F10C0411F000768E
:104FE000EE4014EB86044FF478652E00B6FA86F78F
:104FF000B5FA85FCD4F800E05FF0070811F0F87905
:1050000039FA07F918FA09F83EEA080E11F0F877AC
:1050100037FA0CF712FA07F757EA0E0EC4F800E059
:10502000BDE8F083816851F00101816070478168BB
:105030004908490081607047816851F0040181602E
:1050400070478068800810F001007047816851F453
:10505000A0018160704781B0DFF8EC150A68024357
:105060000A60096801400091009901B0704781B061
:10507000DFF8D8150A6802430A6009680140009108
:10508000009901B07047DFF8C4150A6882430A60CE
:105090007047DFF8BC2502EB010313F8013C1B1835
:1050A0000A4412F8012C1218126852F001021A6018
:1050B0007047DFF89C2502EB010313F8013C1B1835
:1050C0000A4412F8012C12181268520852001A6091
:1050D000704710B4DFF8783503EB010414F8014C85
:1050E00024180B4413F8013C1B185B681B0C1B04B1
:1050F0001343636010BC70470121416070475FF447
:105100008031416070470221416070475FF4003197
:10511000416070470421416070475FF48021416025
:105120007047DFF82C2502EB010313F8013C1B1834
:105130000A4412F8012C1218126852F002021A6086
:105140007047DFF810150A6832F4404202430A60E3
:10515000704718B585B0DFF8004501212000FEF743
:1051600037FE68461421FEF741FE40F60F700090AE
:10517000002001900020049069462000FEF7A4FE64
:10518000002006B010BD38B504000D00002C01D180
:10519000012033E0DFF8C40484420CD12800C0B2FF
:1051A000002804D04FF40070FFF761FF03E04FF4D4
:1051B0000070FFF768FFDFF8A80484420CD12800D4
:1051C000C0B2002804D04FF48060FFF750FF03E026
:1051D0004FF48060FFF757FFDFF8880484420CD15A
:1051E0002800C0B2002804D04FF40040FFF73FFF72
:1051F00003E04FF40040FFF746FF002032BD38B512
:1052000088B0DFF86404D0E90023CDE9012303A8C6
:105210001421FEF7EBFDDFF8540400680090DFF87E
:105220003C44200003F0F2F801212000FFF7ABFF1F
:10523000002001904FF48075029501A9200003F031
:1052400039F95FF4602003905FF48010049000202F
:10525000059002200690079503A9200003F045F968
:105260004FF40040FFF76DFF0020009069462000DA
:1052700003F0A3F80A224FF400712000FFF78CFE20
:1052800001220A212000FFF7A2FEDFF8E4532A00E2
:1052900040F205212000FFF77FFE012229002000B7
:1052A000FFF795FE2000FFF7BDFE200000F003F899
:1052B000002009B030BD10B50400002C10D0A0684B
:1052C00050F00800A060A0680007FCD42000FFF7A1
:1052D000B3FE2000FFF7B5FE0028FAD1002000E061
:1052E000012010BD10B58AB0DFF8884301212000ED
:1052F00003F086F90120FFF7AEFE68462821FEF78D
:1053000075FD2420089000200290DB480068801D75
:1053100001904FF48060079080200590002003905A
:10532000D64800904FF480700690002004904FF40F
:10533000005009906A460121200003F003FA012180
:105340002000FFF7A6FEFFF7DDFD00220121FFF799
:1053500003FE01000B20FFF7E7FD0B20FFF7D8FD50
:1053600001212000FFF7DDFE00200AB010BD10B5BE
:10537000C04C242201212000FFF7ABFE01212000B8
:10538000FFF787FEB54C2000FFF74CFE2000FFF72B
:1053900092FF00220021200000F0E0F8002010BD64
:1053A00010B5B44C01212000FFF783FE2000FFF769
:1053B000A3FE2000FFF7AEFE2000FFF7A4FEA748E3
:1053C000FFF735FE002010BD38B588B0AC48D0E9F5
:1053D0000023CDE9012303A81421FEF707FDA94806
:1053E000006800909F4C200003F010F8012120007D
:1053F000FFF7C9FE002001904FF48075029501A9C6
:10540000200003F057F85FF4602003905FF48010F1
:1054100004900020059002200690079503A9200023
:1054200003F063F84FF40040FFF78BFE002000907C
:105430006946200002F0C1FF934D2A004FF400712D
:105440002000FFF7A9FD032229002000FFF7BFFD80
:105450008E4D2A0040F205212000FFF79DFD03221A
:1054600029002000FFF7B3FD2000FFF7DBFD20003F
:10547000FFF721FF002009B030BD10B58AB0844C81
:105480000521200003F0BCF80220FFF7E4FD684688
:105490002821FEF7ABFC24200890002002907D48D4
:1054A0000068801D01904FF4806007908020059077
:1054B00000200390784800904FF480700690002000
:1054C00004904FF4005009906A460521200003F033
:1054D00039F905212000FFF7DCFDFFF713FD00225D
:1054E0000121FFF739FD01003B20FFF71DFD3B20A7
:1054F000FFF70EFD05212000FFF713FE00200AB084
:1055000010BD10B5624C242205212000FFF7E1FDFB
:1055100005212000FFF7BDFD524C2000FFF782FD62
:105520002000FFF7C8FE22000021002000F016F83E
:10553000002010BD10B5564C05212000FFF7B9FD25
:105540002000FFF7DCFD2000FFF7E7FD2000FFF75C
:10555000DDFD4448FFF76BFD002010BD70B506006F
:105560000D001400002E02D03000FFF76FFD002D5B
:1055700002D02800FFF76AFD002C02D02000FFF7C0
:1055800065FD002070BD80B5FFF7ACFEFFF737FE6C
:10559000002002BD80B5FFF770FFFFF715FF002068
:1055A00002BD80B5FFF7EFFFFFF7F4FF002002BD5B
:1055B00080B5FFF7CEFDFFF7F4FF02BD10B5040084
:1055C0002648844206D100202B4909680870FFF75D
:1055D000CEFE0FE02248844201D100200AE021489B
:1055E000844206D100202B4909680870FFF789FF23
:1055F00000E0002010BD10B504001848844208D116
:105600001D4801680978491C00680170FFF7C8FE51
:1056100011E01348844201D100200CE0114884427B
:1056200008D11C4801680978491C00680170FFF71F
:1056300081FF00E0002010BD0CED00E000E100E083
:1056400018ED00E000E400E01410024018100240E1
:1056500078AA000804100240001001400024014014
:1056600000280140003C014068AA0008C0AA0008C8
:105670000B00300000000240000000204C240140DC
:1056800070AA0008C4AA00080C0060000D00900079
:1056900000040240040000204C3C0140F8B592B0E8
:1056A0000400002609A82421FEF7A0FB6846242157
:1056B000FEF79CFBA71D00252800C0B212280FDAB8
:1056C000388809A92A00D2B221F81200B81C018832
:1056D0006A462B00DBB222F81310871C6D1CEBE727
:1056E000122109A803F054F81221684603F050F87B
:1056F0000122112109A803F089F8608001221121FB
:10570000684603F083F8A080002013B0F0BD0000CD
:10571000DFF8D40A0068C0F302207047012210F0BD
:105720001F018A40DFF8C41A03005BB25B0941F82D
:105730002320704710B4020052B2002A0AD50A0191
:10574000DFF8AC3A040064B214F00F04234403F809
:10575000042C05E00A01DFF89C3A040064B21A55F3
:1057600010BC704770B4030013F00704D4F10700B5
:10577000052801D3042001E0D4F10700251D072DE1
:1057800001D2002500E0E51E012616FA00F0401EB9
:105790000140A94016FA05F56D1E2A401143080084
:1057A00070BC7047806810EA112080B2C1F30F21ED
:1057B000884201D1012000E00020C0B27047C1F34F
:1057C0000F2202617047C1F30F22426170470168E6
:1057D00051F001010160704701684908490001600A
:1057E0007047016831F08001016070474162704785
:1057F000406A7047F0B4012901D1002416E0042961
:1058000001D1012412E0102901D102240EE0402927
:1058100001D103240AE0B1F5807F01D1042405E021
:10582000B1F5806F01D1052400E00624DFF8C859E6
:10583000066A0A272300DBB2EB5C9F40BE432300CD
:10584000DBB2EB5C12FA03F31E430662F0BC704756
:1058500030B4012901D1002316E0042901D101232C
:1058600012E0102901D102230EE0402901D10323C7
:105870000AE0B1F5807F01D1042305E0B1F5806F26
:1058800001D1052300E00623DFF86C49006A0A25F0
:105890001A00D2B2A25C95402840DBB2E25CD04054
:1058A00030BC7047406B7047806B7047C06B70476F
:1058B000006C70478368DFF8442913400B43836012
:1058C0007047426832F070020A4342607047816854
:1058D00031F08001816070477FF001010161704704
:1058E000006910F0010070477FF00201016170470C
:1058F0000069400810F0010070477FF00401016169
:1059000070470069800810F0010070477FF00801BF
:10591000016170470069C00810F0010070477FF016
:105920001001016170470069000910F00100704723
:10593000C16851F00101C1607047C16851F00201B6
:10594000C1607047C16851F00401C1607047C1680F
:1059500051F00801C1607047C16851F01001C16089
:10596000704730B585B0DFF8984801212000FEF778
:105970002FFA01212000FEF72BFA01212000FEF76B
:1059800027FA01212000FEF723FA68461421FEF7CA
:105990002DFA0120019001200290002003900120A7
:1059A0000490DFF86058009569462000FEF78CFAF5
:1059B00029002000FFF707FFDFF84C5800956946E3
:1059C0002000FEF781FA29002000FFF7FCFEDFF837
:1059D0003C58009569462000FEF776FA2900200021
:1059E000FFF7F1FEDFF8F05A009569462000FEF758
:1059F0006BFA29002000FFF7E6FE05B030BDF0B5D8
:105A000085B0DFF80C4801212000FEF7E1F9DFF84E
:105A1000F05701212800FEF7DBF9DFF8F8670121D4
:105A20003000FEF7D5F901213000FEF7D1F96846C4
:105A30001421FEF7DBF901200190012002900420DF
:105A4000039001200490DFF8D0770097694620008A
:105A5000FEF73AFA39002000FFF7B1FEDFF87C4A82
:105A6000009469462800FEF72FFA21002800FFF76E
:105A7000A6FE40F20114009469463000FEF724FAB5
:105A800021003000FFF79BFE009769463000FEF7CB
:105A90001BFA39003000FFF792FE05B0F0BD30B5BB
:105AA00085B0DFF83C4A01212000FEF791F9012181
:105AB0002000FEF78DF901212000FEF789F9012170
:105AC0002000FEF785F968461421FEF78FF90820BB
:105AD000019003200290002003900020049040F2E7
