:020000040800F2
:10000000F02D0020E9A5000833A0000843A0000857
:1000100045A0000847A0000849A000080000000013
:100020000000000000000000000000004BA00008DD
:100030004DA00008000000004FA0000851A00008DB
:1000400059A0000865A6000869A600086DA600086A
:1000500071A600083BA0000875A6000879A6000854
:100060007DA6000881A6000885A60008DBA0000880
:1000700089A600088DA6000891A6000895A600088C
:1000800099A600089DA60008A1A60008A5A600083C
:10009000A9A60008ADA60008B1A60008B5A60008EC
:1000A000B9A60008BDA60008C1A60008C5A600089C
:1000B00041A10008C9A60008CDA60008D1A60008E5
:1000C000D5A60008D9A60008DDA60008E1A600080C
:1000D000E5A6000863A00008E9A60008EDA6000850
:1000E000F1A60008F5A60008F9A60008FDA600087C
:1000F00001A7000805A7000809A700080DA7000828
:1001000011A7000815A7000819A700081DA70008D7
:1001100021A7000825A7000829A700082DA7000887
:1001200031A7000835A7000839A70008FDA000087E
:10013000C1F30F2202617047C1F30F224261704781
:1001400010B50400200001F067FE042114F1D40072
:1001500001F079FE052114F1F40001F074FE10BDE8
:1001600038B504000D002900200001F05BFE32BD0F
:10017000F8B504000D0016003100200001F052FE19
:1001800007003900280001F07CFEF2BD2DE9F041A6
:1001900004000D0000260027A178200001F010FFC8
:1001A000A06DA179405C012812D0C0F071810328B4
:1001B00074D03ED3052800F0B180C0F089800728B4
:1001C00000F0F880C0F0D080082800F019815FE1CD
:1001D0000321200001F0FDFEA06D6179415C20004B
:1001E00001F0EEFEA06DE179405CA16DE279114471
:1001F000497811EB0021A06DE2791044807810EB72
:100200000120A16DE2791144C97811EB00210F00A2
:100210003900280001F035FE06003100C9B2200087
:1002200001F0CEFEA06DA179415C200001F0C8FE76
:1002300030E101F0F7FE01F0F9FE4FF47A71484326
:1002400007000721200001F0C4FEA06D6179415C28
:10025000200001F0B5FE3100C9B2200001F0B0FE6F
:10026000A06DA179415C200001F0AAFE3900090EC1
:10027000C9B2200001F0A4FE3900090CC9B2200067
:1002800001F09EFE3900090AC9B2200001F098FE73
:100290003900C9B2200001F093FEFBE080480068FD
:1002A00001F0E9FD0321200001F093FEA06D6179CA
:1002B000415C200001F084FE3100C9B2200001F051
:1002C0007FFEA06DA179415C200001F079FEE1E0A4
:1002D000A06DE179405C002805D042F22001714810
:1002E000FFF72AFF04E042F220016E48FFF720FFEB
:1002F0000321200001F06DFEA06D6179415C2000BA
:1003000001F05EFE3100C9B2200001F059FEA06D7F
:10031000A179415C200001F053FEBBE0A06DE179C2
:10032000405C002805D041F210015E48FFF704FF51
:1003300004E041F210015B48FFF7FAFE03212000C0
:1003400001F047FEA06D6179415C200001F038FEAC
:100350003100C9B2200001F033FEA06DA179415CEB
:10036000200001F02DFE95E0A06DE179405C0028B1
:1003700005D048F280014B48FFF7DEFE04E048F26A
:1003800080014848FFF7D4FE0321200001F021FE40
:10039000A06D6179415C200001F012FE3100C9B20C
:1003A000200001F00DFEA06DA179415C200001F05C
:1003B00007FE6FE0A06DE179405C002805D044F2B3
:1003C00040013848FFF7B8FE04E044F240013548E8
:1003D000FFF7AEFE0321200001F0FBFDA06D617967
:1003E000415C200001F0ECFD3100C9B2200001F0B9
:1003F000E7FDA06DA179415C200001F0E1FD49E03D
:10040000A06DE179405C002816D0DFF8988042F2B8
:1004100020014046FFF790FE41F210014046FFF7F1
:100420008BFE48F280014046FFF786FE44F2400111
:100430004046FFF781FE15E0DFF8688042F22001B8
:100440004046FFF775FE41F210014046FFF770FE8F
:1004500048F280014046FFF76BFE44F240014046FF
:10046000FFF766FE0321200001F0B3FDA06D617966
:10047000415C200001F0A4FD3100C9B2200001F070
:100480009FFDA06DA179415C200001F099FD01E084
:10049000012006003000C0B2BDE8F081000000007D
:1004A0001C000020000801402DE9F84F04000D0059
:1004B000160000275FF00008A178200001F080FD01
:1004C000A06DA179405C012821D0C0F002830328EF
:1004D00077D049D3052800F0CE80C0F09F80072850
:1004E00000F02781C0F0F680092800F08081C0F07C
:1004F0004F810B2800F06D82C0F0F1810D2800F0D3
:10050000A882C0F086820E2800F0C382E1E2A06DCE
:10051000E179405CA16DE2791144497811EB002149
:10052000A06DE2791044807810EB0120A16DE27992
:100530001144C97811EB002188460321200001F005
:1005400048FDA06D6179415C200001F039FD00217A
:10055000200001F035FDA06DA179415C200001F083
:100560002FFDC5F8C480B6E2A06DE179405CA16DB5
:10057000E2791144497811EB0021A06DE279104431
:10058000807810EB0120A16DE2791144C97811EB5C
:10059000002188460321200001F01BFDA06D617938
:1005A000415C200001F00CFD0021200001F008FD5D
:1005B000A06DA179415C200001F002FDC5F8C88062
:1005C00089E2A06DE179405CA16DE279114449783E
:1005D00011EB0021A06DE2791044807810EB01202E
:1005E000A16DE2791144C97811EB002188460321FD
:1005F000200001F0EEFCA06D6179415C200001F06B
:10060000DFFC0021200001F0DBFCA06DA179415C42
:10061000200001F0D5FCC5F8CC805CE2A06DE1794A
:10062000405CA16DE2791144497811EB0021A06D85
:10063000E2791044807810EB0120A16DE279114439
:10064000C97811EB002188460321200001F0C1FC8C
:10065000A06D6179415C200001F0B2FC0021200016
:1006600001F0AEFCA06DA179415C200001F0A8FC76
:10067000C5F8D0802FE2D5F8C400804607212000BD
:1006800001F0A7FCA06D6179415C200001F098FCAD
:100690000021200001F094FCA06DA179415C2000B4
:1006A00001F08EFC4146090EC9B2200001F088FC21
:1006B0004146090CC9B2200001F082FC4146090AFA
:1006C000C9B2200001F07CFC4146C9B2200001F013
:1006D00077FC00E2D5F8C80080460721200001F031
:1006E00078FCA06D6179415C200001F069FC00217B
:1006F000200001F065FCA06DA179415C200001F0B3
:100700005FFC4146090EC9B2200001F059FC414688
:10071000090CC9B2200001F053FC4146090AC9B2D4
:10072000200001F04DFC4146C9B2200001F048FC18
:10073000D1E1D5F8CC0080460721200001F049FC2A
:10074000A06D6179415C200001F03AFC002120009D
:1007500001F036FCA06DA179415C200001F030FC75
:100760004146090EC9B2200001F02AFC4146090C9D
:10077000C9B2200001F024FC4146090AC9B2200098
:1007800001F01EFC4146C9B2200001F019FCA2E1B3
:10079000D5F8D00080460721200001F01AFCA06D9A
:1007A0006179415C200001F00BFC0021200001F088
:1007B00007FCA06DA179415C200001F001FC4146DD
:1007C000090EC9B2200001F0FBFB4146090CC9B279
:1007D000200001F0F5FB4146090AC9B2200001F0F2
:1007E000EFFB4146C9B2200001F0EAFB73E1A06DC6
:1007F000E179405CA16DE2791144497811EB002167
:10080000A06DE2791044807810EB0120A16DE279AF
:10081000114491F8039019EB0029C5F8C490A06D1C
:10082000E17908440079A16DE2791144497911EB2D
:100830000021A06DE2791044807910EB0120A16DB8
:10084000E279114491F807A01AEB002AC5F8C8A074
:10085000A06DE1790844007AA16DE2791144497AEA
:1008600011EB0021A06DE2791044807A10EB012099
:10087000A16DE279114491F80BB01BEB002BC5F888
:10088000CCB0A06DE1790844007BA16DE279114400
:10089000497B11EB0021A06DE2791044807B10EBC5
:1008A0000120A16DE2791144C97B11EB002188463A
:1008B000C5F8D0800321200001F08BFBA06D617989
:1008C000415C200001F07CFB0021200001F078FB5E
:1008D000A06DA179415C200001F072FBFBE0D5F82E
:1008E000C4901321200001F074FBA06D6179415C7C
:1008F000200001F065FB0021200001F061FBA06DEC
:10090000A179415C200001F05BFB4946090EC9B2A8
:10091000200001F055FB4946090CC9B2200001F046
:100920004FFB4946090AC9B2200001F049FB49467C
:10093000C9B2200001F044FBD5F8C8A05146090E09
:10094000C9B2200001F03CFB5146090CC9B220009D
:1009500001F036FB5146090AC9B2200001F030FB14
:100960005146C9B2200001F02BFBD5F8CCB0594656
:10097000090EC9B2200001F023FB5946090CC9B287
:10098000200001F01DFB5946090AC9B2200001F000
:1009900017FB5946C9B2200001F012FBD5F8D00070
:1009A00080464146090EC9B2200001F009FB4146CC
:1009B000090CC9B2200001F003FB4146090AC9B283
:1009C000200001F0FDFA4146C9B2200001F0F8FA1A
:1009D00081E0D5F8C4102800FFF7C2FB0100300009
:1009E00001F04FFA07000321200001F0F2FAA06D98
:1009F0006179415C200001F0E3FA3900C9B22000BE
:100A000001F0DEFAA06DA179415C200001F0D8FA76
:100A100061E0D5F8C8102800FFF7A2FB0100300004
:100A200001F02FFA07000321200001F0D2FAA06D97
:100A30006179415C200001F0C3FA3900C9B220009D
:100A400001F0BEFAA06DA179415C200001F0B8FA76
:100A500041E0D5F8CC102800FFF782FB0100300000
:100A600001F00FFA07000321200001F0B2FAA06D97
:100A70006179415C200001F0A3FA3900C9B220007D
:100A800001F09EFAA06DA179415C200001F098FA76
:100A900021E0D5F8D0102800FFF762FB01003000FC
:100AA00001F0EFF907000321200001F092FAA06D98
:100AB0006179415C200001F083FA3900C9B220005D
:100AC00001F07EFAA06DA179415C200001F078FA76
:100AD00001E0012007003800C0B2BDE8F28F38B550
:100AE00004000D002900C9B2200001F0A3F932BDB5
:100AF0002DE9F84306005FF00008002400250421DA
:100B0000B01D01F0C7FA00273800C0B204282FDA60
:100B10003800C0B206EB4000C088002140F6E4482F
:100B20005FF00009A8FB002308FB013309FB003339
:100B300042F210785FF00009A8FB020108FB0311E4
:100B400009FB0211B6F8BE20002301F007FBB6F83E
:100B5000C020002301F002FB04000D002000000B68
:100B6000401C3900C9B206EB4101C8817F1CCBE7AC
:100B70000020BDE8F283F8B504000D001600002740
:100B8000A06DA179405C01280BD0C0F0E281032860
:100B900000F0CC8055D3052800F0D281C0F041810F
:100BA000D7E1A178200001F00BFA0B21200001F021
:100BB00010FAA06D6179415C200001F001FA00217A
:100BC000200001F0FDF9A06DA179415C200001F049
:100BD000F7F9D5F8E410090EC9B2200001F0F0F9D8
:100BE000D5F8E410090CC9B2200001F0E9F9D5F8F4
:100BF000E410090AC9B2200001F0E2F9D5F8E410C6
:100C0000C9B2200001F0DCF9B5F8E81089B2090A90
:100C1000C9B2200001F0D4F9B5F8E810C9B220003B
:100C200001F0CEF9B5F8EA1089B2090AC9B220007C
:100C300001F0C6F9B5F8EA10C9B2200001F0C0F918
:100C400089E1A06DE179405CC5F8E400D5F8E400E5
:100C5000A16DE2791144497811EB0021C5F8E41047
:100C6000D5F8E400A16DE2791144897811EB0021F7
:100C7000C5F8E410D5F8E400A16DE2791144C97813
:100C800011EB0021C5F8E410A06DE179084400796A
:100C9000A5F8E800B5F8E800A16DE27911444979BA
:100CA00011EB0021A5F8E810A06DE17908448079E6
:100CB000A5F8EA00B5F8EA00A16DE2791144C97916
:100CC00011EB0021A5F8EA10B5F8EA00C92802DB0B
:100CD000C820A5F8EA00B5F8E800C5F8E000D5F8A6
:100CE000E010B5F8EA004143C5F8E010D5F8E0108F
:100CF000D5F8E4004118C5F8E010A178200001F013
:100D00005FF90321200001F064F9A06D6179415C75
:100D1000200001F055F90021200001F051F9A06DEB
:100D2000A179415C200001F04BF914E1A178200089
:100D300001F046F91121200001F04BF9A06D617915
:100D4000415C200001F03CF90021200001F038F95D
:100D5000A06DA179415C200001F032F9B5F8D61000
:100D600089B2090AC9B2200001F02AF9B5F8D610F3
:100D7000C9B2200001F024F9B5F8D81089B2090AE7
:100D8000C9B2200001F01CF9B5F8D810C9B2200092
:100D900001F016F9B5F8EC1089B2090AC9B22000C1
:100DA00001F00EF9B5F8EC10C9B2200001F008F915
:100DB000B5F8EE1089B2090AC9B2200001F000F9B5
:100DC000B5F8EE10C9B2200001F0FAF8B5F8F0104D
:100DD00089B2090AC9B2200001F0F2F8B5F8F010A2
:100DE000C9B2200001F0ECF8B5F8DA1089B2090AAE
:100DF000C9B2200001F0E4F8B5F8DA10C9B2200059
:100E000001F0DEF8B5F8DC1089B2090AC9B2200099
:100E100001F0D6F8B5F8DC10C9B2200001F0D0F826
:100E200099E0A06DE179405CA5F8D600B5F8D60050
:100E3000A16DE2791144497811EB0021A5F8D61093
:100E4000A06DE17908448078A5F8D800B5F8D800FD
:100E5000A16DE2791144C97811EB0021A5F8D810F1
:100E6000A06DE17908440079A5F8EC00B5F8EC0034
:100E7000A16DE2791144497911EB0021A5F8EC103C
:100E8000B5F8EC00152802DB1420A5F8EC00A06DE5
:100E9000E17908448079A5F8EE00B5F8EE00A16D7F
:100EA000E2791144C97911EB0021A5F8EE10A06D8B
:100EB000E1790844007AA5F8F000B5F8F000A16DDA
:100EC000E2791144497A11EB0021A5F8F010A06DE8
:100ED000E1790844807AA5F8DA00B5F8DA00A16D66
:100EE000E2791144C97A11EB0021A5F8DA10A06D5E
:100EF000E1790844007BA5F8DC00B5F8DC00A16DC1
:100F0000E2791144497B11EB0021A5F8DC10A178AE
:100F1000200001F055F80321200001F05AF8A06DDF
:100F20006179415C200001F04BF80021200001F0C4
:100F300047F8A06DA179415C200001F041F80AE07A
:100F4000330015F1D4022900200000F0FAF907005F
:100F500001E0012007003800C0B2F2BDF8B504007E
:100F60000D0016000027A06DA179405C01280BD070
:100F7000C0F0E281032800F0CC8055D3052800F0B2
:100F8000D281C0F04181D7E1A178200001F018F8AA
:100F90000B21200001F01DF8A06D6179415C20005B
:100FA00001F00EF80021200001F00AF8A06DA179EF
:100FB000415C200001F004F8D5F80411090EC9B213
:100FC000200000F0FDFFD5F80411090CC9B2200083
:100FD00000F0F6FFD5F80411090AC9B2200000F0AC
:100FE000EFFFD5F80411C9B2200000F0E9FFB5F811
:100FF000081189B2090AC9B2200000F0E1FFB5F872
:101000000811C9B2200000F0DBFFB5F80A1189B25F
:10101000090AC9B2200000F0D3FFB5F80A11C9B21D
:10102000200000F0CDFF89E1A06DE179405CC5F8BA
:101030000401D5F80401A16DE2791144497811EB5E
:101040000021C5F80411D5F80401A16DE27911441D
:10105000897811EB0021C5F80411D5F80401A16DC0
:10106000E2791144C97811EB0021C5F80411A06D93
:10107000E17908440079A5F80801B5F80801A16DE7
:10108000E2791144497911EB0021A5F80811A06D0E
:10109000E17908448079A5F80A01B5F80A01A16D43
:1010A000E2791144C97911EB0021A5F80A11B5F8CC
:1010B0000A01C92802DBC820A5F80A01B5F8080111
:1010C000C5F80001D5F80011B5F80A014143C5F88B
:1010D0000011D5F80011D5F804014118C5F8001128
:1010E000A178200000F06CFF0321200000F071FFC8
:1010F000A06D6179415C200000F062FF00212000BA
:1011000000F05EFFA06DA179415C200000F058FF67
:1011100014E1A178200000F053FF1121200000F01D
:1011200058FFA06D6179415C200000F049FF00216B
:10113000200000F045FFA06DA179415C200000F087
:101140003FFFB5F8F61089B2090AC9B2200000F0D5
:1011500037FFB5F8F610C9B2200000F031FFB5F83E
:10116000F81089B2090AC9B2200000F029FFB5F8C9
:10117000F810C9B2200000F023FFB5F80C1189B2B5
:10118000090AC9B2200000F01BFFB5F80C11C9B262
:10119000200000F015FFB5F80E1189B2090AC9B296
:1011A000200000F00DFFB5F80E11C9B2200000F0CC
:1011B00007FFB5F8101189B2090AC9B2200000F082
:1011C000FFFEB5F81011C9B2200000F0F9FEB5F825
:1011D000FA1089B2090AC9B2200000F0F1FEB5F890
:1011E000FA10C9B2200000F0EBFEB5F8FC1089B28D
:1011F000090AC9B2200000F0E3FEB5F8FC10C9B23C
:10120000200000F0DDFE99E0A06DE179405CA5F8DA
:10121000F600B5F8F600A16DE2791144497811EBBA
:101220000021A5F8F610A06DE17908448078A5F8B2
:10123000F800B5F8F800A16DE2791144C97811EB16
:101240000021A5F8F810A06DE17908440079A5F80F
:101250000C01B5F80C01A16DE2791144497911EB4B
:101260000021A5F80C11B5F80C01152802DB14209B
:10127000A5F80C01A06DE17908448079A5F80E016C
:10128000B5F80E01A16DE2791144C97911EB002185
:10129000A5F80E11A06DE1790844007AA5F81001B7
:1012A000B5F81001A16DE2791144497A11EB0021E2
:1012B000A5F81011A06DE1790844807AA5F8FA002C
:1012C000B5F8FA00A16DE2791144C97A11EB002159
:1012D000A5F8FA10A06DE1790844007BA5F8FC00A0
:1012E000B5F8FC00A16DE2791144497B11EB0021B6
:1012F000A5F8FC10A178200000F062FE0321200078
:1013000000F067FEA06D6179415C200000F058FE9E
:101310000021200000F054FEA06DA179415C200066
:1013200000F04EFE0AE0330015F1F402290020001F
:1013300000F007F8070001E0012007003800C0B204
:10134000F2BD2DE9F94F83B00C00150000265FF0C7
:1013500000090020ADF800000020ADF80200286967
:101360000190002002905FF0040A5FF0000B14F17E
:10137000B6075A465146380001F008F803988178BC
:10138000039800F01DFEE88AC0000C30010089B20D
:10139000039800F01EFE2978039800F011FE00214A
:1013A000039800F00DFE0521039800F009FE28695E
:1013B00080B24FF4FA6190FBF1F080B2C000001DE2
:1013C000ADF80200BDF80210C9B2039800F0F8FDB4
:1013D000002000273800E98A80B2884280F08A81A4
:1013E000DFF810AA42F220015046FEF7A1FE41F2BA
:1013F00010015046FEF79CFE48F280015046FEF771
:1014000097FE44F240015046FEF792FEDFF8E8B93D
:10141000DFF8E8195846FEF78FFEDFF8E419584662
:10142000FEF786FEDFF8DC195846FEF785FE40F62B
:101430000801DFF8D409FEF77BFE44F2400158466C
:10144000FEF77AFE48F280015846FEF771FEDFF89B
:10145000BC195846FEF770FEDFF8B4195846FEF77F
:1014600067FE0199200001F0E6F9029002990498C4
:1014700000F007FD0199A88A41180191DFF8801951
:101480005846FEF759FEDFF874195846FEF750FE2D
:1014900040F60801DFF87009FEF74EFEDFF8641928
:1014A0005846FEF745FE48F280015846FEF744FED6
:1014B00044F240015846FEF73BFEDFF85419584607
:1014C000FEF73AFEDFF844195846FEF731FE42F2C5
:1014D00020015046FEF730FE41F210015046FEF763
:1014E0002BFE48F280015046FEF726FE44F24001F2
:1014F0005046FEF721FE042001F015FB380080B2B3
:101500000A2802DA0A2001F00EFB2000FFF7F0FAA9
:10151000002006003000C0B2042880F2E9803800C4
:1015200080B2002816D13000C0B204EB4000C08960
:10153000A988884207D368883100C9B204EB410109
:10154000C989884206D201203100C9B204EB4101A9
:10155000A1F8B6003000C0B204EB4000B0F8B6000D
:1015600000281CD1380080B2E98A491E884216D171
:101570003000C0B204EB4000C0892989884207D3FB
:10158000E8883100C9B204EB4101C989884206D21A
:10159000781C3100C9B204EB4101A1F8B60030005B
:1015A000C0B204EB4000B0F8B600002840F08A80DA
:1015B0003800298B80B2884210D23100C9B228206D
:1015C000414304EB0100390089B200EB41003100D6
:1015D000C9B204EB4101C989C18273E028213000FE
:1015E000C0B2484320441630804600208146484619
:1015F000C0B22A8B521E904208DAB8F80200A8F84E
:10160000000018F1020819F10109F0E73000C0B23A
:1016100004EB4000C089A8F800000120ADF80000EC
:101620003000C0B248432044C08A3200D2B204EB3A
:101630004202D28990420DD23000C0B204EB400089
:10164000C2893000C0B248432044C08A121AADF8A3
:10165000002018E03000C0B204EB4000C089320026
:10166000D2B24A432244D28A90420CD23000C0B255
:1016700048432044C28A3000C0B204EB4000C08915
:10168000121AADF800203000C0B204EB4000C0894F
:101690003200D2B201FB02F12144C98A88420AD346
:1016A000BDF80000A98B884205D3688B4946C9B2B2
:1016B00089B2884206D2781C3100C9B204EB4101DC
:1016C000A1F8B6003000C0B204EB4000C18989B275
:1016D000090AC9B2039800F073FC3000C0B204EBF1
:1016E0004000C189C9B2039800F06AFC761C11E77A
:1016F0007F1C6FE65FF0000A5046C0B2042818DA7B
:101700005046C0B204EB4000B0F8B61089B2090AE6
:10171000C9B2039800F054FC5046C0B204EB40003C
:10172000B0F8B610C9B2039800F04AFC1AF1010AE9
:10173000E2E7DFF8C0B642F220015846FEF7F8FCB7
:1017400041F210015846FEF7F3FC48F2800158467A
:10175000FEF7EEFC44F2400631005846FEF7E8FC86
:10176000DFF894B6DFF894165846FEF7E5FCDFF88C
:1017700090165846FEF7DCFCDFF888165846FEF750
:10178000DBFC40F60801DFF88006FEF7D1FC3100F3
:101790005846FEF7D1FC48F280015846FEF7C8FCD7
:1017A000DFF868165846FEF7C7FCDFF8641658469F
:1017B000FEF7BEFC002005B0BDE8F08F70B5040058
:1017C0000D000026A06DA179405C012811D0C0F069
:1017D0005E81032851D029D3052800F0928073D36D
:1017E000072800F0DE80C0F0B480082800F01281E5
:1017F0004DE1A178200000F0E3FB0421200000F07F
:10180000E8FBA06D6179415C200000F0D9FB00216C
:10181000200000F0D5FBA06DA179415C200000F014
:10182000CFFB2978200000F0CBFB32E1A17820002B
:1018300000F0C6FB0521200000F0CBFBA06D617914
:10184000415C200000F0BCFB0021200000F0B8FB50
:10185000A06DA179415C200000F0B2FBB5F8BE108C
:1018600089B2090AC9B2200000F0AAFBB5F8BE107F
:10187000C9B2200000F0A4FB0BE1A178200000F029
:101880009FFB0521200000F0A4FBA06D6179415C65
:10189000200000F095FB0021200000F091FBA06DDE
:1018A000A179415C200000F08BFBB5F8C01089B233
:1018B000090AC9B2200000F083FBB5F8C010C9B214
:1018C000200000F07DFBE4E0A06DE179405C287031
:1018D000A178200000F074FB0321200000F079FBC8
:1018E000A06D6179415C200000F06AFB00212000BE
:1018F00000F066FBA06DA179415C200000F060FB68
:10190000C7E0A06DE179405CA5F8BE00B5F8BE0067
:10191000A16DE2791144497811EB0021A5F8BE10C0
:10192000A178200000F04CFB0321200000F051FBC7
:10193000A06D6179415C200000F042FB0021200095
:1019400000F03EFBA06DA179415C200000F038FB67
:101950009FE0A06DE179405CA5F8C000B5F8BE003D
:10196000A16DE2791144497811EB0021A5F8C0106E
:10197000A178200000F024FB0321200000F029FBC7
:10198000A06D6179415C200000F01AFB002120006D
:1019900000F016FBA06DA179415C200000F010FB67
:1019A00077E0A178200000F00BFB0821200000F078
:1019B00010FBA06D6179415C200000F001FB00216B
:1019C000200000F0FDFAA06DA179415C200000F03C
:1019D000F7FA2978200000F0F3FAB5F8BE1089B2C2
:1019E000090AC9B2200000F0EBFAB5F8BE10C9B27E
:1019F000200000F0E5FAB5F8C01089B2090AC9B2B2
:101A0000200000F0DDFAB5F8C010C9B2200000F0E7
:101A1000D7FA3EE0A06DE179405C2870A06DE179D5
:101A200008444078A5F8BE00B5F8BE00A16DE27983
:101A30001144897811EB0021A5F8BE10A06DE17961
:101A40000844C078A5F8C000B5F8C000A16DE279DF
:101A50001144097911EB0021A5F8C010A1782000EC
:101A600000F0AEFA0321200000F0B3FAA06D617916
:101A7000415C200000F0A4FA0021200000F0A0FA50
:101A8000A06DA179415C200000F09AFA01E00120EC
:101A900006003000C0B270BDF8B504000D0016009D
:101AA0000027A06D6179405C002808D002280DD085
:101AB00006D3042816D010D305281AD020E021E040
:101AC00031002000FEF762FB07001BE03200290016
:101AD0002000FEF7E9FC070014E029002000FFF7D2
:101AE0006DFE0FE0320029002000FFF744F80700E8
:101AF00008E0320029002000FFF730FA070001E07B
:101B0000012007003800C0B2F2BD70B504000D001E
:101B10001600200000F032FA01281ED1200000F04B
:101B200067FA00280FD1200000F068FA00280AD1D7
:101B3000320029002000FFF7AFFF002809D1200064
:101B400000F050FA05E02278521EB249200001F060
:101B500002FE200000F00CFA02E0200000F014FA6F
:101B600070BD80B500F078F902BDF8B5040001F051
:101B70005FFF0425002614F1B60732002900380063
:101B800000F004FC0020F2BD80B501F055FF0020FC
:101B900002BD38B50400002000252800C0B204288A
:101BA0003FDA2800C0B2002805D0022817D00CD395
:101BB00003281ED027E02800C0B204EB4000B0F894
:101BC000B600C0B201F03CFF29E02800C0B204EB2F
:101BD0004000B0F8B600C0B201F039FF1FE02800A5
:101BE000C0B204EB4000B0F8B600C0B201F036FF5E
:101BF00015E02800C0B204EB4000B0F8B600C0B257
:101C000001F033FF0BE0012001F01AFF012001F089
:101C10001EFF012001F022FF012001F026FF6D1CB4
:101C2000BBE7002032BD2DE9F84304000D0016008B
:101C30001F00FFF796FF80464046C0B2FF2801D143
:101C40000220D3E03900C9B22800FEF748FF28007F
:101C5000FFF78BFF4046C0B201280AD0C0F08D804C
:101C6000032840D022D3052877D059D306287CD02A
:101C700083E0D5F8C42031002800FEF779FADFF8B8
:101C8000749142F220014846FEF756FA41F21001E3
:101C90004846FEF751FA48F280014846FEF74CFAF2
:101CA00044F240014846FEF747FA68E0D5F8C820FC
:101CB00031002800FEF75CFADFF8389142F220018B
:101CC0004846FEF739FA41F210014846FEF734FA69
:101CD00048F280014846FEF72FFA44F24001484698
:101CE000FEF72AFA4BE0D5F8CC2031002800FEF7A9
:101CF0003FFADFF8009142F220014846FEF71CFA55
:101D000041F210014846FEF717FA48F280014846B2
:101D1000FEF712FA44F240014846FEF70DFA2EE0B3
:101D2000D5F8D02031002800FEF722FADFF8C49061
:101D300042F220014846FEF7FFF941F21001484601
:101D4000FEF7FAF948F280014846FEF7F5F944F249
:101D500040014846FEF7F0F911E0330015F1D402D6
:101D600029002000FFF7EDFA09E0330015F1F40235
:101D700029002000FFF7E5FA01E0FF208046280057
:101D8000FFF707FFFFF700FF01F04AFE002802D02F
:101D900001F072FEF8E74046C0B2052803D0404685
:101DA000C0B2062804D1022231002800FEF7E0F973
:101DB000DFF8409042F220014846FEF7B9F941F2BF
:101DC00010014846FEF7B4F948F280014846FEF794
:101DD000AFF944F240014846FEF7AAF94046C0B2C6
:101DE000FF2801D0002080464046C0B2BDE8F28303
:101DF0000000000000080140001001402000200405
:101E00004000400480008004000C014001000104F7
:101E10000200020414A5000810B50400200000F020
:101E200000FD10BD38B504000D002900200000F0B1
:101E300002FD32BD38B504000D002900C9B22000F2
:101E400000F059FD32BD38B504000D002900C9B2BB
:101E5000200000F06CFD32BD80B500F011FE02BD27
:101E600070B504000D0016003200D2B22900200027
:101E700001F006FE70BD10B50400200001F00BFE5D
:101E800010BD38B504000D002900200001F009FE46
:101E900032BDF0B40246106895681318506803EB21
:101EA0005004C0071DD54D441BE013F8017B05F815
:101EB000017B491EF9D1A0B1B60813F8011B06F049
:101EC0000306032E08BF13F8016B01EB06214942FC
:101ED000801C294405D011F8016B05F8016B401EE8
:101EE000F9D1A3420ED013F8016B16F0030104BF21
:101EF00013F8011BC91C30090F28DAD113F8010BA4
:101F00000F30D6E7F0BC02F10C0070472DE9F04F1E
:101F100085B006000F00904699460E9CDDF83CA067
:101F2000109DDDF844B000208DF81000CDF80CB005
:101F30002800C0B20290CDF804A0200080B200902A
:101F40004B46DBB24246390089B2300001F0B1FDA8
:101F50008DF8100005200190042000900323032237
:101F60000021300001F0D9FDC0B205B0BDE8F08F0E
:101F700010B50400200001F0E9FD10BD10B504000B
:101F8000200001F0E9FD10BD10B504000121200082
:101F900001F0E8FD10BD38B504000D002900C9B2FC
:101FA000200001F0E8FD32BD10B50400200001F072
:101FB000EBFD10BD10B50400200001F0EBFD10BDDD
:101FC00038B504000D002900C9B2200001F0E8FD79
:101FD00032BD38B504000D00290089B2200001F09F
:101FE000E8FD32BD10B50400200001F0EBFD10BD8E
:101FF00010B50400200001F0EBFD10BD0200507987
:102000001179401A002807D0906D1179405CD17881
:10201000884201D0012000E00020704780B501F027
:10202000DDFD01BD80B501F0DDFD01BD80B501F034
:10203000DDFD02BD38B504000D002900C9B2200045
:1020400001F0D8FD31BD30B4002513E050F8042B69
:10205000D30744BFA9F101039A18091F042942F8C4
:10206000045BFAD213468C0744BF15809B1CC9073A
:1020700048BF1D7050F8041B0029E7D130BC7047E1
:1020800080B501F0C0FD02BD10B50400200001F0D4
:10209000C4FD10BD2DE9F04704000D0000272B48BA
:1020A00001F0B5FD2800C0B2032802DB284801F08A
:1020B000AEFD284E306800780028FAD02800C0B263
:1020C000032804DB2448006800780028FAD0306830
:1020D00001F0A9FD2800C0B2032803DB1E480068F8
:1020E00001F0A1FD5FF0000840462900C0B2C9B26E
:1020F000884228D24046C0B2002805D002280BD022
:1021000006D303280DD011E030684088208017E006
:1021100030688088608013E00F4800684088A080A5
:102120000EE00D4800688088E08009E02F00FFB2D3
:102130005FF00009A2464A463900504600F026F9F1
:1021400018F10108D0E70020BDE8F0870024014025
:10215000003C01400000002004000020BBBBE1B1B6
:10216000B2F5803F80F07E80022A1ED98C46B1FBFA
:10217000F2F102FB11C31B0443EA1043B3FBF2FC70
:1021800002FB1C3380B240EA0343B3FBF2F002FBD4
:10219000103240EA0C4000237047022A05D98446D9
:1021A000B0FBF2F002FB10C270474AB105D100F05B
:1021B000010249085FEA300070470022002370479F
:1021C00001F038BD0B000200002100207047904252
:1021D00071EB030CF6D3B3F5803F2FD2F0B5B3FA11
:1021E00083F7B1FA81F4A7F10F0E3D1B5340CEF1F6
:1021F000200602FA0EF2F3415340B5F10F0746D81C
:102200000F3C2C444140C4F12006A040F141414024
:10221000B1FBF3F603FB1611A2FB0645001BA94117
:1022200002D2761E8018594180EA010221FA0EF38B
:1022300062FA0EF200215A403046F0BD30B4B1FBD4
:10224000F3FC03FB1C11A2FB0C45001BA94103D2AC
:10225000ACF1010C8018594130BC02460B46604677
:1022600000217047B2F1807F65D3F0B5B2FA82F7F2
:10227000B1FA81F4C7F10F063D1B22FA06F307F10C
:10228000110EF24120355A40B5F10F07B8D941403F
:10229000C4F12006A040F1414140B1FBF3FC03FB37
:1022A0001C11A2FB0C45001BA94103D2BCF1010C7F
:1022B000801859410F2F12D30F3FC90341EA5041F3
:1022C000B1FBF3F603FB1611A2FB0645D4EBC030BD
:1022D000A94102D2761E8018594146EACC3C07B388
:1022E0004140C7F12006B840F1414140B1FBF3F64F
:1022F00003FB1611A2FB0645001BA94102D2761E64
:102300008018594180EA010221FA0EF3C7F1200436
:1023100062FA0EF20CFA07F05A402CFA04F130433C
:10232000F0BD80EA010221FA0EF3002162FA0EF2FA
:1023300060465A40F0BD8C46B1FBF2F102FB11C37E
:102340001B0243EA1063B3FBF2FC02FB1C331B02CB
:102350004CEA002043EA1063B3FBF2FC02FB1C339F
:102360001B024CEA002043EA1063B3FBF2FC02FBC1
:102370001C331B024CEA002043EA1063B3FBF2FC5F
:1023800002FB1C324CEA00200023704762F30F224C
:1023900062F31F42401810F0030308D0C91A1FD37C
:1023A000DB0748BF00F8012D28BF20F8022D1300DD
:1023B00030B414461546103928BF20E93C00FAD83D
:1023C000490728BF20E90C0048BF40F8042D8900C8
:1023D00028BF20F8022D48BF00F8012D30BC7047FF
:1023E000C91818BF00F8012DCB0728BF00F8012D30
:1023F0007047B1F5807F02D34FF0FF307047017016
:10240000012070470078401E8041C043C00F7047D4
:10241000806810EA112080B2C1F30F21884201D1F7
:10242000012000E00020C0B27047C1F30F2202611A
:10243000704730B585B0DFF80C460121200001F06F
:10244000FAFB0121200001F0F6FB0121200001F040
:10245000F2FB0121200001F0EEFB6846142101F09F
:10246000F7FB012001900120029000200390012041
:10247000049042F2200500956946200001F056FCC8
:1024800029002000FFF7D1FF41F2100500956946B1
:10249000200001F04BFC29002000FFF7C6FF48F2A6
:1024A000800500956946200001F040FC29002000CD
:1024B000FFF7BBFF44F2400500956946200001F09C
:1024C00035FC29002000FFF7B0FF05B030BD2DE935
:1024D000F84785B0DFF870450121200001F0ABFB23
:1024E0000121200001F0A7FB0121200001F0A3FB46
:1024F0000121200001F09FFBDFF850550121280049
:1025000001F099FB0121280001F095FB0121200039
:1025100001F091FB0121200001F08DFBDFF8306517
:102520000121300001F087FB0121300001F083FB25
:102530000121300001F07FFB0121300001F07BFB25
:102540000121300001F077FB0121300001F073FB25
:102550000121300001F06FFB0121300001F06BFB25
:102560006846142101F074FB0120019001200290C3
:10257000042003900120049048F2800700976946E8
:10258000200001F0D3FB39002000FFF74EFFDFF8F9
:10259000C484CDF800806946200001F0C7FB4146A5
:1025A0002000FFF742FFDFF8B094CDF800906946B5
:1025B000200001F0BBFB49462000FFF736FFDFF8A3
:1025C0009CA4CDF800A06946200001F0AFFB514665
:1025D0002000FFF72AFFCDF800806946280001F0AF
:1025E000A5FB41462800FFF720FFCDF80090694683
:1025F000280001F09BFB49462800FFF716FF40F238
:10260000011500956946200001F090FB290020008B
:10261000FFF70BFF40F2022500956946200001F00C
:1026200085FB29002000FFF700FF00976946300076
:1026300001F07CFB39003000FFF7F7FE44F2400464
:1026400000946946300001F071FB21003000FFF773
:10265000ECFE42F2200400946946300001F066FB73
:1026600021003000FFF7E1FE41F2100400946946BA
:10267000300001F05BFB21003000FFF7D6FEDFF8F1
:10268000E04300946946300001F050FB2100300027
:10269000FFF7CBFEDFF8CC4300946946300001F031
:1026A00045FB21003000FFF7C0FEDFF8BC4300947B
:1026B0006946300001F03AFB21003000FFF7B5FE1B
:1026C000DFF8A84300946946300001F02FFB210099
:1026D0003000FFF7AAFE06B0BDE8F0872DE9F84309
:1026E00004000220207004250026671C3200290007
:1026F0003800FFF74BFE3220A4F8BE006420A4F897
:10270000C0004FF44840C4F8C4004AF68010C4F832
:10271000C80047F60C30C4F8CC0045F6D810C4F811
:10272000D00004275FF0000814F1B60942463900D2
:102730004846FFF72BFE4FF4AF70A4F8D600FA20FE
:10274000A4F8D80040F28A20A4F8DA004FF4FA7016
:10275000A4F8DC0044F62060C4F8E400C449D1F8D1
:10276000E4208218C4F8E020C822A4F8E8206422FB
:10277000A4F8EA20B4F8EA20C92A02DBC822A4F8A7
:10278000EA204FF46162A4F8F2200622A4F8EC20BB
:102790001422A4F8EE200022A4F8F020B4F8EC20D3
:1027A000152A02DB1422A4F8EC2040F22622A4F819
:1027B000F6204FF4E172A4F8F82040F25232A4F867
:1027C000FA204FF44872A4F8FC2049F64042C4F8BD
:1027D0000421D1F804114018C4F80001C820A4F85D
:1027E00008016420A4F80A01B4F80A01C92802DB30
:1027F000C820A4F80A0140F6C410A4F8120106206B
:10280000A4F80C011E20A4F80E010020A4F8100169
:10281000B4F80C01152802DB1420A4F80C01BDE863
:10282000F18310B50400FFF704FE2000FFF756FF08
:10283000FFF74DFE10BD2DE9F84305000C00002602
:1028400000272878012809D050D3032818D017D39F
:10285000052839D026D3062836D047E0DFF8148281
:102860005FF0000922000023A2FB080102FB09110E
:1028700003FB081141F632120023FFF76FFC38E02A
:10288000DFF8F4815FF0000922000023A2FB0801B9
:1028900002FB091103FB081149F26E620023FFF7E6
:1028A0005DFC26E0DFF8D4815FF000092200002300
:1028B000A2FB080102FB091103FB08114FF4486257
:1028C0000023FFF74BFC14E0DFF8B0815FF0000954
:1028D00022000023A2FB080102FB091103FB0811DF
:1028E0004FF4C8520023FFF739FC02E044F62060A1
:1028F0000021BDE8F28310B402000020002318007C
:10290000C0B2042810DAC80705D501201C00E4B2C3
:102910001444607004E000201C00E4B214446070B1
:10292000C9B249085B1CEAE7002010BC70470200EE
:1029300011700020704738B50024434D48F28001E3
:102940002800FFF765FD002801D154F0010441493A
:102950002800FFF75DFD002801D154F002043E4934
:102960002800FFF755FD002801D154F004043B492D
:102970002800FFF74DFD002801D154F00804200085
:10298000C0B232BD38B5002432493048FFF740FDAF
:10299000002801D154F001042B4D40F20111280010
:1029A000FFF736FD002801D154F0040440F2022163
:1029B0002800FFF72DFD002801D154F00804200065
:1029C000C0B232BD38B50024214D48F28001280044
:1029D000FFF71EFD002801D154F0010442F220014E
:1029E0002800FFF715FD002801D154F0040441F23E
:1029F00010012800FFF70CFD002801D154F0080455
:102A00002000C0B232BD38B50024114D1449280051
:102A1000FFF7FEFC002801D154F001041249280000
:102A2000FFF7F6FC002801D154F004040F492800F8
:102A3000FFF7EEFC002801D154F008042000C0B2DA
:102A400032BD00000008014000180140000C0140A8
:102A50000014014001000104020002040400040407
:102A60008000800440004004200020041000100476
:102A7000BC1A0020EA4C0F00001BB70040420F00B8
:102A800070B5FFF758FF0400FFF77CFF05002543F2
:102A9000FFF798FF06002E43FFF7B5FF0100314313
:102AA00011F00F010800C0B2002815D0022817D07D
:102AB00014D3042818D015D3062819D016D3082803
:102AC0001AD017D30A281BD018D30C281CD019D31E
:102AD0000E281DD01AD31DE001201CE002201AE0B0
:102AE000032018E0042016E0052014E0062012E080
:102AF000072010E008200EE009200CE00A200AE080
:102B00000B2008E00C2006E00D2004E00E2002E07F
:102B10000F2000E0FF20C0B270BD10B504002000FF
:102B200001F052F910BD10B50400200001F046F983
:102B300010BD8268521C8260426832B10268531C28
:102B4000036011704168491E41607047DFF8D0068C
:102B50000068C0F302207047012210F01F018A4074
:102B6000DFF8C01603005BB25B0941F82320704711
:102B700010B4020052B2002A0AD50A01DFF8A836C2
:102B8000040064B214F00F04234403F8042C05E09D
:102B90000A01DFF89836040064B21A5510BC704779
:102BA00070B4030013F00704D4F10700052801D323
:102BB000042001E0D4F10700251D072D01D20025D6
:102BC00000E0E51E012616FA00F0401E0140A94073
:102BD00016FA05F56D1E2A401143080070BC7047B7
:102BE00081B0DFF84C160A6802430A6009680140A8
:102BF0000091009901B07047DFF834160A688243EB
:102C00000A60704781B0DFF82C160A6802430A6038
:102C1000096801400091009901B07047DFF814166F
:102C20000A6882430A607047F0B510EB116491FAAC
:102C3000A1F5B5FA85F391FAA1F6B6FA86F7D4F8BC
:102C400000C05FF00F0EDBB29B001EFA03FE3CEAF1
:102C50000E0CFFB2BB0012FA03F353EA0C0CC4F8DB
:102C600000C0F0BDC1F30F2202617047C1F30F2213
:102C700042617047C16851F40051C16070470169F9
:102C800031F490410161416931F02A01416170479D
:102C90000068800910F0010070470068C00910F05A
:102CA000010070477FF0400101607047C16851F03A
:102CB0002001C1607047C16851F04001C160704798
:102CC000C16851F08001C1607047C16831F04001B6
:102CD000C1607047C16831F08001C1607047C06851
:102CE000800910F001007047C068C00910F00100B1
:102CF00070470A00D2B2426070470100002008709D
:102D000000204870002088700020C87000200871E2
:102D100000204871002088710020C8710020886060
:102D20000020C86000200861002048610020886100
:102D3000002081F83C00002081F83D00002081F84F
:102D40003F000020A1F840000020A1F84200002030
:102D5000A1F844000020A1F84600002081F83E00C0
:102D6000002081F848000020C86400200865002089
:102D700048650020886500200877002048770020FB
:102D8000C877002008840020488400208884002020
:102D9000C88401208877002081F828000020C862BC
:102DA0000020086300204863002088630020C86575
:102DB000002070472DE9F84F04000F009046994617
:102DC0000A9DDDF82CA00C9EDDF834B02000FFF742
:102DD00094FF84F83D90A4F84670C4F85880667754
:102DE000E584C4F838A0C4F85CB0002C08D0DFF843
:102DF000180A0068844203D1200000F072FD11E03F
:102E0000002C05D0002C03D1200000F003FE09E0C7
:102E1000002C05D0002C03D1200000F0FEFD01E0C5
:102E2000022000E00020BDE8F28F38B504000D005C
:102E3000E06800280ED02800C0B2012805D1092280
:102E4000A168E068FFF7F0FE04E00822A168E068EE
:102E5000FFF7EAFE002032BD38B504000D006069BE
:102E600000280CD02800C0B2012804D12169606973
:102E7000FFF7FCFE03E021696069FFF7F3FE002025
:102E800032BD70B504000D000026E06D002802D0B0
:102E9000E06D804706002800C0B2002803D0E66439
:102EA000E06C206502E0E662E06A2063002070BD0D
:102EB000F8B504000D0016000027E06D002803D0CF
:102EC000E06D8047801C07003000C0B200281FD092
:102ED0002765E06C216D884209D2216DE06C091AEA
:102EE0008D4235D2012084F84800012031E0206D68
:102EF000E16C88422CD2E16C5FF0FF30411A206D0A
:102F000041188D4224D2012084F84800012020E09D
:102F10002763E06A216B884209D2216BE06A091AB3
:102F20008D4215D2012084F82800012011E0206B89
:102F3000E16A88420CD2E16A5FF0FF30411A206BEF
:102F400041188D4204D2012084F82800012000E0BD
:102F50000020F2BD70B504000D0000262800C0B2AC
:102F600000281FD0E06C002842D0606D00283FD0C0
:102F7000E06C002801D100203CE00122616D2000BE
:102F8000FFF796FF06003000C0B2002830D022784C
:102F9000521EDFF8481A200000F0DDFB200000F090
:102FA0009FFB25E0E06A002822D0606B00281FD03C
:102FB000E06A002801D100201CE00022616B2000A3
:102FC000FFF776FF06003000C0B200280DD0E06A9F
:102FD00000280AD02278521EDFF8041A200000F0E0
:102FE000BAFB200000F09AFB02E0002084F82800E1
:102FF0003000C0B270BD38B504000D00DFF8E41930
:103000000D7094F83F00002805D002283DD01CD355
:10301000032866D066E0B4F84200002814D1607836
:103020000A78904210D10878A16D0870012084F8C8
:103030003F000120A4F8440001212000FFF721FFF8
:103040000121200000F03BFB4CE00878002814D060
:103050000878B4F84620D2B290420ED20878A26D19
:1030600050700878A4F84000B4F84400401CA4F85C
:103070004400022084F83F0002E0002084F83F0072
:1030800001212000FFF7FDFE2CE0A06DB4F84220E6
:10309000104409788170B4F84200401CA4F8420042
:1030A000B4F84400401CA4F84400B4F84200B4F85A
:1030B000461080B2884202D30020A4F842000121C9
:1030C0002000FFF7DEFEB4F84200B4F8401080B2F2
:1030D000884205D3032084F83F00012084F83E0095
:1030E00000E0FFE7002032BD38B504000D00DFF836
:1030F000F8180D7094F83F00002807D0022837D048
:103100001ED3042800F089805BD387E0B4F8420026
:10311000002814D160780A78904210D10878A16D07
:103120000870012084F83F000120A4F84400012128
:103130002000FFF7A6FE0121200000F0C0FA6DE09C
:103140000878A26D50700878A4F84000B4F84000E8
:103150000002A4F84000022084F83F00B4F84400C4
:10316000401CA4F8440001212000FFF78AFE55E02E
:103170000878A26D9070B4F8402008788218A4F8FE
:103180004020B4F84400401CA4F84400B4F84000C7
:1031900000280ED0B4F84000B4F8461080B288423F
:1031A00007D2B4F84000A4F84400032084F83F009C
:1031B00002E0002084F83F0001212000FFF761FEBB
:1031C0002CE0A06DB4F8422010440978C170B4F826
:1031D0004200401CA4F84200B4F84400401CA4F88B
:1031E0004400B4F84200B4F8461080B2884202D3DA
:1031F0000020A4F8420001212000FFF742FEB4F8AD
:103200004200B4F8401080B2884205D3042084F80C
:103210003F00012084F83E0000E0FFE7002032BDBF
:103220000CED00E000E100E018ED00E000E400E05B
:103230001C1002401810024038B504000D00B4F80C
:103240004600FF2805DA2900C9B22000FFF7D3FEA7
:1032500004E02900C9B22000FFF746FF32BD38B5AF
:1032600004000D002900C9B2A069FFF742FDA06962
:10327000FFF70EFD002802D100F0FEFBF7E7A06982
:10328000FFF710FD002032BD10B50400208C00288F
:103290002CD0608C218C80B2884223D0A06B618CB2
:1032A000415CA069FFF725FD608C401C6084608C48
:1032B000E18C80B2884201D300206084608C218C34
:1032C00080B2884218D3A08C002815D0608CA18CC5
:1032D00080B2884210D3A069FFF7FCFCA069FFF719
:1032E000EAFC09E0A069FFF7F5FC05E0A069FFF73B
:1032F000F1FC200000F012FA00212000FFF7C1FDD0
:10330000002010BD10B504006069002809D0E07FDE
:10331000002806D10D21A069FFF7EBFC0120E07722
:1033200014E06069002809D0E07F012806D10A2155
:10333000A069FFF7DEFC0220E07707E00020E077DD
:10334000A069FFF7C2FC200000F0E8F9002010BDE2
:1033500038B504000D00A06B00281ED0208CE18C35
:1033600080B2884201D300202084A06B218C455478
:10337000208C401C2084A069FFF7B6FC00280AD1ED
:1033800001212000FFF768FD01212000FFF74DFD1E
:10339000A069FFF795FC002000E0012032BD70B568
:1033A00004000D000126A06B00283AD0607F0128A0
:1033B00002D0607F022801D16D1C08E0607F0328E5
:1033C00001D1AD1C03E0607F042800D12D1D607980
:1033D0002179401A002800D06D1CE08CFB280EDB00
:1033E000290089B2090AC9B22000FFF7B1FF2900FC
:1033F000C9B22000FFF7ACFF0600ED1C06E0290073
:10340000C9B22000FFF7A4FF0600AD1C6079217946
:10341000401A002804D0E1782000FFF799FF060049
:10342000A5843000C0B270BD38B50400607F0028AC
:1034300056D000F0D3FC002852D10025607F01282F
:103440000AD1218CA06B00F0E8FC05002900C9B26C
:103450002000FFF77DFF41E0607F02280BD1228C26
:10346000A16B072000F0CEFC05002900C9B22000A6
:10347000FFF76EFF32E0607F032810D1218CA06B34
:1034800000F0B8FC05002900090AC9B22000FFF7C6
:103490005FFF2900C9B22000FFF75AFF1EE0607FDE
:1034A00004281BD1218CA06B00F09CFC0500290096
:1034B000090EC9B22000FFF74BFF2900090CC9B261
:1034C0002000FFF745FF2900090AC9B22000FFF7D5
:1034D0003FFF2900C9B22000FFF73AFF002000E0BB
:1034E000012032BDF8B5040000250026B4F8407074
:1034F00094F83D00002800F0E08000F06FFC002808
:1035000040F0DB8094F83D00012823D17F1EB4F801
:103510004600FA2809DAA06D4770A06D390089B21B
:10352000084480780600BF1C0DE0380080B2000A15
:10353000A16D4870A06D8770A06D390089B20844F4
:10354000C0780600FF1C390089B2A06D00F065FC50
:103550000500AEE094F83D00022824D17F1EB4F8A7
:103560004600FA2809DAA06D4770A06D390089B2CB
:10357000084480780600BF1C0DE0380080B2000AC5
:10358000A16D4870A06D8770A06D390089B20844A4
:10359000C0780600FF1C3A0092B2A16D072000F02F
:1035A00031FC050085E094F83D00032831D1BF1EB1
:1035B000B4F84600FA2810DAA06D4770A06D390003
:1035C00089B208444078A16D3A0092B211448978DA
:1035D00011EB00210E00BF1C14E0380080B2000A7D
:1035E000A16D4870A06D8770A06D390089B2084444
:1035F0008078A16D3A0092B21144C97811EB002194
:103600000E00FF1C390089B2A06D00F0F3FB05002D
:103610004FE094F83D0004284BD13F1FB4F846001A
:10362000FA281EDAA06D4770A06D390089B20844EF
:1036300010F8010CA16D3A0092B2895C11EB0021E7
:10364000A06D3A0092B21044407810EB0120A16DB9
:103650003A0092B21144897811EB00210E00BF1C90
:1036600021E0380080B2000AA16D4870A06D87701B
:10367000A06D390089B2405CA16D3A0092B211444C
:10368000497811EB0021A06D3A0092B21044807885
:1036900010EB0120A16D3A0092B21144C97811EBF0
:1036A00000210E00FF1C390089B2A06D00F09AFBCA
:1036B0000500B54201D0012000E00020F2BD02006B
:1036C0000800C0B2002803D0002082F8480002E0C1
:1036D000002082F828000020704790F83E007047D4
:1036E00010B5040000212000FFF7B6FB002084F88D
:1036F0003F000020A4F840000020A4F84200002071
:10370000A4F84400002084F83E000020E06400207B
:103710002065002084F84800002010BD10B504008A
:103720000120A07700202084002060840020A08455
:103730000020E06200202063002084F828000020A0
:10374000E07700212000FFF787FB00212000FFF732
:103750006CFB002010BD0CB42DE9F84F04000D00E7
:10376000A069FFF7C1FA002807D0A069FFF795FA12
:10377000002802D000F080F9F7E7A069FFF7AFFA60
:1037800000280DD0A069FFF783FA002805D0E07F5C
:10379000002802D100F070F9F4E7A069FFF782FA7F
:1037A00001212000FFF758FB01212000FFF73DFB1E
:1037B0005FF0000A5FF0000B0AAE8C4F33002A0066
:1037C0004FF48061380000F031FB80465FF0000963
:1037D0004846414680B289B2884208D2484680B203
:1037E000395C2000FFF73BFD19F10109F0E70021EA
:1037F0002000FFF731FB00212000FFF716FBBDE89A
:10380000F10F5DF80CFB00001800002038B5040033
:103810000D00774884420ED12800C0B2002804D0A1
:103820004FF48040FFF7EEF903E04FF48040FFF7DC
:10383000F5F9002048E06F4884420ED12800C0B25C
:10384000002804D05FF40030FFF7CAF903E05FF40A
:103850000030FFF7D1F9002036E0674884420ED1EE
:103860002800C0B2002804D05FF48020FFF7B8F928
:1038700003E05FF48020FFF7BFF9002024E05F48F9
:1038800084420ED12800C0B2002804D05FF400208A
:10389000FFF7A6F903E05FF40020FFF7ADF9002081
:1038A00012E0574884420ED12800C0B2002804D04C
:1038B0005FF48010FFF794F903E05FF48010FFF7E6
:1038C0009BF9002000E0012032BD70B40600039D8A
:1038D000049CF17032717371B571F471002070BC89
:1038E0007047F0B58BB00400464D0121280000F070
:1038F000A2F96846142100F0ABF9092001900320D9
:10390000029000200390012004903F4E00966946EB
:10391000280000F00BFA3D4800900820019069460D
:10392000280000F003FA324F380000F002FB0121BA
:103930003800FFF76BFF05A8182100F089F95FF444
:10394000E1300590002006900020079000200890AC
:103950000C20099000200A9005A9380000F02DFBEA
:103960003800FFF78CF9FFF7F1F800220221FFF78A
:1039700017F901002520FFF7FBF82520FFF7ECF8E9
:103980003800FFF793F93800FFF774F9E560A66097
:10399000A76102202070E06D002804D064206065DB
:1039A0006420606303E00020606500206063002005
:1039B0006077552060705A20A07000212000FFF72A
:1039C0004BFA00212000FFF730FA11492000FFF7E1
:1039D000C2FE00200BB0F0BD0000000034A50008BE
:1039E00054A50008E81D0020E91D0020BC16002099
:1039F000003801400044004000480040004C0040B6
:103A000000500040000801400200020404000404C9
:103A1000A8A50008010000207047010000207047A1
:103A200080B500F029FB02BD80B500F029FB02BD86
:103A300080B500F029FB01BD80B500F029FB01BD78
:103A400010B504002000C0B200F026FB10BD10B578
:103A500004002000C0B200F026FB10BD10B5040029
:103A60002000C0B200F026FB10BD10B504002000FD
:103A7000C0B200F026FB10BD80B500F029FB02BDEE
:103A800070B504000D0016003200D2B229002000EB
:103A900000F08CFB70BD10B50400200000F0CEFDDE
:103AA00010BD38B504000D002900200000F006FE0E
:103AB00032BD2DE9F34F85B0060017009846109CE3
:103AC000DDF84490129DDDF84CA000208DF8100028
:103AD000CDF80CA02800C0B20290CDF804902000D0
:103AE00080B200904346DBB23A00BDF818103000B7
:103AF000FFF760F983465846C0B2002808D100F0AD
:103B00006DF9002804D0002086F83D000020707771
:103B10005846C0B207B0BDE8F08F2DE9FE4306005D
:103B20000F00904699460A9D0B9C2000C0B2019060
:103B30002800C0B200904B46DBB24246D2B23900F8
:103B4000C9B23000FFF7C1FEBDE8FE8310B5040026
:103B50002000FFF7C5FD10BD10B504002000FFF7E1
:103B6000BCFD10BD38B504000D002900C9B220000D
:103B7000FFF7F0F932BD38B504000D002900C9B2D5
:103B80002000FFF759FB32BD10B504002000FFF7FD
:103B90007BFB10BD10B504002000FFF7B3FB10BD88
:103BA00038B504000D002900C9B22000FFF7D0FB92
:103BB00032BD38B504000D00290089B22000FFF79E
:103BC000EEFB32BD10B504002000FFF72DFC10BD48
:103BD00010B504002000FFF785FC10BD80B500F093
:103BE00081FF01BD80B500F058FF01BD80B500F038
:103BF00075FF02BD38B504000D002900C9B22000D0
:103C000000F074FF31BD80B501F0D8FB02BD10B5E6
:103C10000400200001F0D8FB10BD10B50400200006
:103C200001F0EFFB10BD10B50400200001F03CFCDA
:103C300010BD0000704738B504000D002900C9B25E
:103C4000200001F06AFC31BD80B501F06FFC01BDC0
:103C5000002201F06FBC0000F0B510EB116491FA86
:103C6000A1F5B5FA85F391FAA1F6B6FA86F7D4F87C
:103C700000C05FF00F0EDBB29B001EFA03FE3CEAB1
:103C80000E0CFFB2BB0012FA03F353EA0C0CC4F89B
:103C900000C0F0BDF0B510EB116491FAA1F5B5FAD2
:103CA00085F391FAA1F6B6FA86F7D4F800C05FF072
:103CB000030EDBB29B001EFA03FE3CEA0E0CFFB2C1
:103CC000BB0012FA03F353EA0C0CC4F800C0F0BDB9
:103CD000F0B510EB116491FAA1F5B5FA85F391FAFC
:103CE000A1F6B6FA86F7D4F800C05FF0040EDBB296
:103CF0009B001EFA03FE3CEA0E0CFFB2BB0012FA58
:103D000003F353EA0C0CC4F800C0F0BD30B4C36830
:103D10000C00240A94FAA4F4B4FA84F533EA1123CB
:103D200012FA05F52B43C36030BC70472DE9F04112
:103D300004000D002F683F023F0C97FAA7F0B0FA7D
:103D400080F85FFA88F8380030FA08F0002832D09E
:103D5000380030FA08F0C0072AD5B8F1080F05D2AC
:103D600040F2011010FA08F0060007E05FF00111C0
:103D700040460838814051F080610E006A68310089
:103D80002000FFF769FF2A6931002000FFF7BEFF1E
:103D90006868012802D06868092809D1AA6831003A
:103DA0002000FFF777FFEA6831002000FFF790FF5F
:103DB00018F10108C7E70120BDE8F08110B5040043
:103DC000200001F0D1FB10BD10B50400200001F06F
:103DD000DBFB10BD80B501F0F3FB01BD80B501F048
:103DE000F3FB02BD38B504000D002900200001F0EE
:103DF000EFFB32BD38B504000D002900200001F0B2
:103E0000EFFB32BD70B504000D0016003200290032
:103E10002000C0B201F0ECFB70BD38B504000D000D
:103E20002900200001F0EFFB32BD000008B584B08E
:103E30000023039300290EBF01930190491E0291B4
:103E4000009301A904AB07487844183001F0E4FB63
:103E5000019909B100220A70002858BF039805B0E3
:103E600000BD00BFCFECFFFFC068400B10F00100A9
:103E70007047026932F440520A4302617047426956
:103E800032F440720A4342617047F0B4642319244B
:103E900004FB01F59600B5FBF6F56426B5FBF6F5D7
:103EA00004FB01F69700B6FBF7F604FB01F75FEAA7
:103EB000820CB7FBFCF75FF0640CB7FBFCF703FB6D
:103EC0001766360132366427B6FBF7F616F0F006B1
:103ED00016EB051604FB01F59700B5FBF7F504FB9F
:103EE00001F49700B4FBF7F46427B4FBF7F403FB89
:103EF00014531B0132336424B3FBF4F313F00F03A8
:103F00009E19B6B28660F0BC704753490A680243F6
:103F10000A60704750490A6882430A6070474F49F7
:103F20000A6802430A6070474C490A6882430A6083
:103F3000704738B5040001254948844208D14FF440
:103F40008040FFF7ECFF4FF48040FFF7EDFF31E0DA
:103F50004448844208D15FF40030FFF7D6FF5FF495
:103F60000030FFF7D7FF25E03F48844208D15FF4D7
:103F70008020FFF7CAFF5FF48020FFF7CBFF19E036
:103F80003A48844208D15FF40020FFF7BEFF5FF497
:103F90000020FFF7BFFF0DE03548844208D15FF4F1
:103FA0008010FFF7B2FF5FF48010FFF7B3FF01E06E
:103FB000002005002800C0B232BDF8B584B005006D
:103FC0000E00002700242800FFF74EFF00283DD1F7
:103FD000E9682848014070680143F068014330698E
:103FE0000143E960B1682800FFF743FF71692800C9
:103FF000FFF745FF684602F0D6FA1948854202D11C
:104000000398040016E01748854202D10298040084
:1040100010E01548854202D1029804000AE01348D6
:10402000854202D10298040004E01148854201D182
:1040300002980400002C09D03068002806D0012026
:104040000700326821002800FFF71FFF3800C0B2C8
:1040500005B0F0BD00000000101002400C1002403E
:10406000003801400044004000480040004C00403F
:1040700000500040F3E9FFFF80B502F018FB02BDDD
:1040800080B502F03EFB02BD80B502F04BFB01BDE6
:1040900080B502F06FFB01BD10B504002000C0B276
:1040A00002F07EFB10BD10B504002000C0B202F08B
:1040B00087FB10BD10B504002000C0B202F092FBD7
:1040C00010BD10B504002000C0B202F09DFB10BD71
:1040D00080B502F0BEFB02BD0121017001214170DB
:1040E000002181700021C170002101710021417106
:1040F000022181712321C1710D210172412141727F
:104100000D2181724121C17200210173002141738F
:10411000002181730021C1730021017400214174C9
:10412000002181740021C1740021017500214175B5
:10413000002181750021C1750021017600214176A1
:10414000002181760021C176002181830021016256
:1041500000214162DFF8901481620021C1620021D8
:104160000163002141637047010000208863DFF88C
:104170007C04C863086444F24000486448F280004C
:104180008864002081F84C00002081F84D00002058
:1041900048653420A1F84E000020086500207047D3
:1041A000010000207047010000207047F8B50400AE
:1041B0000D00160000272000FFF78EFF002C08D00E
:1041C000DFF82C040068844203D12000FFF7CCFF05
:1041D00011E0002C05D0002C03D12000FFF7E0FFF8
:1041E00009E0002C05D0002C03D12000FFF7DBFFF5
:1041F00001E0012014E03000C0B2002803D001200B
:1042000084F84C0008E0290014F1380002F02AFB81
:104210000700012084F84C00200000F002F8C0B232
:10422000F2BD70B504000025211D200000F04EF8FD
:10423000211D200000F04AF806003000C0B200281E
:1042400004D1A11D200000F041F806003000C0B2EA
:1042500070BD2DE9F84304000D0016005FF0000961
:104260000027012114F1380002F004FB804640468B
:10427000C0B2002802D0022080461CE000200700C7
:1042800038003100C0B2C9B2884214D23800C0B27E
:10429000295C14F1380002F002FB14F1380002F03E
:1042A000F8FA80464046C0B2002802D0F81C80468A
:1042B00001E07F1CE4E714F1380002F0E4FA404624
:1042C000C0B2BDE8F28303000120704738B5040096
:1042D0000D0094F84C00002805D10222290020008E
:1042E000FFF7F1FF04E0022229002000FFF7B1FFF1
:1042F00032BD4FF47A72B1FBF2F20262036A0A2213
:1043000053430362026A32326423B2FBF3F2026265
:10431000704770B504000D00DFF8CC02A0620020E9
:104320002062DFF8D002854204D3050041F24460E8
:1043300020620BE045F20820854203D205000320ED
:10434000206203E029002000FFF7D3FFE562E06A66
:104350004FF47A71B0FBF1F02063206A4519DFF861
:104360009802854206D30020A07000202070002013
:104370006070E1E0DFF88402854207D30020A0707E
:1043800002202070002060706D00D5E0DFF8700220
:10439000854208D30020A0700320207000206070A8
:1043A00003204543C8E0DFF85C02854207D30020C4
:1043B000A0700420207000206070AD00BCE0DFF829
:1043C0004802854208D30020A070052020700020FC
:1043D000607006204543AFE0DFF83002854207D326
:1043E0000020A0700620207000206070ED00A3E087
:1043F000DFF81C02854208D30020A070072020703F
:10440000002060700C20454396E0DFF808028542EA
:1044100007D30020A07006202070012060702D01BD
:104420008AE0DFF8F401854208D30020A07007205D
:10443000207001206070182045437DE07748854258
:1044400007D30020A07006202070022060706D014C
:1044500072E07348854208D30020A07007202070C6
:10446000022060703020454366E06E48854207D3E5
:104470000020A0700620207003206070AD015BE07A
:104480006948854208D30020A070072020700320CF
:104490006070602045434FE06448854207D30020A8
:1044A000A0700420207005206070ED0144E0604899
:1044B000854208D30020A070052020700520607080
:1044C000C020454338E05B4885420AD30120A070F4
:1044D0000620207004206070ED01A06A4008A062F0
:1044E0002AE04BF21C7085420BD30120A0700720FC
:1044F000207004206070C0204543A06A4008A0627C
:104500001AE048F6551085420AD30120A070062013
:104510002070052060702D02A06A4008A0620BE0A8
:104520000120A07007202070052060704FF4C0703B
:104530004543A06A4008A062AD00280002F0B8F927
:104540000600A06A02F0B4F90100300002F0BEF9E2
:104550006063606B02F038FAE070E07802F0A8F96E
:104560000100606B02F046FA334902F083FA02F070
:10457000EDFA60620D202072207840016072607A4E
:10458000617850EA81006072607A50F001006072D8
:1045900048202073A078002801D1002000E01020DE
:1045A0006073617BE078014361734A202074606A24
:1045B000800C10F03F006074606A400C10F0010045
:1045C00050F04C002075606A400A6075606A000A0D
:1045D00010F0010050F04E002076606A6076A08BEB
:1045E000401CA08370BD0000001BB700000C014000
:1045F0001C00002080D5430281A81201415489008B
:10460000818D5B0021AA4400C1C62D0011552200F6
:1046100061E31600892A1100B1710B00459508006D
:10462000D9B80500A34A04006DDC0200522502003F
:10463000376E0100A9120100FFFF7F4B2DE9F84FF3
:1046400084B004002000FFF7ECFD0028FAD102201E
:1046500003900020029014F10A05029A03992800A1
:10466000FDF794FE022001900020009014F10E0549
:10467000009A01992800FDF789FE0225002614F111
:104680001207320029003800FDF780FE02275FF094
:10469000000814F11609424639004846FDF776FE37
:1046A0005FF002095FF0000A14F11A0B5246494606
:1046B0005846FDF76BFE05B0BDE8F08FF8B5040075
:1046C0000D000026E06A854203D029002000FFF794
:1046D00020FEA08B40F6B831884202DB2000FFF7B5
:1046E000ADFF14F108012000FFF7F0FD07003800CE
:1046F000C0B2002801D001202EE014F10C012000EE
:10470000FFF7E4FD06003000C0B2002801D002200F
:1047100022E014F110012000FFF7D8FD0700380057
:10472000C0B2002801D0032016E014F114012000CB
:10473000FFF7CCFD06003000C0B2002801D00420F5
:104740000AE014F118012000FFF7C0FD0100C9B212
:10475000002901D005210800C0B2F2BD81B0DFF808
:1047600050150A6802430A600968014000910099E7
:1047700001B07047DFF838150A6882430A60704755
:1047800081B0DFF830150A6802430A600968014009
:104790000091009901B07047DFF818150A6882434C
:1047A0000A607047DFF81005016831F4406101606C
:1047B000016851F4006101607047016851F0010126
:1047C000016070470168490849000160704701684D
:1047D00051F080010160704741627047406A704744
:1047E000026A8A4302627047F0B4012901D10024B1
:1047F00016E0042901D1012412E0102901D102247C
:104800000EE0402901D103240AE0B1F5807F01D1F7
:10481000042405E0B1F5806F01D1052400E00624F1
:1048200010F11805DFF894342600F6B29B5D5D198F
:10483000DFF88C642F685FF0030C2300DBB2F35CBD
:104840001CFA03FC37EA0C0794465FEA1C4C230071
:10485000DBB2F35C1CFA03FC5CEA07072F60F0BCD8
:104860007047F0B4012901D1002416E0042901D1D8
:10487000012412E0102901D102240EE0402901D1C7
:1048800003240AE0B1F5807F01D1042405E0B1F5ED
:10489000806F01D1052400E0062410F11805DFF82F
:1048A0001C342600F6B29B5D5D19DFF814642F6896
:1048B0005FF0F00C2300DBB2F35C1CFA03FC37EA78
:1048C0000C0794465FEA1C4C2300DBB2F35C1CFA35
:1048D00003FC5CEA07072F60F0BC7047F0B40129C5
:1048E00001D1002416E0042901D1012412E010298D
:1048F00001D102240EE0402901D103240AE0B1F5E0
:10490000807F01D1042405E0B1F5806F01D1052439
:1049100000E00624DFF8AC53066A0A272300DBB266
:10492000EB5C9F40BE432300DBB2EB5C12FA03F367
:104930001E430662F0BC70478368DFF88C23134087
:104940000B4383607047426832F070020A43426052
:104950007047826832F070020A4382607047816853
:1049600031F0800181607047C16831F04001C16061
:104970007047C16831F48041C160704738B58AB072
:1049800005A81421FFF764F968461421FFF760F9C0
:10499000DFF838430121200000F0A8F8DFF8305399
:1049A0000121280002F008F943F230000090FFF7DF
:1049B000F9FE0820019069462800FFF7B7F90020AA
:1049C000ADF81400002006905FF0FF300790002043
:1049D000089005A9200002F065FA2000FFF7F7FE15
:1049E00060212000FFF7B5FF5FF480321021200026
:1049F000FFF7FAFE07212000FFF79EFF102120009D
:104A0000FFF7EEFE002210212000FFF72AFF002210
:104A100010212000FFF762FF2000FFF7A5FF200014
:104A2000FFF7A7FF00212000FFF78DFF2000FFF711
:104A300096FF0BB030BD38B5A64C20680078002832
:104A40000CD10020216848600020216848800120A6
:104A5000216808709D48FFF7B0FE1DE020680078CF
:104A6000012807D100219948FFF7B6FE02202168EE
:104A7000087011E02068007802280CD1934D2800BE
:104A8000FFF7A0FE2800FFF7A9FE21684860032079
:104A90002168087000E0FFE731BD10B58D4C8E48ED
:104AA00000680069216888608C4802F026FB206855
:104AB00000780328FBD12068806802F01EFB0020EC
:104AC00021688860002021680870206840684FF4E1
:104AD0007A71B0FBF1F02168488010BD7D48006814
:104AE0004068704780B5FFF749FF01BD38B5040045
:104AF0000D007B4884420BD12800C0B2002803D0AF
:104B00000120FFF72BFE02E00120FFF727FECCE09B
:104B1000B4F1804F0BD12800C0B2002803D001208F
:104B2000FFF71CFE02E00120FFF724FEBDE067480E
:104B300084420BD12800C0B2002803D00220FFF726
:104B40000DFE02E00220FFF709FEAEE06548844258
:104B50000BD12800C0B2002803D00420FFF7FEFDCF
:104B600002E00420FFF7FAFD9FE05F4884420BD18A
:104B70002800C0B2002803D00820FFF7EFFD02E0B4
:104B80000820FFF7EBFD90E0584884420BD1280045
:104B9000C0B2002803D01020FFF7E0FD02E0102093
:104BA000FFF7DCFD81E0524884420BD12800C0B2FF
:104BB000002803D02020FFF7D1FD02E02020FFF7DE
:104BC000CDFD72E04B4884420DD12800C0B20028D0
:104BD00004D04FF40050FFF7D3FD03E04FF4005032
:104BE000FFF7DAFD61E0444884420DD12800C0B2ED
:104BF000002804D05FF40020FFF7C2FD03E05FF45B
:104C00000020FFF7C9FD50E03C4884420DD1280048
:104C1000C0B2002804D05FF48010FFF7B1FD03E0BC
:104C20005FF48010FFF7B8FD3FE0354884420DD1B6
:104C30002800C0B2002804D05FF40010FFF7A0FDE8
:104C400003E05FF40010FFF7A7FD2EE02D4884423B
:104C50000BD12800C0B2002803D04020FFF77EFD12
:104C600002E04020FFF786FD1FE0274884420BD179
:104C70002800C0B2002803D08020FFF76FFD02E0BB
:104C80008020FFF777FD10E0204884420DD12800F6
:104C9000C0B2002804D04FF48070FFF75FFD03E03E
:104CA0004FF48070FFF766FDFFE731BD00000000A4
:104CB0001C10024018100240040001403CA60008ED
:104CC00044A600084CA60008F8BFFFFF00040040FF
:104CD000000C01401400002010000020374A00089A
:104CE000002C014000080040000C00400010004073
:104CF0000014004000340140004C014000500140CD
:104D00000054014000180040001C004000200040FA
:104D1000DFF830070068C0F302207047012210F06E
:104D20001F018A40DFF8201703005BB25B0941F8DE
:104D30002320704710B4020052B2002A0AD50A019B
:104D4000DFF80837040064B214F00F04234403F8BA
:104D5000042C05E00A01DFF8F836040064B21A55A5
:104D600010BC704770B4030013F00704D4F10700BF
:104D7000052801D3042001E0D4F10700251D072DEB
:104D800001D2002500E0E51E012616FA00F0401EC3
:104D90000140A94016FA05F56D1E2A40114308008E
:104DA00070BC7047F0B45FF44005B5FA85F310F1BC
:104DB0002C0411F44076DE4014EB860426681F278D
:104DC00011F01F039F40BE4312F01F0711F01F0395
:104DD0009F403E432660F0BC70472DE9F0434023DE
:104DE000B3FA83F510F10C0411F00076EE4014EBE9
:104DF00086044FF478652E00B6FA86F7B5FA85FC7E
:104E0000D4F800E05FF0070811F0F87939FA07F9F3
:104E100018FA09F83EEA080E11F0F87737FA0CF79D
:104E200012FA07F757EA0E0EC4F800E0BDE8F08367
:104E3000816851F00101816070478168490849002B
:104E400081607047816851F004018160704780681B
:104E5000800810F001007047816851F4A001816062
:104E6000704781B0DFF8EC150A6802430A600968F0
:104E700001400091009901B0704781B0DFF8D8156A
:104E80000A6802430A60096801400091009901B074
:104E90007047DFF8C4150A6882430A607047DFF87C
:104EA000BC2502EB010313F8013C1B180A4412F85D
:104EB000012C1218126852F001021A607047DFF8D4
:104EC0009C2502EB010313F8013C1B180A4412F85D
:104ED000012C12181268520852001A60704710B460
:104EE000DFF8783503EB010414F8014C24180B4467
:104EF00013F8013C1B185B681B0C1B041343636015
:104F000010BC70470121416070475FF480314160FF
:104F100070470221416070475FF400314160704783
:104F20000421416070475FF4802141607047DFF8E1
:104F30002C2502EB010313F8013C1B180A4412F85C
:104F4000012C1218126852F002021A607047DFF842
:104F500010150A6832F4404202430A60704718B5DF
:104F600085B0DFF8004501212000FEF764FE6846A9
:104F70001421FEF76DFE40F60F70009000200190A6
:104F80000020049069462000FEF7D0FE002006B005
:104F900010BD38B504000D00002C01D1012033E014
:104FA000DFF8C40484420CD12800C0B2002804D029
:104FB0004FF40070FFF761FF03E04FF40070FFF75C
:104FC00068FFDFF8A80484420CD12800C0B2002892
:104FD00004D04FF48060FFF750FF03E04FF480608F
:104FE000FFF757FFDFF8880484420CD12800C0B2D5
:104FF000002804D04FF40040FFF73FFF03E04FF4D8
:105000000040FFF746FF002032BD38B588B0DFF81A
:105010006404D0E90023CDE9012303A81421FEF79D
:1050200017FEDFF8540400680090DFF83C442000CD
:1050300002F0CAF801212000FFF7ABFF0020019029
:105040004FF48075029501A9200002F011F95FF478
:10505000602003905FF480100490002005900220EF
:105060000690079503A9200002F01DF94FF40040B7
:10507000FFF76DFF002000906946200002F07BF8EA
:105080000A224FF400712000FFF78CFE01220A2152
:105090002000FFF7A2FEDFF8E4532A0040F20521CA
:1050A0002000FFF77FFE012229002000FFF795FE78
:1050B0002000FFF7BDFE200000F003F8002009B03B
:1050C00030BD10B50400002C10D0A06850F00800CE
:1050D000A060A0680007FCD42000FFF7B3FE20000A
:1050E000FFF7B5FE0028FAD1002000E0012010BD36
:1050F00010B58AB0DFF888430121200002F05EF984
:105100000120FFF7AEFE68462821FEF7A1FD24200E
:10511000089000200290DB480068801D01904FF449
:10512000806007908020059000200390D648009072
:105130004FF480700690002004904FF400500990C6
:105140006A460121200002F0DBF901212000FFF76F
:10515000A6FEFFF7DDFD00220121FFF703FE01009F
:105160000B20FFF7E7FD0B20FFF7D8FD0121200002
:10517000FFF7DDFE00200AB010BD10B5C04C2422A0
:1051800001212000FFF7ABFE01212000FFF787FE81
:10519000B54C2000FFF74CFE2000FFF792FF0022E5
:1051A0000021200000F0E0F8002010BD10B5B44C44
:1051B00001212000FFF783FE2000FFF7A3FE20005F
:1051C000FFF7AEFE2000FFF7A4FEA748FFF735FE6D
:1051D000002010BD38B588B0AC48D0E90023CDE937
:1051E000012303A81421FEF733FDA94800680090AD
:1051F0009F4C200001F0E8FF01212000FFF7C9FECD
:10520000002001904FF48075029501A9200002F062
:105210002FF85FF4602003905FF48010049000206A
:10522000059002200690079503A9200002F03BF8A4
:105230004FF40040FFF78BFE0020009069462000ED
:1052400001F099FF934D2A004FF400712000FFF701
:10525000A9FD032229002000FFF7BFFD8E4D2A0083
:1052600040F205212000FFF79DFD032229002000C8
:10527000FFF7B3FD2000FFF7DBFD2000FFF721FF64
:10528000002009B030BD10B58AB0844C0521200043
:1052900002F094F80220FFF7E4FD68462821FEF7AB
:1052A000D7FC24200890002002907D480068801DD3
:1052B00001904FF4806007908020059000200390BB
:1052C000784800904FF480700690002004904FF4CE
:1052D000005009906A460521200002F011F90521CD
:1052E0002000FFF7DCFDFFF713FD00220121FFF78F
:1052F00039FD01003B20FFF71DFD3B20FFF70EFDB0
:1053000005212000FFF713FE00200AB010BD10B5E4
:10531000624C242205212000FFF7E1FD0521200039
:10532000FFF7BDFD524C2000FFF782FD2000FFF784
:10533000C8FE22000021002000F016F8002010BD59
:1053400010B5564C05212000FFF7B9FD2000FFF7EE
:10535000DCFD2000FFF7E7FD2000FFF7DDFD4448FE
:10536000FFF76BFD002010BD70B506000D001400A6
:10537000002E02D03000FFF76FFD002D02D0280074
:10538000FFF76AFD002C02D02000FFF765FD00202A
:1053900070BD80B5FFF7ACFEFFF737FE002002BD01
:1053A00080B5FFF770FFFFF715FF002002BD80B545
:1053B000FFF7EFFFFFF7F4FF002002BD80B5FFF716
:1053C000CEFDFFF7F4FF02BD10B50400264884426D
:1053D00006D100202B4909680870FFF7CEFE0FE0C8
:1053E0002248844201D100200AE02148844206D1AB
:1053F00000202B4909680870FFF789FF00E00020B2
:1054000010BD10B504001848844208D11D48016839
:105410000978491C00680170FFF7C8FE11E01348C5
:10542000844201D100200CE01148844208D11C487C
:1054300001680978491C00680170FFF781FF00E0EE
:10544000002010BD0CED00E000E100E018ED00E0F0
:1054500000E400E0141002401810024014A60008F6
:1054600004100240001001400024014000280140C7
:10547000003C014004A600085CA600080B003000B8
:1054800000000240000000204C2401400CA600084F
:1054900060A600080C0060000D00900000040240AF
:1054A000040000204C3C0140F8B592B004000026F6
:1054B00009A82421FEF7CCFB68462421FEF7C8FB8F
:1054C000A71D00252800C0B212280FDA388809A9C4
:1054D0002A00D2B221F81200B81C01886A462B00BB
:1054E000DBB222F81310871C6D1CEBE7122109A810
:1054F00002F02CF81221684602F028F8012211214E
:1055000009A802F061F8608001221121684602F0CA
:105510005BF8A080002013B0F0BD38B504000D008A
:105520002900C9B2200001F047FB31BD80B501F070
:10553000B2FB01BD00B500BF13009646944610397A
:1055400028BFA0E80C50FAD85FEA417C28BF0CC005
:1055500048BF40F8042BC90728BF20F8022B48BFDA
:1055600000F8012B00BD000010B50400002C0AD08B
:1055700001F0DDFD002803D1200001F0C4FD02E0B0
:10558000200000F00DF810BD10B50400002C06D06E
:1055900002F04AF8200001F0C4FD02F047F810BD07
:1055A00010B50400002C0AD02000441E002806D0AC
:1055B0004FF47A70FFF7E8FFFEF75EFAF4E710BDEC
:1055C00080B502F05FF801BD80B502F06DF802BD54
:1055D00038B504000D002900200002F086F832BD25
:1055E00038B504000D002900200002F086F832BD15
:1055F00070B504000D001600320029002000C0B272
:1056000002F094F870BD38B504000D0029002000A8
:1056100002F0BCF832BD00002DE9F04F0FF2A41CDF
:10562000A1B0DCE90089CDE900892A9DDFF8DC9B87
:10563000049100248DF843500D944FF0FF388246BA
:1056400016461F460FE0B3462C461BF8011B049874
:10565000D0470028049000F0A2800D98401C641EE2
:105660000D90F2D176193078252808D1002100223A
:105670000791089209910A920B910C920DE06A46EB
:105680004146304602F0C4F8050001D10D98A1E072
:10569000D9D50125E6E741F0010116F8010F2028D0
:1056A000F9D023280CD02B2804D02D2805D0302861
:1056B00009D076E041F00201EFE741F00401ECE7A8
:1056C00041F00801E9E741F01001E6E70F9209E037
:1056D0000F98484505DA00EB800402EB4402303AAB
:1056E0000F92761C3278A2F130000A28F0D330787D
:1056F0002E2818BFCDF8388022D116F8010F2A289D
:1057000007D138683860761C50F8042B38600E9248
:1057100016E02D280CBF761C002000220E920AE015
:1057200040B90E9A4A4505DA02EB820403EB4403C2
:10573000303B0E93761C3378A3F130020A2AEFD364
:10574000ADF8401021A0317802F06CF808B116F8DD
:10575000010B8DF842009DF84200682804D1307892
:1057600068280AD1622105E06C2804BF30786C28D3
:1057700003D171218DF84210761C12A806903A468A
:1057800016F8013B02A9504600F064F838B912AA95
:1057900002A9504600F0C8F900287FF564AF4046E2
:1057A00018E02A2892D13A683A6052F8040B3A601D
:1057B00000280F9003D540420F9041F00401761C61
:1057C00095E700000000000000000000686A6C74AB
:1057D0007A4C000021B0BDE8F08F622820D0682804
:1057E00011D06A2803D06C2827D0712825D10868E9
:1057F000C01D20F007000860D0E9002308300860D1
:10580000194610467047002A0A680A60106803D0DB
:10581000121D0A6000B217E0121D0A6080B217E084
:10582000002A0A680A60106803D0121D0A6040B29C
:105830000AE0121D0A60C0B20AE0002A0A680A6083
:10584000106803D0121D0A60C1177047121D0A604C
:10585000002170477CB50D4611461C462E69B4F1F7
:10586000250200F04F811C3A00F08480121F022AAA
:1058700040F280800E3A00F00981521F59D0093A57
:1058800078D0921E16D0521E35D0521E022A71D9DF
:10589000121F30D0521F00F09880521E49D0521E65
:1058A00000F0E280D21E00F0FF80921E41D0D21E96
:1058B0003FD02DE195F83A406C2C09D06869421C24
:1058C0006A610A680A6052F8043B0A60335429E1AD
:1058D0000A680A6052F8043B0A60009300220192B1
:1058E0004FF0FF332B636A46294600F098F90028F1
:1058F00040F1188103E195F83A000122FFF76DFFAE
:10590000C5E90001002904D56869411C69612D229F
:105910000DE0288F810704D56869411C69612B223D
:1059200005E0C00721D56869411C69612022325415
:105930001BE095F83A000022FFF74FFFC5E9000190
:1059400095F83800010710D5D5E90023002B08BFD2
:10595000002A0AD044F02000782806D16869302156
:105960003154401C421C6A613454214668693044F9
:10597000E86087E00868C01D20F007000860D0E9F3
:10598000002308300860C5E90023D5E90001C80FED
:1059900004D06869411C69612D220DE0288F8107C0
:1059A00004D56869411C69612B2205E0C00704D554
:1059B0006869411C69612022325468693044E8609A
:1059C0002146284600F036FAACE005F13A0250785C
:1059D00020B14FF0FF340FF6043074E010786228E5
:1059E00008D0682824D06A2812D06C282ED07128BC
:1059F0000ED02BE00A680A6052F8040B0A6020B946
:105A00004FF0FF340FF6EC205DE0E96A017089E0A9
:105A10000A680A6052F8040B0A6020B94FF0FF349C
:105A20000FF6D0204FE0EA6AD317C0E9002379E0EF
:105A30000A680A6052F8040B0A6020B94FF0FF347C
:105A40000FF6B0203FE0E96A01806BE00A680A6067
:105A500052F8040B0A6020B94FF0FF340FF694207F
:105A600031E0E96A01605DE00A680A6052F8040BFF
:105A70000A60002120F0000221F0FF33C5E9002375
:105A8000EE607821284600F02DF94BE06C2285F875
:105A90003A200B680B6053F8042B0B6052BB4FF09D
:105AA000FF340FF684200EE095F83A206C2AF0D0EF
:105AB0000868086050F8044B0860EC603CB94FF08F
:105AC000FF340FF6482001F0B9FE201A76BD2E6B88
:105AD000002E04D5204601F0D1FE044608E03246EF
