:020000040800F2
:10000000682D00204501000895610008C12C0008FA
:100010009161000831130008A5C30008000000002A
:10002000000000000000000000000000699E0008C1
:10003000F917000800000000B5670008F59F0008E8
:10004000F9CD00085F0100085F0100085F010008AA
:100050005F010008156A00085F0100085F010008E1
:100060005F0100085F0100085F0100087D170008BC
:100070005F0100085F0100085F0100085F010008E0
:100080005F0100085F0100085F0100085F010008D0
:100090005F0100085F0100085F0100085F010008C0
:1000A0005F0100085F0100085F0100085F010008B0
:1000B0006DA400085F0100085F0100085F010008EF
:1000C0005F0100085F0100085F0100085F01000890
:1000D0005F010008A5A900085F0100085F01000892
:1000E0005F0100085F0100085F0100085F01000870
:1000F0005F0100085F0100085F0100085F01000860
:100100005F0100085F0100085F0100085F0100084F
:100110005F0100085F0100085F0100085F0100083F
:100120005F0100085F0100085F010008B9170008BF
:10013000DFF80CD000F002FC0048004725CE000894
:10014000682D00200648804706480047FEE7FEE786
:10015000FEE7FEE7FEE7FEE7FEE7FEE7FEE7FEE777
:100160000DA40008310100082DE9F05F05460020CC
:1001700092469B4688460646814640241BE0284618
:1001800041464746224600F081FA53465A46C01A75
:10019000914110D311461846224600F068FA2D1AF4
:1001A00067EB01084F4622460120002100F05FFA6C
:1001B00017EB00094E41201EA4F10104DFDC484684
:1001C00031462A464346BDE8F09FD2B201E000F82E
:1001D000012B491EFBD270470022F6E710B51346EB
:1001E0000A4604461946FFF7F0FF204610BDF0B45A
:1001F00080EA0102D40F4200B2EB410F02D2024664
:10020000084611464A0042D0C30DDDB2C1F3C752C1
:10021000AD1A202D35DAC1F3160141F4000204B104
:100220005242C5F1200602FA06F12A411044B3EB0E
:10023000D05F23D0C4B1012DA0EBC35009DCF0BCCA
:100240004FF0004202EAC352DBB200F5000000F0BA
:1002500048BA400000F1807000EBC350A0F18070FC
:1002600040EAD170490009E0490841EAC071A0EBB9
:10027000C35000F50000400800EBC350F0BC00F094
:1002800027BA6142012202EB4101001BF6E7F0BCF4
:10029000704781F00041AAE780F00040A7E780EABC
:1002A000010210B502F00043400022D04A001FD0E6
:1002B000010E01EB1261C0F35600C2F3560240F486
:1002C000000042F40002A0FB022000047F39140465
:1002D00000D0401C50EA124001D44000491EC2B276
:1002E0000C0604EBD010401C4008802A02D003E02A
:1002F000002010BD20F00100002900DA0020184382
:1003000010BD30B480EA010202F0004530F0004236
:1003100021F0004013D090B1C30DD40DC2F31601EB
:10032000C0F31600E41A41F4000140F400027D34E9
:10033000914201D3641C00E04900002C02DA30BC79
:10034000002070474FF400000023914201D3891A26
:10035000034340084FEA4101F7D151B1914202D124
:100360004FF0004105E002D24FF0010101E06FF0D3
:10037000010103EBC450284430BC00F0A9B92DE9B9
:10038000FE4F804681EA0300C00F0C46009021F02A
:10039000004123F00045B8EB0200A94105D24046D8
:1003A000214690461C460B46024623F0004010436F
:1003B00047D0270DC7F30A00C3F30A510290401A31
:1003C000019040286BDAC3F3130040F4801B0098BF
:1003D000924620B10023D2EB030A63EB0B0B01988A
:1003E0005946C0F14002504600F041F906460D461C
:1003F00050465946019A00F059F910EB0800614146
:10040000002487EA115284EAE7731A4340D0009A25
:1004100062B3019A012A4FEA075215DC001B61EB17
:1004200002014FF0004202EA0752CDE90042001CEF
:1004300041F5801132462B4600F090F903B0BDE83B
:10044000F08F40462146F9E7001B61EB0201001CDA
:1004500041F5801300185B412018A2F5001747EB07
:10046000030140EAD570B6196D4111E06D084FEAFD
:10047000360645EAC0754FEA0752001B61EB0201E0
:10048000001C41F5801149084FEA30000019514124
:1004900032462B4603B0BDE8F04F00F050B900984B
:1004A000012240000023D0EB020263EBE0730098CE
:1004B00021464FEAE074B8EB000061EB0401E9E784
:1004C00083F000435BE781F0004158E72DE9F04DF0
:1004D00081EA030404F0004B21F0004514464FF07C
:1004E000000A23F0004150EA050220D054EA01023C
:1004F0001DD0C5F30A570246C5F31303C1F3130019
:10050000C1F30A5640F4801543F48013A7EB0608A4
:10051000101BD64608F2FD3873EB050002D308F134
:10052000010801E092185B41B8F1000F03DA0020E6
:100530000146BDE8F08D00204FF480110646844648
:100540000EE0171B73EB050705D3121B63EB0503C6
:1005500006434CEA010C49084FEA300092185B410F
:1005600050EA0107EDD152EA030012D082EA0400FA
:1005700083EA0501084305D0101BAB4106D20122D6
:10058000002306E000224FF0004302E06FF001027A
:1005900053101AEB06004CEB085110EB0A0041EB2C
:1005A0000B01BDE8F04D00F0CAB8C10F80EAE07061
:1005B0000844CA079623002100F093B8962300222E
:1005C000114600F08EB80EB5C10F80EAE070084405
:1005D000CA07002140F233438DE80E000A460B465D
:1005E00000F0BCF803B000BD20F00040C10DC0F326
:1005F000160040F400007F2901DA00207047962998
:1006000003DCC1F19601C8407047963988407047B5
:10061000C1F30A5210B5C1F3130140F2FF3341F4A4
:1006200080119A4201DA002010BD40F233439A4211
:10063000A2F2334203DC524200F028F810BD904091
:1006400010BD30B50B46014600202022012409E0F0
:1006500021FA02F59D4205D303FA02F5491B04FA7B
:1006600002F52844151EA2F10102F1DC30BD202A5A
:1006700004DB203A00FA02F1002070479140C2F1F9
:10068000200320FA03F3194390407047202A04DB2B
:10069000203A21FA02F00021704721FA02F3D040FB
:1006A000C2F120029140084319467047202A06DB18
:1006B000CB17203A41FA02F043EAE07306E041FA30
:1006C00002F3D040C2F1200291400843194670471E
:1006D0000029A8BF7047401C490008BF20F0010056
:1006E000704710B4B0FA80FC00FA0CF050EA010434
:1006F00004BF10BC704749B1CCF1200421FA04F4C6
:1007000011FA0CF118BF012121430843A3EB0C019E
:10071000CB1D4FEA00614FEA102042BF002010BC01
:10072000704700EBC35010440029A4BF10BC7047B1
:10073000401C490008BF20F0010010BC704710B5F4
:10074000141E73F1000408DA401C41F100019218F4
:100750005B411A4301D120F0010010BD2DE9F04D9D
:1007600092469B4611B1B1FA81F202E0B0FA80F2F2
:1007700020329046FFF77BFF04460F4640EA0A000E
:1007800041EA0B0153465A46084313D0114653EA37
:10079000010019D0C8F140025046FFF777FF054627
:1007A0000E46504659464246FFF761FF084305D0C2
:1007B000012004E020463946BDE8F08D00200543C5
:1007C00046EAE0762C4337430A986305E40AA0EB37
:1007D00008000022FD0A44EA47540A3002D50020EE
:1007E0000146E9E7010510196941DDE908450019ED
:1007F0006941BDE8F04DA2E72DE9FE4F81EA03040F
:1008000004F0004421F0004100944FF0000B23F06D
:10081000004350EA01045ED052EA03045BD0C3F304
:100820000A54C1F30A552C44A4F2F3340194A0FBFA
:100830000254C1F3130141F48011C3F3130343F4D1
:10084000801301FB024400FB034E840A970A44EA2A
:10085000815447EA8357A4FB076802958D0A05FB7C
:1008600007854FEA932C04FB0C542705029D4FEAA1
:10087000065847EA1637B5EB08056EEB070C870EEE
:10088000920E47EA811742EA8312A7FB0201B6EBF8
:100890000B0164EB00042B0D43EA0C335E1844EBB0
:1008A0001C50DA465146E7FB0201C5F313044FEA38
:1008B0000B3343EA14534FEA0432019C43EA060324
:1008C000A4F10C040294009CCDE900B4FFF746FFAC
:1008D00003B0BDE8F08F00200146F9E7C1F30A52EA
:1008E000C1F3130140F2FF3341F480119A4202DA5E
:1008F00000200146704740F233439A42A2F233424D
:1009000002DC5242FFF7C2BEFFF7B1BE30B5041E93
:1009100071F1000404DB4FF00044404264EB01013C
:10092000141E73F1000405DB1C464FF000435242D5
:1009300063EB0403994208BF904230BD064C074D5B
:1009400006E0E06840F0010394E80700984710349F
:10095000AC42F6D3FFF7F0FBB0DC0008D0DC0008B7
:1009600080B582B0014601900198009100F00EFB25
:1009700002B080BD80B582B001460190019800911F
:1009800000F046FB02B080BD80B500F085FB80BD65
:1009900080B582B0014601900198009100F00AFCF8
:1009A00002B080BD80B582B00146019001980091EF
:1009B000FFF7E0FF02B080BD80B5FFF7E5FF80BD27
:1009C00080B58AB00A46034609908DF823100020AE
:1009D0008DF8220042F20040C4F201000792069313
:1009E000FFF7BEFF9DF823100329059008DBFFE702
:1009F00043F60040C4F20100FFF7B2FF0490FFE7A6
:100A0000FFE740F20800C2F200000068007800280A
:100A100001D1FFE7F5E79DF8230003280CDBFFE792
:100A2000FFE740F20C00C2F20000006800780028E6
:100A300001D1FFE7F5E7FFE740F20800C2F200004E
:100A40000068FFF7A5FF9DF823E0BEF1030F0390B8
:100A500009DBFFE740F20C00C2F200000068FFF77C
:100A600097FF0290FFE700208DF82200FFE79DF836
:100A700022009DF8231088423CDAFFE79DF822000F
:100A800001460328019128D80199DFE801F0020B03
:100A9000141D40F20800C2F2000000684088099965
:100AA000088020E040F20800C2F200000068808860
:100AB0000999488017E040F20C00C2F2000000687B
:100AC0004088099988800EE040F20C00C2F20000D4
:100AD000006880880999C88005E009989DF823106E
:100AE000FFF77AFBFFE7FFE79DF8220001308DF862
:100AF0002200BCE700200AB080BD000080B582B0B3
:100B000000F00AF8019000F09FF84FF0000E0090FE
:100B1000704602B080BD000080B592B00020C4F2E3
:100B2000020001210790069103F030FC0699059020
:100B3000084603F0A7F908A828210490FFF74CFB0A
:100B40002420109000200A9040F20801C2F2000117
:100B50000968063109914FF480610F9180210D9150
:100B60000B9042F24C41C4F2010108914FF48071A4
:100B70000E910C904FF40051119107990390084683
:100B80000699049A03F08EFD07990290084606998B
:100B900003F058FD05F07EFC0699039A05F03AFB38
:100BA0000B2101900846019A0091114605F004FDC1
:100BB000009805F0F3FA0798069903F05BFD039897
:100BC00012B080BD80B586B00020C4F202000121C1
:100BD00024220590049103F0E9FD0598049903F09F
:100BE00031FD42F20040C4F20100039002F0EAFF3E
:100BF000039800F06FFB0021039A029010460191C8
:100C0000019A00F03FFB01990090084606B080BDB4
:100C100080B582B00020C4F202000121019003F0EF
:100C2000F9FC019803F016FB019803F063FB0198AF
:100C300003F074FB42F20040C4F2010002F0B6FF80
:100C4000002002B080BD000080B594B00020139059
:100C50001290119010900F900E900D900C9042F207
:100C60000041C4F201010B9008460A9102F022FFF4
:100C70000121DDF828E009907046089100F016FA8D
:100C80000B9912914FF4807ECDF84CE012A90A9A8C
:100C900007901046CDF818E002F0B2FF4FF4602143
:100CA0000D914FF480110E910B990F910222109229
:100CB000069A11920DA9DDF828E00590704602F021
:100CC000DDFF4FF400410490084604F0BFF90B9893
:100CD0000C900CA90A9802F09DFE4FF400710A22B4
:100CE000DDF828E003907046029203F027F80A9896
:100CF0000299089A03F072F840F205210B20C0F225
:100D000030000A9A01901046019A03F017F80A98E9
:100D10000199089A03F062F80A9802F053FF0A98C2
:100D200000F0D8FA0B990090084614B080BD00007E
:100D300080B582B000F00AF8019000F0A1F84FF001
:100D4000000E0090704602B080BD000080B592B0E9
:100D500040F20040C4F2020005210790069103F022
:100D600015FB02210590084603F08CF808A82821FD
:100D70000490FFF731FA2420109000200A9040F2EE
:100D80000C01C2F200010968063109914FF480613B
:100D90000F9180210D910B9043F64C41C4F201015B
:100DA00008914FF480710E910C904FF40051119105
:100DB0000799039008460699049A03F073FC079973
:100DC00002900846069903F03DFC05F063FB012103
:100DD000039A05F01FFA3B2101900846019A009101
:100DE000114605F0E9FB009805F0D8F90798069937
:100DF00003F040FC039812B080BD000080B586B0BF
:100E000040F20040C4F20200052124220590049122
:100E100003F0CCFC0598049903F014FC43F6004061
:100E2000C4F20100039002F0CDFE039800F052FAE4
:100E30000021029008460191039A00F023FA0199DB
:100E40000090084606B080BD80B582B040F20040F8
:100E5000C4F202000521019003F0DCFB019803F0CD
:100E60002BFA019803F050FA019803F061FA43F667
:100E70000040C4F2010002F099FE002002B080BDE3
:100E800080B594B0002013901290119010900F90A4
:100E90000E900D900C9043F60041C4F201010B90AE
:100EA00008460A9102F006FE0121DDF828E00990CB
:100EB000704600F0FBF80B9912914FF4807ECDF84C
:100EC0004CE012A90A9A08901046CDF81CE002F0F6
:100ED00097FE4FF460210D914FF480110E910B9904
:100EE0000F9102221092079A11920DA9DDF828E0C5
:100EF0000690704602F0C2FE4FF40041059008468D
:100F000004F0A4F80B980C900CA90A9802F082FD4A
:100F10004FF400710C22C0F26002DDF828E004906A
:100F20007046039202F00AFF03200A9902900846D5
:100F30000399029A02F052FF40F205210D20C0F2FF
:100F400090000A9A01901046019A02F0F7FE0A9862
:100F50000199029A02F042FF0A9802F033FE0A98C1
:100F600000F0B8F90B990090084614B080BD00005D
:100F700080B582B0FFF7C2FD0190FFF7D9FE4FF0B8
:100F8000000E0090704602B080BD000080B584B0B5
:100F900001460290029842F20042C4F201029042DD
:100FA00001910CD1FFE740F20800C2F20000006896
:100FB00000210170FFF706FE8DF80F0023E0029874
:100FC00042F60001C4F20101884204D1FFE700208B
:100FD0008DF80F0017E0029843F60041C4F20101BA
:100FE00088420CD1FFE740F20C00C2F2000000681A
:100FF00000210170FFF702FF8DF80F0003E00020D1
:101000008DF80F00FFE79DF80F0004B080BD0000D1
:1010100080B584B001460290029842F20042C4F2C8
:101020000102904201910DD1FFE740F20800C2F2A7
:1010300000000068017801310170FFF7E9FD8DF8CB
:101040000F0024E0029842F60001C4F20101884238
:1010500004D1FFE700208DF80F0018E0029843F656
:101060000041C4F2010188420DD1FFE740F20C00BB
:10107000C2F200000068017801310170FFF7E4FE60
:101080008DF80F0003E000208DF80F00FFE79DF8BA
:101090000F0004B080BD000080B582B000F068F899
:1010A0000190FFF765FF02B080BD000080B586B0FB
:1010B0000A46034604908DF80F1004980028029207
:1010C000019304D1FFE701208DF817004BE004984D
:1010D00042F20041C4F20101884210D1FFE79DF8BD
:1010E0000F00002805D0FFE74FF4007002F0CAFFA0
:1010F00004E04FF4007002F085FFFFE7FFE704987B
:1011000042F60001C4F20101884210D1FFE79DF8C8
:101110000F00002805D0FFE74FF4806002F0B2FF17
:1011200004E04FF4806002F06DFFFFE7FFE70498F2
:1011300043F60041C4F20101884210D1FFE79DF857
:101140000F00002805D0FFE74FF4004002F09AFF9F
:1011500004E04FF4004002F055FFFFE7FFE70020F6
:101160008DF81700FFE79DF8170006B080BD00005E
:1011700080B588B041F20000C4F201000121029064
:1011800001F096FC002007900690059004900390D3
:1011900040F60F7103910490079003A9DDF808E071
:1011A0000190704603F0C2FB01990090084608B018
:1011B00080BD000080B5A0B001461F9000208DF8D2
:1011C0007B000DF1560224230A901046099119461E
:1011D0000893FFF701F80DF132000899FEF7FCFFC4
:1011E0001F9806300B900A988DF87B00FFE79DF85A
:1011F0007B0011281DDCFFE70B9800889DF87B1011
:101200000DF1560222F811000B9802300B900B984A
:1012100000889DF87B100DF1320222F811000B9826
:1012200002300B90FFE79DF87B0001308DF87B00CA
:10123000DDE70DF1560012210790069101F056FBF3
:101240000DF1320105900846DDF818E00491714671
:1012500001F04CFB11214FF0010E079A039010464C
:1012600002917246CDF804E000F032FA1F994880EE
:1012700004980299019A00F02BFA1F9988800020A7
:1012800020B080BD80B586B013468C46864605905A
:1012900004910392059800280293CDF804C0CDF87C
:1012A00000E004D0FFE7059802F08CFDFFE704980A
:1012B000002804D0FFE7049802F084FDFFE70398BC
:1012C000002804D0FFE7039802F07CFDFFE7002030
:1012D00006B080BD80B584B0014602900298002817
:1012E00001911CD0FFE70298816841F008018160FC
:1012F000FFE70298806810F0080F01D0FFE7F8E7D9
:10130000029802F0B3FDFFE7029802F0A3FC002868
:1013100001D0FFE7F8E700208DF80F0003E001207F
:101320008DF80F00FFE79DF80F0004B080BD0000AE
:10133000FFE7FEE780B584B00A46034603900291BA
:10134000039802990192009300F084F804B080BDE4
:1013500080B584B00A46034603900291039802992F
:101360000192009300F0A6F804B080BD80B586B06D
:1013700013468C4686468DF8170004910392049913
:10138000039A9DF817000293CDF804C0CDF800E051
:1013900000F0D4F806B080BD80B584B00A4603469C
:1013A00003900291039802990192009300F010F9C2
:1013B00004B080BD80B500F047F980BD80B500F075
:1013C00049F980BD80B584B00A4603460390029176
:1013D0000398029901920093FFF7ACFF04B080BD1F
:1013E00080B584B00A46034603900291039802999F
:1013F00001920093FFF7ACFF04B080BD80B586B0CA
:1014000013468C4686468DF8170004910392049982
:10141000039A9DF817000293CDF804C0CDF800E0C0
:10142000FFF7A4FF06B080BD80B584B00A4603462E
:10143000039002910398029901920093FFF7ACFF89
:1014400004B080BD80B5FFF7B5FF80BD80B5FFF764
:10145000B5FF80BD86B00A46034605900491002082
:10146000ADF80C00029001920093FFE702980499F6
:1014700088421BD2FFE79DF80D000599029A895C0E
:1014800048408DF80F00BDF80C009DF80F104DF688
:101490001E02C0F6000232F8111081EA0020ADF8F9
:1014A0000C00FFE7029801300290DFE7BDF80C0066
:1014B00006B0704780B584B00A4603460390029197
:1014C000039802990192009300F002F804B080BDE5
:1014D00080B588B00A460346079006910020059023
:1014E000049003920293019000F020F80198059077
:1014F000FFE705980699884210D2FFE707980599FB
:10150000405C0490049943F20000C4F2020002F02F
:1015100063FEFFE7059801300590EAE743F200001B
:10152000C4F2020002F064FE08B080BD80B543F250
:101530000000C4F2020002F06DFE80BD80B589B0EB
:1015400013468C4686468DF82300079106920020AC
:101550008DF8160004900393CDF808C0CDF804E090
:10156000FFE70498069988422DD2FFE79DF8160000
:101570000799049A895C48408DF817009DF823006C
:1015800001460728009104D0FFE7009831280AD0CF
:1015900013E09DF817004DF61E21C0F60001085C0F
:1015A0008DF816000AE09DF817004DF61E31C0F6C2
:1015B0000001085C8DF8160000E0FFE7FFE70498E3
:1015C00001300490CDE79DF8160009B080BD000001
:1015D00086B00A46034605900491002003908DF8DA
:1015E0000B00039001920093FFE70398049988424F
:1015F0000DD2FFE705980399405C9DF80B10084455
:101600008DF80B00FFE7039801300390EDE79DF89C
:101610000B00C0F580708DF80B009DF80B0006B034
:101620007047000080B582B043F20000C4F20200AF
:1016300002F0B4FD40F2040EC2F2000E01218EF859
:101640000010019002B080BD40F20400C2F2000020
:101650000078704780B5FFF7E5FF402002F026FCD8
:1016600040F20400C2F200004FF0000E80F800E0EB
:1016700080BD000080B500F00DF880BD80B500F0A1
:1016800017F880BD80B5FFF7F5FF80BD80B5FFF787
:10169000F5FF80BD80B503F071FC002807D0FFE79F
:1016A00003F05AFC03F0FEFB03F0DEFBFFE780BD16
:1016B00080B503F06BFC002809D0FFE703F0E8FBDE
:1016C00003F0DCFB0BF0AAFB05F060F8FFE780BD40
:1016D00080B58EB013468C4686460D90ADF832101C
:1016E000ADF8302000200B900A90ADF82600BDF830
:1016F0003000ADF826000893CDF81CC0CDF818E0F6
:10170000FFE7BDF82600BDF8321088421BDAFFE77C
:101710000D98BDF8261030F81100FEF754FFDDF8E3
:1017200028E00B9A0590704604911146059A049B97
:10173000FEF725FE0B910A90FFE7BDF82600013069
:10174000ADF82600DDE70A980B99BDF83220BDF808
:101750003030D21A039010460291FEF734FF039AFC
:1017600001901046029B00911946019A009BFEF7DA
:10177000ADFEFEF74DFF0EB080BD000080B582B01B
:101780000020C4F2020002F0C1FF002811D0FFE7E0
:101790000020C4F20200012102F0CCFF002808D092
:1017A000FFE742F20040C4F20100FFF7FBF80190AE
:1017B000FFE702B080BD000080B582B040F200407B
:1017C000C4F2020002F0ACFF002812D0FFE740F2A2
:1017D0000040C4F20200052102F0ACFF002808D04E
:1017E000FFE743F60040C4F20100FFF7DBF8019089
:1017F000FFE702B080BD00007047000080B582B0F6
:1018000001468DF807009DF80700009100F054F89C
:1018100002B080BD80B500F07FF980BD80B500F0DA
:10182000B1FC80BD80B500F083FD80BD80B500F0C7
:101830008BFD80BD80B500F06BFF80BD80B500F0F2
:1018400093FF80BD80B500F095FF80BD80B582B06C
:1018500001468DF807009DF807000091FFF7CEFFC5
:1018600002B080BD80B5FFF7D5FF80BD80B5FFF722
:10187000D5FF80BD80B5FFF7D5FF80BD80B5FFF7F0
:10188000D5FF80BD80B582B001468DF807009DF878
:1018900007000091FFF7DAFF00F002F802B080BD08
:1018A00080B5FFF7C7FF80BD80B5FFF7C7FF80BDDC
:1018B00080B5FFF7C7FF80BD82B001468DF80700F5
:1018C00000208DF806000091FFE79DF80600032830
:1018D00024DCFFE79DF80700C007002809D0FFE7D8
:1018E0009DF8060040F64661C2F2000101220A544A
:1018F00008E09DF8060040F64661C2F200010022B1
:101900000A54FFE79DF8070040088DF80700FFE73D
:101910009DF8060001308DF80600D6E702B070474A
:1019200083B00A460346ADF80A00ADF80810BDF8CA
:10193000080000280192009301D0FFE700E0FFE7D4
:1019400003B0704783B001468DF80B000020019072
:101950009DF80B0040F6A862C2F2000252F8200087
:10196000002800911FD0FFE79DF80B0040F6A8610A
:10197000C2F2000151F820009DF80B1040F6C86239
:10198000C2F2000252F821104CF2503200FB021059
:101990009DF80B1040F66462C2F2000252F821106A
:1019A000401A019012E09DF80B0040F6C861C2F2A7
:1019B000000151F820009DF80B1040F66462C2F25D
:1019C000000252F82110401A0190FFE7019803B07D
:1019D0007047000083B001468DF80B000020019095
:1019E0009DF80B0040F6A862C2F2000252F82000F7
:1019F000002800911FD0FFE79DF80B0040F6A8617A
:101A0000C2F2000151F820009DF80B1040F664620C
:101A1000C2F2000252F821104CF2503200FB0210C8
:101A20009DF80B1040F6C862C2F2000252F8211075
:101A3000401A019012E09DF80B0040F66461C2F27A
:101A4000000151F820009DF80B1040F6C862C2F268
:101A5000000252F82110401A0190FFE7019803B0EC
:101A60007047000080B584B00A46034603908DF8A5
:101A70000B109DF80B0040F69861C2F200014FF088
:101A8000000C41F820C003994FF080400192009370
:101A900003F08EFD00281FD0FFE79DF80B0040F6F5
:101AA0005461C2F2000151F820009DF80B1040F67D
:101AB0006462C2F2000242F821009DF80B0040F679
:101AC0007461C2F2000101220A5403994FF0804070
:101AD000002203F0CDFE1DE09DF80B0040F654619E
:101AE000C2F2000151F820009DF80B1040F6C862C8
:101AF000C2F2000242F821009DF80B0040F674612A
:101B0000C2F2000102220A5403994FF0804003F010
:101B1000AFFEFFE704B080BD80B582B040F6004064
:101B2000C4F201001021C0F21041019002F0B4FF94
:101B30002021C0F22041019802F0AEFF4021C0F206
:101B40004041019802F0A8FF0821C0F20841019825
:101B500002F0A2FF40F64660C2F2000000210160E0
:101B600000F002FE02B080BD80B590B040F60000EB
:101B7000C4F2010001210A90099100F099FF0A982E
:101B8000099900F095FF0A98099900F091FF0A98C9
:101B9000099900F08DFF00200F900E900D900C9091
:101BA0000B9008210C9103210D910E900F9040F2A3
:101BB00001100B900BA9DDF828E008907046079102
:101BC00002F0B4FE0A9906900846089902F064FFF4
:101BD00040F202200B900A9905900846079902F0FE
:101BE000A5FE0A9904900846059902F055FF40F2B7
:101BF00004400B900A9903900846079902F096FE5C
:101C00000A9902900846039902F046FF40F6080040
:101C10000B900A9901900846079902F087FE0A99ED
:101C200000900846019902F037FF10B080BD000017
:101C300080B584B00A4603468DF80F008DF80E106B
:101C40009DF80F00014603280292019300916CD881
:101C50000099DFE801F0021C36509DF80E000028C4
:101C60000AD0FFE740F60040C4F201001021C0F2A4
:101C7000104102F073FF09E040F60040C4F2010099
:101C80001021C0F2104102F007FFFFE74EE09DF87F
:101C90000E0000280AD0FFE740F60040C4F2010021
:101CA0002021C0F2204102F059FF09E040F6004037
:101CB000C4F201002021C0F2204102F0EDFEFFE756
:101CC00034E09DF80E0000280AD0FFE740F60040FF
:101CD000C4F201004021C0F2404102F03FFF09E0A0
:101CE00040F60040C4F201004021C0F2404102F041
:101CF000D3FEFFE71AE09DF80E0000280AD0FFE7A8
:101D000040F60040C4F201000821C0F2084102F090
:101D100025FF09E040F60040C4F201000821C0F2AE
:101D2000084102F0B9FEFFE700E0FFE704B080BD24
:101D300080B590B040F60040C4F2010001210A9045
:101D4000099100F0B5FE0A98099900F0B1FE0A98D1
:101D5000099900F0ADFE0A98099900F0A9FE00204B
:101D60000F900E900D900C900B9009990C910D9185
:101D70000E900F911020C0F210400B900DF12C0E20
:101D80000A9A089010467146CDF81CE002F0CEFD8C
:101D90000A9906900846089902F07EFE2020C0F2BB
:101DA00020400B900A9905900846079902F0BEFD65
:101DB0000A9904900846059902F06EFE4020C0F290
:101DC00040400B900A9903900846079902F0AEFD37
:101DD0000A9902900846039902F05EFE0820C0F2BC
:101DE00008400B900A9901900846079902F09EFD61
:101DF0000A9900900846019902F04EFE10B080BD8D
:101E000080B590B041F60000C4F2010001210A90B3
:101E1000099100F04DFE0A98099900F049FE41F23F
:101E20000040C4F201000890099900F041FE0898B2
:101E3000099900F03DFE00200F900E900D900C903F
:101E40000B9009980C900D9004210E910F90022197
:101E5000C0F202410B910DF12C0E0A9807917146C8
:101E6000CDF818E002F062FD0A990590084607993E
:101E700002F074FE40F201100B900A99049008469B
:101E8000069902F053FD0A9903900846049902F05E
:101E900065FE40F202200B900899029008460699D0
:101EA00002F044FD089901900846029902F056FE9E
:101EB00007980B900898069902F038FD0899009051
:101EC0000846079902F04AFE10B080BD80B592B076
:101ED00041F60000C4F2010001210C900B9100F0CA
:101EE000E7FD40F60040C4F201000A900B9900F0B3
:101EF000DFFD41F20040C4F2010009900B9900F0AF
:101F0000D7FD09980B9900F0D3FD00201190109097
:101F10000F900E900D900B980E900F900421109141
:101F200011900121C0F201410D910DF1340E0C9878
:101F300008917146CDF81CE002F0F8FC0C9906906F
:101F40000846089902F00AFE0220C0F202400D90F5
:101F50000A9905900846079902F0E8FC0A9904904E
:101F60000846059902F0FAFD40F201100D9009991A
:101F700003900846079902F0D9FC09990290084697
:101F8000039902F0EBFD08980D900998079902F06B
:101F9000CDFC099901900846089902F0DFFD12B0C6
:101FA00080BD000080B596B04FF0804001210C90BC
:101FB0000B9108F07FFA0020159014901390129066
:101FC000119010900F900E900D900C990A90084669
:101FD00003F000F94CF25031139140F20001C2F2CB
:101FE000000109684DF6836EC4F21B3EA1FB0E1E74
:101FF0004FF0FF3202EB9E42ADF844200A9A149251
:1020000012928DF854200DF1440E0C9B0990184645
:102010000891714603F0E4FC0C990790084603F020
:10202000D7F90C980A9903F0E9FD0C980A9903F086
:102030004BFE0C9803F008FA4FF480300E900A988B
:102040000F900D904FF4000110910DA90C980B9A70
:1020500006911146069A03F0FDFA10210C9A05909C
:102060001046069A03F0F6FA4FF480710C9A049029
:102070001046069A03F0EEFA4FF480510C9A039042
:102080001046069A03F0E6FA029004F013FA0A9951
:102090000A9A04F03FF91C2101900846019A009128
:1020A000114604F0CDFA009804F08CF80C9803F077
:1020B00055F80C9803F004FA0C9803F00DFA0C98FC
:1020C00003F016FA0C9803F01FFA0C9803F028FAA4
:1020D0000C9803F0DDF916B080BD000080B582B029
:1020E00000208DF8070041F60000C4F20100012134
:1020F000C0F2014102F080FC002807D1FFE79DF803
:10210000070040F001008DF80700FFE740F60040AF
:10211000C4F201000221C0F2024102F06DFC00286D
:1021200007D1FFE79DF8070040F002008DF8070097
:10213000FFE741F20040C4F2010040F2011102F059
:102140005BFC002807D1FFE79DF8070040F0040082
:102150008DF80700FFE741F20040C4F201000121C1
:10216000C0F2014102F048FC002807D1FFE79DF8CA
:10217000070040F008008DF80700FFE79DF8070012
:1021800002B080BD80B586B000208DF817004FF0FA
:10219000804003F01DFD002838D0FFE700208DF8B7
:1021A0001700FFE79DF8170003282ADCFFE79DF8DA
:1021B000170040F69861C2F2000151F8200041F288
:1021C000873188420CD8FFE79DF8170040F69861E8
:1021D000C2F2000151F82020013241F8202009E02C
:1021E0009DF8170040F69861C2F20001002241F804
:1021F0002020FFE7FFE79DF8170001308DF817005A
:10220000D0E74FF0804002F0DBFF8EE04FF08040DF
:1022100003F0B6FC00281CD0FFE740F69860C2F23D
:102220000000006840F6A861C2F2000108604FF0AB
:102230008040049003F09CF940F65461C2F2000122
:10224000086001200021FFF70DFC049802F090FFC8
:10225000FFE74FF0804003F09DFC00281CD0FFE713
:1022600040F69860C2F20000406840F6A861C2F2F1
:10227000000148604FF08040039003F081F940F680
:102280005461C2F20001486010200121FFF7EAFB0F
:10229000039802F077FFFFE74FF0804003F084FCE3
:1022A00000281DD0FFE740F69860C2F20000806869
:1022B00040F6A861C2F2000188604FF080400290B1
:1022C00003F066F940F65461C2F2000188604FF4F1
:1022D00080700221FFF7C6FB029802F05DFFFFE766
:1022E0004FF0804003F06AFC00281DD0FFE740F665
:1022F0009860C2F20000C06840F6A861C2F2000116
:10230000C8604FF08040019003F04AF940F65461F4
:10231000C2F20001C8604FF480500321FFF7A2FB16
:10232000019802F043FFFFE7FFE706B080BD000021
:1023300080B5FFF7FDFCFFF7C9FDFFF715FCFFF7C0
:102340005FFDFFF72FFE80BD80B586B000200590B1
:102350008DF81300FFE79DF81300032800F3D581E3
:10236000FFE79DF8130040F64661C2F20001085CE9
:10237000012840F0C381FFE79DF8130040F6C861D3
:10238000C2F2000151F820009DF8131040F664627B
:10239000C2F2000252F8211088420AD2FFE79DF8EB
:1023A000130040F6C861C2F2000151F8200003900A
:1023B00009E09DF8130040F66461C2F2000151F893
:1023C00020000390FFE703989DF8131040F6786211
:1023D000C2F2000242F821004FF0804003F0B8F84A
:1023E0009DF8131040F68862C2F2000242F8210004
:1023F0009DF8130040F69861C2F2000151F82000E8
:10240000002816D0FFE79DF8130040F69861C2F24D
:10241000000151F820004CF2503148439DF8131050
:1024200040F67862C2F2000252F82110401A02907F
:1024300010E09DF8130040F68861C2F2000151F8E7
:10244000201040F67862C2F2000252F82000081A0A
:102450000290FFE7029805909DF8130040F6D861BE
:10246000C2F20001085C01460428019100F23C819F
:102470000199DFE811F0050022003900AA003801B7
:102480009DF8130040F6D861C2F2000101220A54FF
:102490009DF8130040F67461C2F2000100220A5454
:1024A0009DF8130040F6B861C2F2000141F8202007
:1024B0009DF8130000F076F91FE19DF8130040F637
:1024C0004A61C2F20001002221F810209DF8130099
:1024D00040F6D861C2F2000102230B549DF81300AC
:1024E0001146FFF7A5FB08E19DF8130040F6746163
:1024F000C2F20001085C00F00300022841D1FFE7AE
:102500009DF81300FFF71EFA9DF813E040F6B8613E
:10251000C2F2000141F82E009DF8130040F6746EDF
:10252000C2F2000E00220EF800209DF8130051F8B0
:102530002000B0F5C87F1AD9FFE79DF8130040F6D8
:10254000B861C2F2000151F82000C0084A280ED834
:10255000FFE79DF8130040F6D861C2F200010322A4
:102560000A549DF813000121FFF7DAF908E09DF8FD
:10257000130040F6D861C2F2000101220A54FFE7BD
:1025800022E09DF8130040F6B861C2F2000151F854
:102590002000002817D0FFE705989DF8131040F69B
:1025A000B862C2F2000252F821102322514388423D
:1025B00009D9FFE79DF8130040F6D861C2F2000187
:1025C00000220A54FFE7FFE797E09DF8130040F66A
:1025D0007461C2F20001085C00F0030001285ED1C2
:1025E000FFE79DF81300FFF7F5F99DF813E040F6BB
:1025F000B861C2F2000141F82E009DF8130040F6C8
:10260000746EC2F2000E00220EF800209DF8130036
:1026100051F82000B0F5C87F37D9FFE79DF81300C7
:1026200040F6B861C2F2000151F82000C0084A2803
:102630002BD8FFE79DF8130040F6D861C2F20001E5
:1026400002220A549DF813000021FFF769F99DF852
:10265000130040F64A61C2F2000131F810004F2821
:102660000CDCFFE79DF8130040F64A61C2F200015E
:1026700031F81020013221F8102005E09DF81300F8
:102680000121FFF7D5FAFFE708E09DF8130040F6B7
:10269000D861C2F2000101220A54FFE722E09DF84E
:1026A000130040F6B861C2F2000151F82000002882
:1026B00017D0FFE705989DF8131040F6B862C2F2F4
:1026C000000252F8211023225143884209D9FFE722
:1026D0009DF8130040F6D861C2F2000100220A54AE
:1026E000FFE7FFE709E0FFE79DF8130040F6D86138
:1026F000C2F2000100220A54FFE7FFE7FFE79DF85E
:10270000130001308DF8130025E606B080BD0000EF
:1027100080B582B040F60040C4F201001021C0F242
:102720001041019002F0B8F92021C0F22041019837
:1027300002F0B2F94021C0F24041019802F0ACF938
:102740000821C0F20841019802F0A6F94FF080403C
:10275000009002F003FD0021009803F073FA009846
:1027600002F096FE02B080BD80B54FF0804002F0CE
:102770003BFE80BD80B582B0FFF7B0FC8DF807004E
:102780009DF80700002808D0FFE70A2000F080F835
:10279000FFF7A4FC8DF80700FFE79DF8070002B0E3
:1027A00080BD000080B584B001468DF80F009DF813
:1027B0000F00024603280291019222D80199DFE816
:1027C00001F0020910184FF080400121002203F0AF
:1027D0004FF817E04FF080401021002203F048F836
:1027E00010E04FF080404FF48071002203F040F879
:1027F00008E04FF080404FF48051002203F038F899
:1028000000E0FFE704B080BD80B582B001460190D2
:102810000198009100F050F802B080BD80B582B000
:10282000014601900198009100F01EF802B080BDB1
:1028300080B584B00146039003980028029110D01F
:10284000FFE7FFE70398411E0391002808D0FFE748
:102850004FF47A7000F008F800F038FD0190F1E7CD
:10286000FFE704B080BD000080B584B0014603904E
:1028700003980028029109D0FFE70AF0CFFA0398E5
:1028800007F046FB01900AF0CBFAFFE704B080BDE9
:1028900080B582B00146019001980091FFF7B4FF26
:1028A00002B080BD80B582B00146019001980091D0
:1028B000FFF7B4FF02B080BD80B584B0014603903D
:1028C0000398002802910FD0FFE707F0FDFA0028D7
:1028D00005D1FFE7039807F009FB019003E0039897
:1028E000FFF7A6FFFFE7FFE704B080BD86B00A460A
:1028F00003460590ADF812100020ADF81000ADF8B9
:102900000E00BDF812100139ADF80C10ADF8100032
:1029100001920093FFE7BDF81000BDF80C1088424B
:102920003FDAFFE70020ADF80E00FFE7BDF80E002C
:10293000BDF80C10BDF81020891A88422ADAFFE78A
:102940000598BDF80E1000EB410230F811005188D7
:10295000884218DAFFE70598BDF80E1000EB410039
:102960004088ADF80A000598BDF80E1000EB410252
:1029700030F811005080BDF80A000599BDF80E200E
:1029800021F81200FFE7FFE7BDF80E000130ADF8B7
:102990000E00CBE7FFE7BDF810000130ADF81000E6
:1029A000B9E7002006B0704780B500F005F880BD9B
:1029B00080B5FFF7F9FF80BD80B540F68471C2F2A3
:1029C00000014FF60000C0F60F004FF4806200F0E7
:1029D00017F880BD80B586B013468C4686460590B4
:1029E0000491ADF80E2005980499BDF80E200293CD
:1029F000CDF804C0CDF800E000F018F806B080BDB6
:102A000080B586B013468C46864605900491ADF895
:102A10000E2005980499BDF80E200293CDF804C04D
:102A2000CDF800E0FFF7D6FF06B080BD80B586B0D8
:102A300013468C46864605900491ADF80E20002082
:102A4000ADF80C000293CDF804C0CDF800E0FFE72C
:102A5000BDF80C00BDF80E10884213DAFFE70598A8
:102A600001F028FFDDF810E0BDF80C102EF8110081
:102A7000059802300590FFE7BDF80C000130ADF875
:102A80000C00E5E706B080BD80B584B00A46034679
:102A900003908DF80B1003989DF80B100192009392
:102AA00000F01AF804B080BD80B500F0BDF880BD1C
:102AB00080B584B00A46034603908DF80B10039846
:102AC0009DF80B1001920093FFF7DEFF04B080BD6C
:102AD00080B5FFF7E9FF80BD80B584B00A460346A4
:102AE00003908DF80B10039840F60001C4F2010129
:102AF0008842019200930ED1FFE79DF80B00002859
:102B000004D0FFE7042001F0D1FA03E0042001F033
:102B100089FAFFE785E0039840F60041C4F201011D
:102B200088420ED1FFE79DF80B00002804D0FFE794
:102B3000082001F0BBFA03E0082001F073FAFFE778
:102B40006FE0039841F20001C4F2010188420ED106
:102B5000FFE79DF80B00002804D0FFE7102001F0EC
:102B6000A5FA03E0102001F05DFAFFE759E00398B1
:102B700041F20041C4F2010188420ED1FFE79DF805
:102B80000B00002804D0FFE7202001F08FFA03E0BB
:102B9000202001F047FAFFE743E0039841F60001E7
:102BA000C4F2010188420ED1FFE79DF80B00002816
:102BB00004D0FFE7402001F079FA03E0402001F063
:102BC00031FAFFE72DE0039841F60041C4F201011C
:102BD00088420ED1FFE79DF80B00002804D0FFE7E4
:102BE000802001F063FA03E0802001F01BFAFFE788
:102BF00017E0039842F20001C4F20101884210D1AB
:102C0000FFE79DF80B00002805D0FFE74FF4807028
:102C100001F04CFA04E04FF4807001F003FAFFE792
:102C2000FFE704B080BD000080B582B040F6000030
:102C3000C4F2010001210191FFF74EFF40F6004070
:102C4000C4F201000199FFF747FF41F20000C4F20E
:102C500001000199FFF740FF41F20040C4F201007A
:102C60000199FFF739FF41F60000C4F20100019914
:102C7000FFF732FF41F60040C4F201000199FFF76F
:102C80002BFF42F20000C4F201000199FFF724FF7C
:102C9000019801F00BFA01F031FE01F03BFE02B0A9
:102CA00080BD000040F22400C2F20000006841F63E
:102CB0006451C2F200010A681044086070470000C5
:102CC000FFE7FEE780B584B00A4603460390029111
:102CD000039802990192009300F092F804B080BD2D
:102CE00080B582B0014601900198009100F0DEF8B5
:102CF00002B080BD80B586B00A46034605908DF8C7
:102D0000131005980392029300F00EF99DF813102A
:102D10000029019006D0FFE70598C18A01F0FE0165
:102D2000C18205E00598C18A41F00101C182FFE737
:102D30000598817D00F0DCF905990090084600F0C7
:102D4000B5F806B080BD000080B582B001460190A4
:102D50000198009100F03AF902B080BD80B584B0CE
:102D60000A46034603908DF80B1003989DF80B104C
:102D70000192009300F0BCF904B080BD80B584B02E
:102D80000A46034603900291039802990192009328
:102D9000FFF798FF04B080BD80B582B00146019076
:102DA00001980091FFF79CFF02B080BD80B584B010
:102DB0000A46034603908DF80B1003989DF80B10FC
:102DC00001920093FFF796FF04B080BD80B582B0FA
:102DD0000146019001980091FFF7B6FF02B080BD57
:102DE00080B584B00A46034603908DF80B10039813
:102DF0009DF80B1001920093FFF7B0FF04B080BD67
:102E000080B590B00A4603460F900E910F98406827
:102E10000121089107920693FFF74AFE0F988068F8
:102E20000899FFF745FE0F984168C068059008466D
:102E3000059901F0A1FE0F98816800690490084689
:102E4000049901F099FE00200D900C900B900A90CF
:102E500009900F98C068099008980A9002210B9178
:102E600004210C910D900F99486809A9039101F074
:102E70005DFD0F99096909910F99896802900846CB
:102E8000039901F053FD0E990029019004D0FFE74A
:102E90000E980F99C86106E00F9842F6A501C0F69A
:102EA0000001C161FFE7002010B080BD80B588B08F
:102EB0000146079000208DF81B0007988268006982
:102EC00005901046059A0491114601F055FE0798A9
:102ED0004168C06803900846039901F04DFE0798C9
:102EE000C069002805D0FFE70798C169407D884781
:102EF000FFE707988168006902900846029901F08F
:102F00008FFD002804D0FFE701208DF81B00FFE7AC
:102F100007984168C06801900846019901F0CAFD10
:102F20009DF81B0008B080BD80B588B001460690B2
:102F300006988268006905901046059A049111462A
:102F400001F01AFE06984168C0680390084603998C
:102F500001F012FE0698C069002805D0FFE7069828
:102F6000C169407D8847FFE7069881680069029043
:102F70000846029901F09EFD0698C069002805D018
:102F8000FFE70698C169407D8847FFE706984168DA
:102F9000C06801900846019901F08CFD069881688F
:102FA000006900900846009901F03AFD002804D01D
:102FB000FFE701208DF81F0003E000208DF81F00BF
:102FC000FFE79DF81F0008B080BD000080B588B005
:102FD0000146069006988268006905901046059A99
:102FE0000491114601F066FD06984168C06803909F
:102FF0000846039901F0C0FD0698C069002805D075
:10300000FFE70698C169407D8847FFE70698816819
:10301000006902900846029901F0AEFD0698C06969
:10302000002805D0FFE70698C169407D8847FFE783
:1030300006988168006901900846019901F0F0FC4A
:10304000002804D1FFE701208DF81F0003E00020D5
:103050008DF81F00FFE79DF81F0008B080BD00003D
:1030600080B588B00A46034607908DF81B109DF87E
:103070001B00000600280592049309D5FFE7079876
:103080008168006903900846039901F075FD08E026
:1030900007988168006902900846029901F00AFDCC
:1030A000FFE707984168C06801900846019901F060
:1030B00063FD0798C069002805D0FFE70798C1693C
:1030C000407D8847FFE707984168C0680090084640
:1030D000009901F0EFFC0798C069002805D0FFE7D0
:1030E0000798C169407D8847FFE7002008B080BD90
:1030F00080B586B00A46034605908DF8131000206F
:103100008DF812000599D1F804C0C9680390604693
:103110000292019301F0CEFC03988DF81200FFE7B4
:103120009DF81200072812DCFFE705989DF81310A0
:10313000FFF796FF9DF8131049008DF813100090CB
:10314000FFE79DF8120001308DF81200E8E700203B
:1031500006B080BD80B584B00A4603460390029154
:103160000398016A21F0010101620398806920F04F
:10317000FF000299D1F804C0D1F808E0C96841EA1B
:103180000C0141EA0E0140EA11400399886103985D
:10319000006A20F00B0002990968084340F0010022
:1031A0000399086201200192009304B080BD0000E1
:1031B00080B584B00A460346039002910398016AE1
:1031C00021F0100101620398806920F47F40029988
:1031D000D1F804C0D1F808E0C96841EA0C0141EA1D
:1031E0000E0140EA1120039988610398006A20F0DB
:1031F000B0000299096840EA011040F010000399FC
:10320000086201200192009304B080BD80B584B0B3
:103210000A460346039002910398016A21F48071E3
:1032200001620398C06920F0FF000299D1F804C040
:10323000D1F808E0C96841EA0C0141EA0E0140EA10
:1032400011400399C8610398006A20F43060029924
:10325000096840EA012040F4807003990862012067
:103260000192009304B080BD80B584B00A46034645
:10327000039002910398016A21F48051016203983E
:10328000C06920F47F400299D1F804C0D1F808E069
:10329000C96841EA0C0141EA0E0140EA1120039994
:1032A000C8610398006A20F440500299096840EA16
:1032B000013040F48050039908620120019200938C
:1032C00004B080BD80B500F005F880BD80B5FFF783
:1032D000F9FF80BD80B543F20000C4F2000001F0A8
:1032E00095FD002080BD000080B582B001468DF8BC
:1032F00007009DF80700009100F076F802B080BD4D
:1033000080B582B001468DF807009DF80700009156
:1033100000F08CF802B080BD80B582B001468DF817
:1033200007009DF80700009100F0A0F802B080BDF2
:1033300080B582B001468DF807009DF80700009126
:1033400000F0B4F802B080BD80B500F09DF980BDFA
:1033500080B500F0D3F980BD80B500F045FA80BD9E
:1033600080B500F0AFFA80BD80B582B001468DF81F
:1033700007009DF807000091FFF7B6FF02B080BD7F
:1033800080B582B001468DF807009DF807000091D6
:10339000FFF7B6FF02B080BD80B582B001468DF860
:1033A00007009DF807000091FFF7B6FF02B080BD4F
:1033B00080B582B001468DF807009DF807000091A6
:1033C000FFF7B6FF02B080BD80B5FFF7BDFF80BD3F
:1033D00080B5FFF7BDFF80BD80B5FFF7BDFF80BDA5
:1033E00080B5FFF7BDFF80BD80B582B001468DF886
:1033F00007009DF80700002800910AD1FFE741F679
:103400000000C4F201000221C0F2024101F060FBA1
:1034100009E041F60000C4F201000221C0F20241BD
:1034200001F0B8FBFFE702B080BD000080B582B0BC
:1034300001468DF807009DF807000028009109D18A
:10344000FFE741F60000C4F2010040F2011101F073
:103450003FFB08E041F60000C4F2010040F2011118
:1034600001F098FBFFE702B080BD000080B582B09C
:1034700001468DF807009DF807000028009109D14A
:10348000FFE741F20040C4F2010040F2022101F0E6
:103490001FFB08E041F20040C4F2010040F20221AB
:1034A00001F078FBFFE702B080BD000080B582B07C
:1034B00001468DF807009DF80700002800910AD109
:1034C000FFE741F20040C4F201000221C0F20241D4
:1034D00001F0FEFA09E041F20040C4F201000221CD
:1034E000C0F2024101F056FBFFE702B080BD0000D0
:1034F00080B590B041F60000C4F2010001210A90AD
:103500000991FFF7D5FA0A980999FFF7D1FA41F224
:103510000040C4F2010008900999FFF7C9FA089821
:103520000999FFF7C5FA00200F900E900D900C90AE
:103530000B9009980C900D9004210E910F90022190
:10354000C0F202410B910DF12C0E0A9807917146C1
:10355000CDF818E001F0EAF90A99059008460799B4
:1035600001F018FB40F201100B900A9904900846F4
:10357000069901F0DBF90A9903900846049901F0D5
:1035800009FB40F202200B90089902900846069928
:1035900001F0CCF9089901900846029901F0FAFA75
:1035A00007980B900898069901F0C0F908990090C7
:1035B0000846079901F0EEFA10B080BD80B590B0D2
:1035C00041F60000C4F2010001210A900991FFF7C1
:1035D0006FFA0A980999FFF76BFA41F20040C4F2BA
:1035E000010008900999FFF763FA08980999FFF715
:1035F0005FFA00200F900E900D900C900B900998A0
:103600000C900D9004210E910F900421C0F2044102
:103610000B910DF12C0E0A9807917146CDF818E028
:1036200001F084F90A9905900846079901F0B2FA69
:1036300040F202200B900A9904900846069901F086
:1036400075F90A9903900846049901F0A3FA40F22B
:1036500004400B90089902900846069901F066F91B
:10366000089901900846029901F094FA07980B9086
:103670000898069901F05AF90899009008460799A8
:1036800001F088FA10B080BD80B586B041F6000028
:10369000C4F201000421C0F204410590049101F03C
:1036A00079FA40F20220059903900846039901F047
:1036B00071FA41F20040C4F2010040F2044102906C
:1036C00001F068FA0298049901F064FA0220C0F24D
:1036D0000240059901900846019901F05BFA40F219
:1036E0000111059801F056FA0298039901F052FA77
:1036F0000298019901F04EFA06B080BD80B584B001
:1037000041F60000C4F201000421C0F2044103901C
:10371000029101F0DDF940F20221039801F0D8F99D
:1037200041F20040C4F2010040F20441019001F076
:10373000CFF90198029901F0CBF904B080BD0000E7
:1037400080B582B000208DF8070041F60000C4F279
:1037500001000821C0F2084101F076F9002807D1E4
:10376000FFE79DF8070040F001008DF80700FFE734
:1037700041F60000C4F2010040F2044101F064F996
:10378000002807D1FFE79DF8070040F002008DF800
:103790000700FFE741F20040C4F2010040F60801D3
:1037A00001F052F9002807D1FFE79DF8070040F02B
:1037B00004008DF80700FFE741F20040C4F2010069
:1037C0000821C0F2084101F03FF9002807D1FFE7C6
:1037D0009DF8070040F008008DF80700FFE79DF80E
:1037E000070002B080BD000080B5FFF781FE00F049
:1037F00003F8FFF7E3FE80BD80B590B041F600000E
:10380000C4F2010001210A900991FFF751F90A98C9
:103810000999FFF74DF941F20040C4F20100089008
:103820000999FFF745F908980999FFF741F9002030
:103830000F900E900D900C900B9009980C900D909D
:1038400004210E910F900821C0F208410B910DF157
:103850002C0E0A9807917146CDF818E001F066F831
:103860000A9905900846079901F094F940F204403E
:103870000B900A9904900846069901F057F80A99A6
:1038800003900846049901F085F940F608000B9072
:10389000089902900846069901F048F808990190A5
:1038A0000846029901F076F907980B900898069956
:1038B00001F03CF8089900900846079901F06AF970
:1038C00010B080BD80B582B0FFF73AFF8DF80700D9
:1038D0009DF80700002808D0FFE70A20FEF7D8FF70
:1038E000FFF72EFF8DF80700FFE79DF8070002B0F5
:1038F00080BD000080B58AB040F60000C4F201002F
:10390000012104900391FFF7D3F80020099008905B
:103910000790069005900821C0F208410591DDF856
:103920000CE0CDF818E0032207920890099005A852
:10393000049A02901046029B0191194600F0F6FF8E
:10394000049900900846019901F0D0F80AB080BDB2
:1039500080B500F059F880BD80B5FFF7F9FF80BD54
:1039600080B58CB040F60040C4F201000121069001
:103970000591FFF79DF800200B900A9009900890A0
:1039800007900421C0F204410791DDF814E0CDF85E
:1039900020E0022209920A900B9007A8069A049050
:1039A0001046049B0391194600F0C0FF069902904F
:1039B0000846039901F09AF843F6CD10C0F60000CE
:1039C00006F086FA01900CB080BD000080B540F290
:1039D0002800C2F200000168013101600068B0F502
:1039E000FA7F10D9FFE740F22800C2F20000002160
:1039F000016040F60040C4F201000421C0F204411D
:103A000001F0F2F9FFE780BD80B5FFF7A9FFFFF7EE
:103A100071FF80BD80B588B00A46034607900691C5
:103A200001200590079842F20041C4F2010188424A
:103A30000492039314D1FFE742F20040C4F2010064
:103A400000F012F942F6000EC4F2010E0290704628
:103A500000F00AF9DDF808E040EA0E00019007E006
:103A600043F60040C4F2010000F0FEF80190FFE7C9
:103A70000198002817D1FFE70698006800280AD0AF
:103A8000FFE70798406820F470200699096808430A
:103A90000799486006E00798406820F4702007996D
:103AA0004860FFE702E000200590FFE7059808B0B6
:103AB00080BD000080B584B00146039001200290D3
:103AC0000398019100F0D0F801280ED1FFE7039888
:103AD0004FF4602100F064F903984FF4E04100F0E6
:103AE0007DF8039800F056F8FFE70398806810F01F
:103AF000010F4CD1FFE70398016821F01F0101601D
:103B0000039841680022CFF630721140416003985B
:103B1000816840F2F062CFF6017211408160039833
:103B2000C16801F07F41C1600398016901F0404123
:103B300001610398416940F6FF7291434161039826
:103B400081696FF30B0181610398C1696FF30B0108
:103B5000C1610398016A6FF30B0101620398416A26
:103B6000114341620398816A6FF30B0181620398EC
:103B7000C16A01F07F41C1620398016B01F04041CD
:103B800001630398816B6FF315018163FFE702986E
:103B900004B080BD82B0014601900198826822F095
:103BA00001028260009102B07047000082B00146BD
:103BB00001900198826822F001028260009102B0B7
:103BC0007047000082B0014601900198826842F07F
:103BD00001028260009102B07047000084B00A4682
:103BE000034603900291039880680299090B61F3E0
:103BF0000E30039988600192009304B07047000072
:103C000080B586B00A4603460590049101200390D2
:103C100005980292019300F027F8002813D1FFE7DE
:103C20000598406820F48070049949680843059914
:103C300048600598806820F400600499096808438A
:103C40000599886002E000200390FFE7039806B022
:103C500080BD000082B00146019001988068C0F3E9
:103C60008000009102B0704782B001460190019837
:103C7000806800F00100009102B0704780B586B006
:103C80000A46034605900491012003900498406879
:103C900000280292019301D0FFE7FFE70598FFF7A4
:103CA000E3FF002831D1FFE70498406800280CD0DA
:103CB000FFE70598406820F4684004994A688968DD
:103CC000114308430599486009E00598406820F4CD
:103CD000684004994968084305994860FFE70598DA
:103CE00080684FF6FD61CFF6F171084004990A68CB
:103CF000CB6809691A431143084305998860059800
:103D00000499496800F008F802E000200390FFE7FA
:103D1000039806B080BD000084B00A4603460390B5
:103D200002910398C06A20F4700002990843039935
:103D3000C8620192009304B07047000010B589B0CA
:103D400013468C468646069005910492069805997E
:103D500001F440714FF440720892089A92FAA2F26C
:103D60000792079AB2FA82F2D14000EB81002C3020
:103D7000039003980168059A02F01F021F249440E3
:103D8000A143049C04F01F0404FA02F211430160F1
:103D90000293CDF804C0CDF800E009B010BD0000DA
:103DA00084B00A4603460390029103988068029902
:103DB000490C61F35340039988600192009304B069
:103DC0007047000082B0014601900198826842F479
:103DD000A0028260009102B07047000010B58DB063
:103DE00013468C46864606900591049206980599DE
:103DF00001F000714FF000720892089A92FAA2F254
:103E00000792079AB2FA82F2D14000EB81000C309F
:103E1000039003980068059901F0F8714FF0F8726B
:103E20000A920A9C94FAA4F40994099CB4FA84F4C2
:103E3000E140072404FA01F188430499059C04F049
:103E4000F8740C920C9A92FAA2F20B920B9AB2FAB4
:103E500082F224FA02F29140084303990860029327
:103E6000CDF804C0CDF800E00DB010BD82B0014621
:103E700001900198826842F004028260009102B0D1
:103E80007047000084B001460390039841F2140289
:103E9000C4F202021368184310601068039A1040BD
:103EA000029002980191009004B0704784B00146DE
:103EB0000390039841F21402C4F2020213681843FB
:103EC00010601068039A10400290029801910090CF
:103ED00004B0704782B001460190019841F21C0283
:103EE000C4F20202136823EA00001060009102B0DD
:103EF0007047000082B001460190019841F21C0217
:103F0000C4F20202136823EA00001060009102B0BC
:103F10007047000084B001460390039841F21C02F0
:103F2000C4F202021368184310601068039A10402C
:103F3000029002980191009004B0704784B001464D
:103F40000390039841F21C02C4F202021368184362
:103F500010601068039A104002900298019100903E
:103F600004B0704784B001460390039841F21C02EC
:103F7000C4F202021368184310601068039A1040DC
:103F8000029002980191009004B0704782B00146FF
:103F90000190019841F21002C4F202021368184322
:103FA0001060009102B0704782B001460190019804
:103FB00041F21002C4F2020213681843106000912B
:103FC00002B0704782B001460190019841F21002A0
:103FD000C4F20202136823EA00001060009102B0EC
:103FE0007047000082B001460190019841F2100232
:103FF000C4F20202136823EA00001060009102B0CC
:104000007047000082B001460190019841F2180209
:10401000C4F20202136823EA00001060009102B0AB
:104020007047000082B001460190019841F21802E9
:10403000C4F20202136823EA00001060009102B08B
:104040007047000082B001460190019841F21802C9
:10405000C4F20202136823EA00001060009102B06B
:104060007047000082B001460190019841F21802A9
:10407000C4F20202136823EA00001060009102B04B
:104080007047000084B001460390039841F2180283
:10409000C4F202021368184310601068039A1040BB
:1040A000029002980191009004B0704784B00146DC
:1040B0000390039841F21802C4F2020213681843F5
:1040C00010601068039A10400290029801910090CD
:1040D00004B0704784B001460390039841F218027F
:1040E000C4F202021368184310601068039A10406B
:1040F000029002980191009004B0704784B001468C
:104100000390039841F21802C4F2020213681843A4
:1041100010601068039A104002900298019100907C
:1041200004B0704782B001460190019841F20C0240
:10413000C4F20202136818431060009102B0704785
:1041400082B001460190019841F20C02C4F20202D1
:10415000136818431060009102B0704782B00146A6
:104160000190019841F20C02C4F20202136823EAA2
:1041700000001060009102B07047000082B001465C
:104180000190019841F20C02C4F20202136823EA82
:1041900000001060009102B07047000080B584B04C
:1041A0000146039001200290039843F20002C4F2FA
:1041B00002029042019108D1FFE7039800F020F835
:1041C0000398002100F030F802E000200290FFE7A1
:1041D000029804B080BD000084B00A4603460390F4
:1041E00002910298039908600192009304B070470D
:1041F00082B00146019001980068009102B07047BA
:1042000082B001460190019801228260009102B0C3
:104210007047000082B0014601900198012282603F
:10422000009102B07047000084B00A460346039034
:1042300002910298039908710192009304B07047AB
:1042400082B001460190019801224260009102B0C3
:104250007047000082B0014601900198012242603F
:10426000009102B07047000082B0014601900198B1
:1042700010224260009102B07047000082B00146F7
:10428000019001984FF480724260009102B0704733
:1042900082B00146019001984FF480524260009133
:1042A00002B0704782B00146019001984FF480320D
:1042B0004260009102B0704782B0014601900198BF
:1042C0004FF480324260009102B0704782B00146E4
:1042D000019001984FF480124260009102B0704743
:1042E00082B00146019001984FF0807242600091C7
:1042F00002B0704782B001460190019804224260EA
:10430000009102B07047000082B001460190019810
:104310004FF480224260009102B0704782B00146A3
:104320000190019802224260009102B070470000A3
:1043300082B00146019001984FF400324260009132
:1043400002B0704780B586B013468C46864605900D
:1043500004910392059804994DF2F372C0F600029D
:10436000114411F8011C40580499114447F6F072A9
:104370009043039A1043059A11F8011C5050029380
:10438000CDF804C0CDF800E006B080BD80B592B095
:104390000A460346119010910820C4F202000F90C3
:1043A00001200E9011980021C4F2020188420D9262
:1043B0000C9309D1FFE71098012805D1FFE70820E9
:1043C000C4F202000B90D0E0119840F20041C4F218
:1043D000020188420AD1FFE71098012806D1FFE7C1
:1043E00040F20840C4F202000A90BBE0119800219C
:1043F000C4F20201884209D1FFE71098022805D1D2
:10440000FFE71C20C4F202000990A8E0119840F2D6
:104410000041C4F2020188420AD1FFE71098022845
:1044200006D1FFE740F21C40C4F20200089093E07E
:1044300011980021C4F20201884209D1FFE71098C7
:10444000032805D1FFE73020C4F20200079080E086
:10445000119840F20041C4F2020188420AD1FFE7FC
:104460001098032806D1FFE740F23040C4F2020062
:1044700006906BE011980021C4F20201884209D134
:10448000FFE71098042805D1FFE74420C4F202009A
:10449000059058E0119840F20041C4F202018842B0
:1044A0000AD1FFE71098042806D1FFE740F2444004
:1044B000C4F20200049043E011980021C4F202010A
:1044C000884209D1FFE71098052805D1FFE7582059
:1044D000C4F20200039030E0119840F20041C4F2AF
:1044E000020188420AD1FFE71098052806D1FFE7AC
:1044F00040F25840C4F2020002901BE011980021E3
:104500000022C4F202029042019107D1FFE7109805
:104510000638B0FA80F040090190FFE70198C00723
:104520008021C4F2020100281CBF6C21C4F20201E8
:104530000291FFE702980390FFE703980490FFE7DA
:1045400004980590FFE705980690FFE70698079006
:10455000FFE707980890FFE708980990FFE7099898
:104560000A90FFE70A980B90FFE70B980F900F98BF
:10457000016821F0010101600F98002101600F988E
:1045800041600F9881600F98C1601098012804D194
:10459000FFE71198FFF754FE38E01098022804D185
:1045A000FFE71198FFF760FE2FE01098032804D171
:1045B000FFE71198FFF762FE26E01098042804D167
:1045C000FFE71198FFF764FE1DE01098052804D15D
:1045D000FFE71198FFF766FE14E01098062804D153
:1045E000FFE71198FFF772FE0BE01098072804D13F
:1045F000FFE71198FFF774FE02E000200E90FFE73E
:10460000FFE7FFE7FFE7FFE7FFE7FFE70E9812B0DE
:1046100080BD000084B00A460346039002910398CF
:1046200002994DF2FA7CC0F6000C614411F8011CAD
:1046300050F801C02CF0010C40F801C00192009329
:1046400004B0704784B00A46034603900291039871
:1046500002994DF2FA7CC0F6000C614411F8011C7D
:1046600050F801C04CF0010C40F801C001920093D9
:1046700004B0704784B00A46034603900291039841
:1046800002994DF2FA7CC0F6000C614411F8011C4D
:1046900050F801C04CF0020C40F801C001920093A8
:1046A00004B07047F0B587B013468C468646069036
:1046B0000591049206980599049A9468D56816693C
:1046C00057692C4334433C4395692C43D5692C43AB
:1046D000526A22430393CDF808C0CDF804E0FFF7F7
:1046E00031FE06980599049A526800F085F80698FC
:1046F0000599049A126800F09BF806980599049AA7
:10470000126A00F02DF8012007B0F0BD82B001461A
:10471000019001980068C0F34000009102B070471A
:1047200082B00146019001980068C0F340400091BA
:1047300002B0704784B00A46034603900291039882
:1047400002994DF2EC7CC0F6000C614411F8011C9A
:104750004058C0F340000192009304B0704700003D
:1047600080B586B013468C46864605900491039228
:10477000059804994DF2F372C0F60002114411F845
:10478000011C08444068049911444FF6FF7290439D
:10479000039A1043059A11F8011C114448600293D2
:1047A000CDF804C0CDF800E006B080BD80B586B07D
:1047B00013468C4686460590049103920598049909
:1047C0004DF2FA72C0F60002114411F8011C0844BF
:1047D0004068049911444FF6FF729043039A1043C6
:1047E000059A11F8011C114448600293CDF804C0E9
:1047F000CDF800E006B080BD10B586B013468C46FB
:10480000864605900491039203980599049A4DF207
:10481000F374C0F60004224412F8012C1144C8605D
:104820000293CDF804C0CDF800E006B010BD000042
:1048300010B586B013468C468646059004910392C7
:1048400003980599049A4DF2F374C0F600042244CB
:1048500012F8012C114488600293CDF804C0CDF801
:1048600000E006B010BD000042F20000C4F20200F9
:10487000016841F4806101607047000042F200006D
:10488000C4F20200016841F4007101607047000049
:1048900042F20000C4F20200016841F01001016020
:1048A0007047000042F20000C4F20200006800F00D
:1048B0000700704782B0014601900198008800917E
:1048C00002B0704782B00146019042F20000C4F28B
:1048D0000200026822F00702019B1A430260009165
:1048E00002B070470420C4F20100016821F4406165
:1048F0000160016841F40061016070470420C4F266
:104900000100016821F0E0610160016841F000717F
:10491000016070470420C4F20100016821F0E061E9
:104920000160016841F080710160704780B58AB014
:104930000A4603460790069106980068C0F30F20C8
:10494000059005980990099890FAA0F008900898A9
:10495000B0FA80F0049002920193FFE70598049961
:10496000C840002845D0FFE705980499012202FAC3
:1049700001F1084239D0FFE70498072807D8FFE77C
:10498000049840F2011101FA00F0039009E0049844
:1049900008384FF0011101FA00F040F080600390F8
:1049A000FFE707980399069A526800F02BF90798D9
:1049B0000399069A126900F0C1F906984068012827
:1049C00005D0FFE70698406809280DD1FFE7079852
:1049D0000399069A926800F0D3F907980399069A0A
:1049E000D26800F077F9FFE7FFE704980130049000
:1049F000B4E701200AB080BD84B00A4603460390A4
:104A00000291039880680299C1F30F210840401A6F
:104A1000B0FA80F040090192009304B070470000A2
:104A200084B00A4603460390029103988068029975
:104A3000C1F30F210840401AB0FA80F040090192FA
:104A4000009304B07047000084B00A460346039008
:104A50000291039880680299C1F30F210840401A1F
:104A6000B0FA80F040090192009304B07047000052
:104A700084B00A4603460390029103988068029925
:104A8000C1F30F210840401AB0FA80F040090192AA
:104A9000009304B07047000084B00A4603460390B8
:104AA00002910298C0F30F2003994861019200938C
:104AB00004B0704784B00A460346039002910298FE
:104AC000C0F30F20039948610192009304B070472E
:104AD00084B00A460346039002910298C0F30F2067
:104AE000039948610192009304B0704784B00A466C
:104AF0000346039002910298C0F30F200399486186
:104B00000192009304B0704784B00A4603460390B4
:104B100002910298C0F30F2003994861019200931B
:104B200004B0704784B00A4603460390029102988D
:104B3000C0F30F20039948610192009304B07047BD
:104B400084B00A460346039002910298C0F30F20F6
:104B5000039948610192009304B0704784B00A46FB
:104B60000346039002910298C0F30F200399086155
:104B70000192009304B0704784B00A460346039044
:104B800002910298C0F30F200399086101920093EB
:104B900004B0704784B00A4603460390029102981D
:104BA000C0F30F20039908610192009304B070478D
:104BB00084B00A460346039002910298C0F30F2086
:104BC000039908610192009304B0704784B00A46CB
:104BD0000346039002910298C0F30F2003990861E5
:104BE0000192009304B0704784B00A4603460390D4
:104BF00002910298C0F30F2003990861019200937B
:104C000004B0704780B58BB013468C46864606903C
:104C10000591049206989DF8171008440390039894
:104C2000006805990891089991FAA1F107910799EF
:104C3000B1FA81F189000F2202FA01F18843049947
:104C4000059A0A920A9A92FAA2F20992099AB2FA7B
:104C500082F2920091400843039908600293CDF8D4
:104C600004C0CDF800E00BB080BD000080B58BB073
:104C700013468C46864606900591049206989DF848
:104C80001710084403900398006805990891089943
:104C900091FAA1F107910799B1FA81F189000F22E8
:104CA00002FA01F188430499059A0A920A9A92FA43
:104CB000A2F20992099AB2FA82F292009140084354
:104CC000039908600293CDF804C0CDF800E00BB062
:104CD00080BD000080B58BB013468C46864606909A
:104CE0000591049206989DF81710084403900398C4
:104CF000006805990891089991FAA1F1079107991F
:104D0000B1FA81F18900042202FA01F18843049981
:104D1000059A0A920A9A92FAA2F20992099AB2FAAA
:104D200082F2920091400843039908600293CDF803
:104D300004C0CDF800E00BB080BD000080B588B0A5
:104D400013468C4686460590049103920598C068E8
:104D500004990A0A20EA112003990792079A92FA05
:104D6000A2F20692069AB2FA82F29140084305999D
:104D7000C8600293CDF804C0CDF800E008B080BD53
:104D800080B58BB013468C468646069005910492FA
:104D900006989DF817100844039003980068059939
:104DA0000891089991FAA1F107910799B1FA81F157
:104DB0008900032202FA01F188430499059A0A92B4
:104DC0000A9A92FAA2F20992099AB2FA82F292002F
:104DD00091400843039908600293CDF804C0CDF8D0
:104DE00000E00BB080BD000084B00A46034603908B
:104DF00002910398C0680299C1F30F2148400399BA
:104E0000C8600192009304B07047000082B0014670
:104E1000019043F20000C4F200004AF6AA220260A8
:104E2000009102B07047000084B00A460346039028
:104E3000029103980299B0FBF1F001384EF214018F
:104E4000CEF2000108604EF21800CEF20000002100
:104E500001604EF21000CEF20000052101600192C7
:104E6000009304B07047000041F20800C4F2020051
:104E7000016841F4000101607047000041F2080040
:104E8000C4F20200016841F4002101607047000093
:104E900041F20800C4F20200016821F400610160DF
:104EA0007047000041F20800C4F20200016841F4BA
:104EB000006101607047000041F20400C4F202008A
:104EC000006800F0F000704741F20400C4F20200F4
:104ED000006800F4E060704741F20400C4F2020090
:104EE000006800F46050704741F20400C4F2020010
:104EF000006800F00C00704741F20400C4F20200A8
:104F0000006800F00C00704780B582B00146019047
:104F1000009101F051FD019908600198006801F0CD
:104F20000DFD019948600198406801F01DFD01994F
:104F300088600198406801F02BFD0199C86002B0BB
:104F400080BD000041F20000C4F20200016841F49B
:104F5000803101607047000041F20000C4F202009D
:104F6000016841F4803101607047000041F20000A7
:104F7000C4F202000068C0F34040704741F20800EC
:104F8000C4F202000068C0F3C010704741F208008C
:104F9000C4F202000068C0F3C000704741F2240070
:104FA000C4F20200016841F0010101607047000095
:104FB00041F22400C4F202000068C0F340007047D0
:104FC00080B584B00A4603460390029141F2040082
:104FD000C4F20200016821F47C11DDF80CC00CF46D
:104FE000403CDDF808E04CEA0E0C41EA0C0101609F
:104FF0000192009304B080BD41F20000C4F20200AF
:10500000016841F0807101607047000041F20400C6
:10501000C4F20200006800F48030704741F20400DE
:10502000C4F20200006800F47010704741F20400FE
:10503000C4F202000068C0F34040704741F2000033
:10504000C4F202000068C0F34060704782B00146BD
:10505000019041F20400C4F20200026822F44042CE
:10506000019B1A430260009102B0704782B0014672
:10507000019041F20400C4F20200026822F0F00242
:10508000019B1A430260009102B0704782B0014652
:10509000019041F20400C4F20200026822F4E062CE
:1050A000019B1A430260009102B0704782B0014632
:1050B000019041F20400C4F20200026822F460523E
:1050C000019B1A430260009102B0704782B0014612
:1050D000019041F20400C4F20200026822F00302CF
:1050E000019B1A430260009102B0704782B00146F2
:1050F000019001980428009109D1FFE74EF21000B9
:10510000CEF20000016841F00401016008E04EF2B7
:105110001000CEF20000016821F004010160FFE7F9
:1051200002B0704782B001460190019840F200023F
:10513000C2F200021060009102B0704784B00A46CB
:1051400003460390029102980399D1F820C02CEAFB
:10515000000008620192009304B0704782B00146DB
:10516000019001984FF0FF320261009102B0704748
:1051700082B00146019001986FF002020261009135
:1051800002B0704782B00146019001986FF00402AE
:105190000261009102B0704782B00146019001980F
:1051A0006FF008020261009102B0704782B00146C0
:1051B000019001986FF010020261009102B07047F7
:1051C00082B00146019001986FF0010202610091E6
:1051D00002B0704780B592B0014611900120109046
:1051E0001198B0F1804F0F9108D1FFE701200E9088
:1051F000FEF7DAFE0E98FEF7F5FEE5E0119842F6AE
:105200000041C4F20101884209D1FFE74FF4006078
:105210000D90FEF795FF0D98FEF7B0FFD3E01198C3
:1052200040F20041C4F20001884208D1FFE70220A9
:105230000C90FEF7B9FE0C98FEF7D4FEC2E0119870
:1052400040F60001C4F20001884208D1FFE70420C3
:105250000B90FEF7A9FE0B98FEF7C4FEB1E0119883
:1052600040F60041C4F20001884208D1FFE708205F
:105270000A90FEF799FE0A98FEF7B4FEA0E0119896
:1052800041F20001C4F20001884208D1FFE710207A
:105290000990FEF789FE0998FEF7A4FE8FE01198A9
:1052A00041F20041C4F20001884208D1FFE720200A
:1052B0000890FEF779FE0898FEF794FE7EE01198BC
:1052C00043F20041C4F20101884209D1FFE74FF4E3
:1052D00000500790FEF734FF0798FEF74FFF6CE091
:1052E000119844F60041C4F20101884209D1FFE758
:1052F0004FF400200690FEF723FF0698FEF73EFFCE
:105300005AE0119845F20001C4F20101884209D126
:10531000FFE74FF480100590FEF712FF0598FEF7A7
:105320002DFF48E0119845F20041C4F20101884286
:1053300009D1FFE74FF400100490FEF701FF049835
:10534000FEF71CFF36E0119841F60001C4F200019F
:10535000884208D1FFE740200390FEF725FE03981E
:10536000FEF740FE25E0119841F60041C4F200012D
:10537000884208D1FFE780200290FEF715FE0298D0
:10538000FEF730FE14E0119842F20001C4F2000171
:10539000884209D1FFE74FF480700190FEF704FEC8
:1053A0000198FEF71FFE02E000201090FFE7FFE7E4
:1053B000FFE7FFE7FFE7FFE7FFE7FFE7FFE7FFE7BD
:1053C000FFE7FFE7FFE7FFE7109812B080BD00009E
:1053D00082B0014601900198026822F080020260CA
:1053E000009102B07047000082B001460190019820
:1053F000026822F001020260009102B070470000D2
:1054000082B0014601900198026822F00102026018
:10541000009102B07047000082B0014601900198EF
:10542000C26822F48042C260009102B0704700005E
:1054300082B0014601900198C26822F04002C26029
:10544000009102B07047000082B0014601900198BF
:10545000826822F080028260009102B070470000F2
:1054600082B0014601900198826822F08002826039
:10547000009102B07047000082B00146019001988F
:10548000026842F080020260009102B070470000A2
:1054900082B0014601900198026842F00102026068
:1054A000009102B07047000082B00146019001985F
:1054B000026842F001020260009102B070470000F1
:1054C00082B0014601900198C26842F00202C260B7
:1054D000009102B07047000082B00146019001982F
:1054E000C26842F00402C260009102B0704700003E
:1054F00082B0014601900198C26842F00802C26081
:10550000009102B07047000082B0014601900198FE
:10551000C26842F01002C260009102B07047000001
:1055200082B0014601900198C26842F00102C26057
:10553000009102B07047000082B0014601900198CE
:10554000426942F001024261009102B070470000DE
:1055500082B0014601900198406A009102B0704704
:1055600082B0014601900198406A009102B07047F4
:1055700082B0014601900198406B009102B07047E3
:1055800082B0014601900198806B009102B0704793
:1055900082B0014601900198C06B009102B0704743
:1055A00082B0014601900198006C009102B07047F2
:1055B0008AB00A4603460990089108980128069285
:1055C000059303D1FFE70020049030E008980428F9
:1055D00003D1FFE70120039026E00898102803D1AB
:1055E000FFE7022002901CE00898402803D1FFE763
:1055F0000320019012E00898B0F5807F03D1FFE707
:105600000420009007E008980621B0F5806F08BFDD
:1056100005210091FFE700980190FFE701980290B3
:10562000FFE702980390FFE703980490FFE70498D0
:105630008DF81F000998006A9DF81F104DF60802AA
:10564000C0F60002515C0A228A401040C8400AB0ED
:105650007047000080B588B013468C468646079098
:105660000691059200200490069801280393CDF836
:1056700008C0CDF804E000900ED0FFE70098102895
:1056800010D0FFE70098B0F5807F11D0FFE70098B9
:10569000B0F5805F12D017E007980599FDF75AFD25
:1056A000049012E007980599FDF782FD04900CE044
:1056B00007980599FDF7AAFD049006E0079805995B
:1056C000FDF7D2FD049000E0FFE7049808B080BD2C
:1056D00080B58DB013468C4686460C900B910A928D
:1056E0000B9801280793CDF818C0CDF814E003D12A
:1056F000FFE70020049030E00B98042803D1FFE777
:105700000120039026E00B98102803D1FFE7022028
:1057100002901CE00B98402803D1FFE70320019082
:1057200012E00B98B0F5807F03D1FFE704200090D2
:1057300007E00B980621B0F5806F08BF05210091A6
:10574000FFE700980190FFE701980290FFE70298B9
:105750000390FFE703980490FFE704988DF8270073
:105760000C989DF827104DF60102C0F60002515C1E
:10577000084418300890089801689DF827204DF6D5
:105780001603C0F600039A5C032393409943BDF8C7
:105790002A3003FA02F2114301600DB080BD00000F
:1057A00080B58DB013468C4686460C900B910A92BC
:1057B0000B9801280793CDF818C0CDF814E003D159
:1057C000FFE70020049030E00B98042803D1FFE7A6
:1057D0000120039026E00B98102803D1FFE7022058
:1057E00002901CE00B98402803D1FFE703200190B2
:1057F00012E00B98B0F5807F03D1FFE70420009002
:1058000007E00B980621B0F5806F08BF05210091D5
:10581000FFE700980190FFE701980290FFE70298E8
:105820000390FFE703980490FFE704988DF82700A2
:105830000C989DF827104DF60102C0F60002515C4D
:10584000084418300890089801689DF827204DF604
:105850001603C0F600039A5CF02393409943BDF809
:105860002A3003FA02F2114301600DB080BD00003E
:1058700080B58CB013468C4686460B900A910992EF
:105880000A9801280793CDF818C0CDF814E003D189
:10589000FFE70020049030E00A98042803D1FFE7D6
:1058A0000120039026E00A98102803D1FFE7022088
:1058B00002901CE00A98402803D1FFE703200190E2
:1058C00012E00A98B0F5807F03D1FFE70420009032
:1058D00007E00A980621B0F5806F08BF0521009106
:1058E000FFE700980190FFE701980290FFE7029818
:1058F0000390FFE703980490FFE704988DF82300D6
:105900000B98006A9DF823104DF60802C0F60002BD
:10591000515C0A228A409043099A02FA01F1084335
:105920000B9908620CB080BD80B58CB013468C46D4
:1059300086460B900A9109920A9801280793CDF8A0
:1059400018C0CDF814E003D1FFE70020049030E048
:105950000A98042803D1FFE70120039026E00A9863
:10596000102803D1FFE7022002901CE00A9840288B
:1059700003D1FFE70320019012E00A98B0F5807F81
:1059800003D1FFE70420009007E00A980621B0F554
:10599000806F08BF05210091FFE700980190FFE7A5
:1059A00001980290FFE702980390FFE703980490A4
:1059B000FFE704988DF823000B98006A9DF82310E8
:1059C0004DF60F02C0F60002515C0A228A40904355
:1059D000099A02FA01F108430B9908620CB080BDE4
:1059E00080B586B00A4603460590049100200390D6
:1059F000059800680390059842F60041C4F2010141
:105A000088420292019325D0FFE7059843F20041B6
:105A1000C4F2010188421DD0FFE70598B0F1804F24
:105A200018D0FFE7059840F20041C4F20001884217
:105A300010D0FFE7059840F60001C4F2000188424B
:105A400008D0FFE7059840F60041C4F20001884203
:105A500008D1FFE7039820F07000049949680843D3
:105A60000390FFE7059842F60041C4F20101884225
:105A700055D0FFE7059843F20041C4F20101884286
:105A80004DD0FFE70598B0F1804F48D0FFE705986B
:105A900040F20041C4F20001884240D0FFE705987F
:105AA00040F60001C4F20001884238D0FFE70598B3
:105AB00040F60041C4F20001884230D0FFE705986B
:105AC00044F60041C4F20101884228D0FFE705985E
:105AD00045F20001C4F20101884220D0FFE7059899
